:020000040800F2
:1000000028DB0020694E0008AD2A0008AF2A00084E
:10001000B12A0008B32A0008B52A00080000000031
:10002000000000000000000000000000B72A0008E7
:10003000B92A0008000000002BED00080D7500082B
:10004000834E0008834E0008834E0008A94A00082A
:10005000834E0008834E0008834E0008834E00083C
:10006000834E0008834E0008834E0008834E00082C
:10007000834E0008834E0008834E0008834E00081C
:10008000834E0008834E0008834E0008834E00080C
:10009000834E0008834E0008834E0008CB7800088A
:1000A000834E0008834E0008834E0008834E0008EC
:1000B000834E0008834E0008834E0008834E0008DC
:1000C000834E0008834E0008834E0008834E0008CC
:1000D000834E0008CB760008F94C0008257800080C
:1000E000834E0008D94A0008834E0008834E00085A
:1000F000834E0008834E0008834E0008834E00089C
:10010000834E0008834E0008834E0008834E00088B
:10011000834E0008834E0008834E0008714C00088F
:10012000834E0008834E0008834E0008834E00086B
:10013000834E0008834E0008834E0008834E00085B
:10014000834E0008834E0008834E0008834E00084B
:10015000834E0008834E0008834E0008834E00083B
:10016000834E0008834E0008834E0008834E00082B
:10017000834E0008834E0008834E0008834E00081B
:10018000834E0008834E000800F002F800F0B6F835
:100190000AA090E8000C82448344AAF10107DA45E2
:1001A00001D100F0ABF8AFF2090EBAE80F0013F07E
:1001B000010F18BFFB1A43F00103184790F7000026
:1001C000B0F7000010F8013B0A4413F0030408BF25
:1001D00010F8014B1D1108BF10F8015B641E05D01B
:1001E00010F8016B641E01F8016BF9D1002D15D0D8
:1001F00010F8014B03F00C030C2BA1EB04040ABF15
:1002000010F8013BA4EB8314A4EB032405F10103D4
:1002100014F8016B5B1E01F8016BF9D5914238BFF0
:1002200010F8013BD1D3704700230024002500269D
:10023000103A28BF78C1FBD8520728BF30C148BF49
:100240000B6070476E290DF0E08370290DF0B181CD
:1002500066290EF0F68565290EF0F38567290EF004
:10026000F0856129AFF3008003681B0A28BF41F0C5
:10027000800169290DF0228164290DF01F81752903
:100280000DF01C816F290DF0D98478290DF07D8146
:10029000E9290DF07384E4290DF07084F5290DF03F
:1002A0006D84EF290DF0D684F8290DF07C81036868
:1002B000DB0928BF41F0800163290DF0E283732937
:1002C0000DF0E783E3290DF09187F3290DF0968770
:1002D000002070471FB50EF0AFFD0EF049F8040086
:1002E000002000210EF07CFD401C606000200021F9
:1002F0000EF08CFDE0601FBD10B510BD0EF013F8C0
:100300001146FFF7E7FF02F072FB0EF0F1F803B4BD
:10031000FFF7F2FF03BC07F086F9000006F027BBE9
:1003200010B5FF490024086804E0641C04EBC40015
:1003300051F82000401CF8D12146FAA00DF04CF8ED
:10034000204610BD70B50546FC49012006F007FDAA
:10035000FA490120091D06F07AFDFFF7E1FF064684
:1003600006F0B8F8EE4806EBC60400EB8400711CFA
:1003700006F0C7F9092800D0FEE7E9482946001D24
:1003800000EB840006F0BDF9092800D0FEE7EB4D34
:10039000E3482D1D0830E97800EB840006F0B1F940
:1003A000092800D0FEE7DE4869780C3000EB8400B5
:1003B00006F0A7F9092800D0FEE7D948A97810303F
:1003C00000EB840006F09DF9092800D0FEE7D44830
:1003D0002978143000EB840006F093F9092800D046
:1003E000FEE7D64DCE481830297800EB840006F0A1
:1003F00088F9092800D0FEE7C94869781C3000EB6D
:10040000840006F07EF9092800D0FEE7C448A978E8
:10041000203000EB840006F074F9092800D0FEE7D4
:100420003146BDE87040BFA00CF0D6BF1FB5002616
:10043000C3A00CF0D1FFFFF773FFDFF8E4A20DF1CA
:10044000080B0027CDE9007B002203AB1146C4480E
:100450000AF0B6FB5FEA0008F4D0BDF80C000028F3
:10046000F0D0252002F0F7FA272002F0F4FA6EB15E
:10047000BCA140460DF080F9002877D0FFF750FF6F
:100480008146BAA00CF0A8FF002565E0AB494046C4
:100490000D310DF071F960B101260520FFF752FF13
:1004A000B3A00CF099FF40F6B83007F082F8B4A082
:1004B000DFE0A249404608310DF05EF958B1042052
:1004C000FFF740FFA64802AB00220221303009F0BE
:1004D00051FBB0A0CAE0B2A00CF07EFFB0A0C8E013
:1004E00005EBC5000AEB80042168B0A00CF074FF96
:1004F0006068012808D0022808D0032808D0042802
:1005000008D0052808D00AE0AAA006E0ADA004E0C3
:10051000B0A002E0B3A000E0B6A00CF05DFFA168BF
:10052000B8A00CF059FFE168B9A00CF055FF2169A3
:10053000B9A00CF051FF6169B9A00CF04DFFA169A1
:10054000BAA00CF049FFE169B8A00CF045FF216AA0
:10055000B8A00CF041FF6D1C48464D45C0D3014684
:1005600000E003E0B5A00CF037FF84E0BAA14046FC
:100570000DF002F970B1BAA00CF02EFF062003F0C6
:100580001BFABBA00CF028FFBDA007F037F9FFF75E
:10059000C7FE70E0BEA140460DF0EEF8002855D031
:1005A000BDA140460DF0E2F8BBA100200DF0DEF841
:1005B00004460DF0F3F8052804D0B8A00CF00CFFA9
:1005C000B6A056E0BAA007F019F9B9A00CF004FFE4
:1005D0005A480422214608300DF07AF9574808306D
:1005E0000771072003F0E8F9544905220831B4489F
:1005F00003F061FA5149B24805220D31401D03F064
:100600005AFA5A220621102004F0D4F85722062163
:10061000202004F0CFF82D220621302004F0CAF863
:100620002E220621402004F0C5F807220621502082
:1006300004F0C0F808220621602004F0BBF8A1A055
:1006400007F0DCF89FA00CF0C7FE14E0A1A1404623
:100650000DF092F878B10420FFF774FE404802AB29
:1006600000220221303009F085FA9CA00CF0B4FE83
:1006700048A007F0C3F89EA140460DF07DF818B1E0
:1006800000269DA00CF0A8FEA0480760A0480770B7
:100690008021A0480DF0D3F89F4807609F4807705D
:1006A00080219F480DF0CBF8BDF80C1040460DF0AE
:1006B000C6F8252002F0C4F9272002F0C1F9C1E6EE
:1006C00030B585B00446142296A168460DF085F831
:1006D0004D220021182004F06DF84E220021282020
:1006E00004F068F84F220021382004F063F850220B
:1006F0000021482004F05EF851220021582004F027
:1007000059F810238CA20221002004F039F852225B
:100710000221082004F04EF85322022118200DE196
:1007200000000408B5B1C7B0BCC7C2BCC1CB2564CA
:10073000B8F6CAFDBEDD0D0A00000000080000206A
:100740005B6170705F7461736B5F75736172745D10
:1007500020637265617465206F6B0D0A00000000F4
:100760001C5800207265636F726400000A0000006C
:10077000B9DCC0EDD4B1B5C7C2BC0D0A00000000A1
:10078000B9DCC0EDD4B1B5C7C2BCB3C9B9A60D0AB6
:1007900000000000BDE2CBF8B3C9B9A60D0A000005
:1007A000C3DCC2EBB4EDCEF30D0A00005B253034A0
:1007B000645D0D00205BD6B8CEC6BDE2CBF85D20EF
:1007C0000D000000205BC3DCC2EBBDE2CBF85D2076
:1007D0000D000000205B2052464944BFA8205D2048
:1007E0000D000000205BC0B6D1C0BDE2CBF85D209B
:1007F0000D000000205B20B9DCC0EDD4B1205D20ED
:100800000D0000003230253032782F0D000000003E
:10081000253032782F0D000025303278200D000071
:100820005765656B202578200D0000002530327853
:100830003A0D000025303278200D0A000AB9B225A1
:1008400064B8F6BDE2CBF8BCC7C2BCB6C1C8A1CD86
:10085000EAB1CF0D0A0A0000636C65617200000006
:10086000D5FDD4DAB2C1B3FDC9C8C7F8360D0A0048
:10087000B2C1B3FDC9C8C7F836CDEAB3C90D0A0085
:10088000BCC7C2BCC7E5B3FDCDEAB1CF0D0A0000BD
:100890006E657770773D00003D000000D0C2C3DC7C
:1008A000C2EBB3A4B6C8B2BBB6D40D0A00000000B8
:1008B000D5FDD4DAB8FCB8C4C3DCC2EB0D0A000025
:1008C00000000608B8FCB8C4C3DCC2EBB3C9B9A6C3
:1008D0000D0A0000756E6C6F636B0000B9DCC0ED33
:1008E000D4B1BDE2CBF8B3C9B9A60D0A000000002F
:1008F0007175697400000000B9DCC0EDD4B1C1AC01
:10090000BDD3B6CFBFAA0D0A00000000141A002004
:10091000101A0020B05C0020201A00201C1A0020B1
:10092000305D00205602030B02030D0203572D2EEB
:100930000B0C580D0E5800004100000003F03AFF68
:100940001023FEA20221282003F01AFF54220221C4
:10095000382003F02FFF55220221482003F02AFF00
:100960001023F7A20221582003F00AFF39220221A6
:10097000602003F01FFF3A220221702003F01AFFCB
:1009800004EB44046D461DF804200521282003F0E3
:1009900011FF2C4405216278382003F00BFFA27868
:1009A0000521482003F006FF05B030BD4FF00009D7
:1009B00086B04F46CDF808904C46E2A0CDF80C909A
:1009C0000CF00AFDDFF898B30DF11008CDE90078BE
:1009D000002205AB1146E3480AF0F2F88246067899
:1009E000E04804AB00221021603009F0C3F85FEA50
:1009F000090005D001286BD0B9F1020F67D12FE1B2
:100A0000D7499BF800001A31D8460E54401C8BF889
:100A10000000D5A00CF0E0FC6FF00E0000251026C1
:100A2000C8F8040098F800004FF01003854206EB68
:100A30000510C0B201D2D1A200E0D1A2002103F082
:100A40009FFE6D1CEDB2062DECD3C549002510317B
:100A500001F10A000CF090FE50B1C24804AB002234
:100A60000221603009F086F80220FFF76BFC28E0D5
:100A7000BB491531481D0CF07FFEB8B10520FFF7CA
:100A800061FC04A9BF480BF047FC04A9BE480BF069
:100A900043FC03F0BFFD0020FFF712FEC8F81A70F8
:100AA000A8F81E7088F800700120A1E098F80000F6
:100AB0000628A3D1AB4804AB00220421603009F022
:100AC00059F8C8F81A70A8F81E7088F800707FE10D
:100AD000422E06D0432E09D0412E0ED0442E7CD07B
:100AE000BAE00CB1641E04E00524B5E0052C02D088
:100AF000641CE4B2B0E00024AEE054B1012C14D088
:100B0000022C24D0032C2ED0042C73D0052C7DD0A5
:100B1000A2E0944804AB00220221883009F02AF8B0
:100B200000224FF4847340210AE08E4804AB002277
:100B30000421883009F01EF800224FF4847310213C
:100B400088488830CDE9007808F0C3FD84E0854806
:100B500004AB00220821883009F00CF800224FF481
:100B600084732021ECE703F055FD5A220021102068
:100B700003F020FE57220021202003F01BFE052257
:100B80000021302003F016FE06220021402003F051
:100B900011FE2D220021502003F00CFE2E220021F8
:100BA000602003F007FE102378A20221082003F042
:100BB000E7FD59220221102003F0FCFD2F22022123
:100BC000202003F0F7FD10235DA20221382003F05E
:100BD000D7FD39220221402002E025E00AE015E09D
:100BE00003F0E8FD3A220221502003F0E3FD022049
:100BF0008146EDE05B4804AB00220221B03008F0F2
:100C0000B9FF00224FF4847308210AE0554804AB71
:100C100000220421B03008F0ADFF00224FF48473AD
:100C200010215048B0308DE74FF00009CBF8047028
:100C300003F0F0FC4A48022320300090802200217B
:100C4000702003F0E8FD04A94E480BF0FCF804A95D
:100C50004D480BF0F8F8BBE02046FFF731FDB7E058
:100C600002A8024646556D1CEDB21023042128202F
:100C700003F086FD042D0ED044A102A80CF07CFDEB
:100C8000F0B302970025102341A2042128200397E6
:100C900003F076FD9CE01D220621102003F08AFD62
:100CA0005F220621202003F085FD5A2206213020F4
:100CB00003F080FD57220621402003F07BFD2D220A
:100CC0000621502003F076FD2E220621602003F03D
:100CD00071FD072002F070FE21488DF80C7005228E
:100CE00002A910300CF0F4FD1D49052210312A48EC
:100CF00002F0E1FE1A49284805221531401D00E0A6
:100D000058E002F0D8FE029700255A220621102052
:100D1000039703F04FFD57220621202003F04AFDE0
:100D20002D220621302003F045FD2E2206214020F1
:100D300003F040FD0722062150202FE0424300002F
:100D4000440000005B6170705F7461736B5F73746B
:100D5000615D20637265617465206F6B0D0A000030
:100D600000000020EC570020675F696E7075745FAB
:100D70005057203D2025730D0A0000002A20000056
:100D80005F200000C01D00200C3800202A00000059
:100D900020202020202000000000060803F00AFD8B
:100DA00008220621602003F005FD4FF47A7006F05A
:100DB00000FC08E0AFF2780102A80CF0DDFC38B1CD
:100DC0000297002503974FF0010903F023FC43E746
:100DD000BDF8141050460CF032FDF5E508B5FBA047
:100DE0000CF0FAFA4FF496746B4600220121FE488B
:100DF00008F0C0FEFC486B4600220121283008F0B4
:100E0000B9FE204606F0D5FBEEE71FB500252E46BD
:100E1000F6A00CF0E1FA55B1012D0FD0022DFAD158
:100E200002F069FF4E28F6D100254E26F3E702F0C6
:100E300062FF4E28EFD006460125ECE702F05BFF8B
:100E400004464E28E7D0B442E5D1E74803AD8DF81B
:100E500008400023012202A9883800950AF033F8DF
:100E60000020CDE900050246DF484FF484731021CD
:100E7000283808F02EFC2146E3A00CF0ADFA02253C
:100E8000C9E7F8B50025009503F0C4FBE04802F07F
:100E9000E0FBDF4CDFA0A41E61880CF09DFAD24E6F
:100EA0006188943E3088411ADEA00CF095FA452204
:100EB0000221002003F07EFC46220221102003F0D4
:100EC00079FC02221146202003F074FC0322022147
:100ED000302003F06FFC47220221402003F06AFC1F
:100EE00048220221502003F065FC00956288D1A1C0
:100EF00068460CF07DFA10236A460221642003F054
:100F00003FFC45220421002003F054FC462204212A
:100F1000102003F04FFC49220421202003F04AFC5A
:100F20004A220421302003F045FC4B2204214020BA
:100F300003F040FC4C220421502003F03BFC30889D
:100F40006188421ABBA168460CF052FA10236A4627
:100F50000421642003F014FC4FF4FA6006F029FB2E
:100F600003F058FBF8BD86B00024B3A002940CF047
:100F700033FA0DF1080B0DF10C0A4FF00008CDE922
:100F8000008A4FF4847342460F21974808F0A1FB72
:100F9000C1073AD001F0ADFF0028EED1012001F0E9
:100FA000C2FF0028E9D1904805AB9438002102889F
:100FB000012002F00DFB01000ED0A7A00CF00CFAEE
:100FC000894803AB00220421283808F0D3FD4FF4F0
:100FD0007A7006F0EEFAD0E703A9A4480AF033FFCE
:100FE000A3A00CF0F9F9BDF81620BDF81410A4A0C8
:100FF0000CF0F2F97C4803AB00220221283808F0FB
:10100000B9FD0120FFF79EF9E1E7810708D5A4A00B
:101010000CF0E2F9FFF735FF002203AB4021D6E2E6
:1010200041077CD5A1A00CF0D7F90024254626461F
:10103000C5E2052D47D2DFE805F003479CC8C7008D
:101040009DA0761C0CF0C8F903F0E4FA0F220021F1
:101050001B2003F0AFFB112200212D2003F0AAFB7F
:10106000022200213F2003F0A5FB03220021512092
:1010700003F0A0FB01F03DFF01005CD1914F012086
:10108000C7F8A00207F5287701F04DFF0100C7F867
:10109000008050D18CA00CF09FF9022211461B2039
:1010A00003F088FB032202212D2003F083FB1D2285
:1010B00002213F2003F07EFB1E220221512003F07B
:1010C00079FB0026012574E282A0761C0CF084F9DD
:1010D00003F0A0FA0F220021102003F06BFB102276
:1010E0000021202003F066FB13220021302003F0B2
:1010F00061FB11220021402003F05CFB0222002151
:10110000502003F057FB03220021602003F052FB24
:1011100001F0EFFE01000ED101206A4F00E085E2F0
:10112000C7F8A002022007F5287701F0FCFE0100B5
:10113000C7F8008003D06CA00CF04EF939E262A031
:101140000CF04AF9022211461B2003F033FB032264
:1011500002212D2003F02EFB1D2202213F2003F04F
:1011600029FB1E220221512003F024FB0026022528
:101170001FE260A00CF030F903F04CFA15220021B8
:10118000102003F017FB16220021202003F012FB91
:1011900017220021302003F00DFB182200214020EF
:1011A00003F008FB02220021502003F003FB03227E
:1011B0000021602003F0FEFA01F0D3FE05004FF09D
:1011C00015024FF002019DE023E1CAE05B617070FF
:1011D0005F7461736B5F7363616E5D2063726561E1
:1011E0007465206F6B0D0A00745800205B6170708D
:1011F0005F7461736B5F6B65795D206372656174A9
:1012000065206F6B0D0A00002563200D00000000B3
:1012100002000020D2D1C2BCC8EBD6B8CEC625642D
:101220000D0A0000CAA3D3E0D6B8CEC6CAFD256415
:101230000D0A0000256400005B6170705F746173CB
:101240006B5F61733630385D206372656174652051
:101250006F6B0D0A00000000C6A5C5E4D6B8CEC667
:10126000CAA7B0DC25640D0A00000000FC1A0020AB
:10127000C6A5C5E4D6B8CEC6B3C9B9A60D0A000046
:10128000C8B7D3D0B4CBC8CB2C49443A256420206E
:10129000C6A5C5E4B5C3B7D63A25640D0A0000005B
:1012A000B2E9D6B8CEC60D0A00000000C2BCD6B85E
:1012B000CEC60D0A00000000C7EBB0B4D6B8CEC64B
:1012C0000D0A000000804242D6B8CEC6D5FDB3A3B9
:1012D0000D0A0000C7EBD4D9B0B4D2BBB4CED6B897
:1012E000CEC60D0A000000006572726F723A256466
:1012F0000D0A0000B6D4B1C8C1BDB4CED6B8CEC6B2
:101300000D0A00004FF01B0018D003F053FA16220C
:1013100002212D2003F04EFA092202213F2003F082
:1013200049FA0A220221512003F044FA2946AFF279
:1013300048000CF051F80026354654E003F03AFA24
:10134000162202212D2003F035FA072202213F2028
:1013500003F030FA08220221512003F02BFA032572
:1013600041E0FDA00CF038F819220421102003F010
:1013700021FA1A220421202003F01CFA022204215F
:10138000302003F017FA03220421402003F012FA60
:101390001B220421502003F00DFA1C22042160209E
:1013A00003F008FA01F039FE07004FF019024FF080
:1013B00006014FF01B0019D003F0FCF91A22062198
:1013C0002D2003F0F7F9092206213F2003F0F2F95E
:1013D0000A220621512003F0EDF900253946AFF22B
:1013E000F8000BF0F9FF4FF49660E0E003F0E2F94B
:1013F0001A2206212D2003F0DDF9072206213F20C5
:1014000003F0D8F908220621512003F0D3F904256E
:10141000E9E7D5A00BF0E0FFD7A00BF0DDFF03F06C
:10142000F9F800211F22084603F0C4F92022002108
:10143000102003F0BFF902220021202003F0BAF9A6
:1014400003220021302003F0B5F91023CDA20021A2
:10145000402003F095F91023CBA20021502003F087
:101460008FF91023C9A20021682003F089F9112205
:1014700002211B2003F09EF91023C5A20221312076
:1014800003F07EF9222202213F2003F093F9232268
:101490000221512003F08EF91023AFF210720621C1
:1014A000082003F06DF959220621102003F082F97B
:1014B0001F220621202003F07DF91023AFF2807255
:1014C0000621382003F05CF939220621402003F080
:1014D00071F93A220621502003F06CF9142102A878
:1014E0000CF0CFF9CDE9008A002204AB1146A948DF
:1014F00009F066FB01780746A6480BF8041003AB19
:1015000000221021603008F035FBAFF2807102A894
:10151000641C0CF031F950B100241023AFF290722A
:1015200004212820CDF8088003F02AF90FE0AFF25B
:10153000F07102A80CF020F910B14FF0FF3417E061
:1015400093A102A80CF018F968B9032C0BD0102352
:1015500002AA0421282003F013F9BDF81010384620
:101560000CF06DF9BEE702A80CF0F2F81FFA80F952
:10157000601C1ED04946012001F069FD010027D002
:101580000025AFF29C200BF027FF10237DA2042141
:10159000282003F0F5F833220421382003F00AF95B
:1015A00034220421482003F005F94FF47A7006F044
:1015B00000F84FF4167005F0FCFF052E32D0601CC9
:1015C0007FF437AD03F026F8002203AB102174E15D
:1015D00071A00BF001FF0B220421102003F0EAF8A8
:1015E0000C220421202003F0E5F8022204213020FF
:1015F00003F0E0F803220421402003F0DBF8072287
:101600000421502003F0D6F808220421602003F0C2
:10161000D1F840F2DC5005F0CCFFFFF732FC4FF080
:10162000FF34C6E760A00BF0D7FECBE700077FF5DD
:10163000D2AC62A00BF0D0FE63A00BF0CDFE69A08F
:101640000BF0CAFE02F0E6FF00210D22084603F06F
:10165000B1F80E220021102003F0ACF80222002184
:10166000202003F0A7F803220021302003F0A2F885
:10167000102344A20021482003F082F80E2342A246
:101680000021602003F07CF80E2340A2012160209D
:1016900003F076F8112202211B2003F08BF81023AF
:1016A0003BA20221312003F06BF8522202213F209D
:1016B00003F080F853220221512003F07BF810231D
:1016C000AFF638120621082003F05AF859220621F5
:1016D000102003F06FF81F220621202003F06AF883
:1016E0001023AFF6A4120621382003F049F839225E
:1016F0000621402003F05EF83A220621502003F034
:1017000059F84646CDF808800024D84657460022AE
:1017100004AB11461F48CDE9006709F051FA017882
:1017200005461C4808F8041003AB00221021603065
:1017300008F020FAAFF6AC1102A8641C0CF01CF8FB
:1017400048B100241023AFF6B812042128200296D5
:1017500003F016F861E04DE0C9FAB3C9D6B8CEC6B9
:10176000C4A3B0E50D0A0000CAE4C8EBD6B8CEC6E3
:1017700049440D0A00000000B0B4272327B1A3B4E8
:10178000E60D0A0049440000302D3E003239390090
:1017900023000000EC570020C2BCC8EBD6B8CEC670
:1017A000B3C9B9A60D0A0000B3ACB9FD35B4CEC3B8
:1017B000BBD3D0B0B4CAD6D6B80D0A000AC9BEB3DE
:1017C000FDD6B8CEC60D0A00C7EBCAE4C8EBD6B842
:1017D000CEC64944B0B4456E746572B7A2CBCD0D88
:1017E0000A000000303D3C204944203C3D3239395C
:1017F0000D0A0000AFF6B82102A80BF0BDFF20B122
:101800004FF0FF3402F006FF18E0AFF27C0102A8AF
:101810000BF0B2FF68B9032C0BD0102302AA0421ED
:10182000282002F0ADFFBDF8101028460CF007F894
:101830006DE702A80BF08CFF1FFA80F9641C39D009
:1018400002F0E8FEA9F540714846E7393AD0012197
:101850003BE0FEA00BF0C0FD0D2202211B2002F098
:10186000A9FF0E2202212D2002F0A4FF072202214F
:101870003F2002F09FFF082212E0F8A00BF0ACFD21
:101880000D2202211B2002F095FF0E2202212D20A5
:1018900002F090FF092202213F2002F08BFF0A2272
:1018A0000221512002F086FF4FF47A7005F081FE8C
:1018B000FFF7E7FA002203AB2021ED4808F05AF9C0
:1018C000FFF75BBB40F22B11002001F0E9FB0100A8
:1018D000D3D1BEE7FEB50025E64E2C4605EB45000C
:1018E00000EBC5000094019430440B226946029439
:1018F00002F00BF9AFF2681168460BF03DFF10B132
:101900006D1CADB2EAE72846FEBDFEB506460024D2
:10191000D84D11E004EB440000EBC40028440B2236
:10192000694602F0F2F8694630460BF025FF08B12F
:101930000120FEBD641CA4B2FFF7CCFFA042E9D891
:101940000020FEBDA8B014210FA80BF09AFF1421AF
:1019500008A80BF096FF142119A80BF092FFC6A05F
:101960000DF1780CD0E90010CDE92310C4A00FC808
:101970008CE80F00C6A00BF02FFDDFF830B34FF05E
:10198000000A0DF18809BA48CDE900A94F4655462D
:101990004FF4847300220721283007F09AFEC10714
:1019A00076D002F020FB25A9522002F0CCFB0028C3
:1019B000E9D11495159516950DA8179502F0DAFB47
:1019C0000DA802F03CFC04460DAB23AA04216020C4
:1019D00002F075FC1EA9042002F0B3FC14A9042037
:1019E00002F096FC05469DF895209DF89410B0A055
:1019F0000BF0F2FC9DF838109DF83700CDE900019E
:101A00009DF836309DF835209DF83410AFA00BF0CE
:101A1000E3FC2146B8A00BF0DFFC2946BCA00BF08C
:101A2000DBFCBEA00BF0D8FC002414ADBDA0295DEA
:101A30000BF0D2FC641C102CF8DBBBA00BF0CCFC30
:101A40009DF836009DF838209DF837108DE8070086
:101A50009DF835309DF83420B4A10FA80BF0C8FCD8
:101A60000FA8FFF752FF48B1B6A00BF0B5FC03205A
:101A7000FEF768FC002222AB022105E0B6A00BF0C5
:101A8000ABFC002222AB042179482838D4E2FFE7DE
:101A900081077DD500244FF47A7602F0BBFD0F223A
:101AA0000021102002F086FE5C220021202002F09E
:101AB00081FE5B220021302002F07CFE58220021B2
:101AC000402002F077FE02F08EFA25A9522002F0A3
:101AD0003AFB70B1304605F06CFD641C052CDCD17E
:101AE000A1A00BF079FC02F095FD002222AB0821A9
:101AF000A0E21495159516950DA8179502F03AFBDE
:101B00000DA802F09CFB0DAB23AA0421602002F07B
:101B1000D6FB1EA9042002F014FC14A9042002F034
:101B2000F7FB02F077FD1023AFF2A8320021382036
:101B300002F026FE9DF836009DF838209DF83710FB
:101B40008DE807009DF835309DF834208BA10FA853
:101B50000BF04EFC10230FAA0221082002F010FE09
:101B600014210FA80BF08DFE9DF836009DF838204B
:101B70009DF837108DE807009DF835309DF834202A
:101B80006AA10FA80BF034FC0FA8FFF7BEFE00E01F
:101B90004BE028B35D220421182002F00BFE5822EE
:101BA0000421282002F006FE5E220421382002F0E3
:101BB00001FE5F220421482002F0FCFD0B220621D9
:101BC000182002F0F7FD0C220621282002F0F2FD79
:101BD00009220621382002F0EDFD0A2206211CE030
:101BE000FFF778FE00EB400101EBC00121480B221A
:101BF00008440FA901F05FFF0B220421182002F016
:101C0000D9FD0C220421282002F0D4FD0722042152
:101C1000382002F0CFFD08220421482002F0CAFD3E
:101C20004FF4FA6005F0C5FC5DE740077FF5ABAE09
:101C3000FFF750FE064602F0EDFC0024002E03D014
:101C4000602200211020A7E04CE10000C9BEB3FDD6
:101C5000D6B8CEC6B3C9B9A60D0A0000C9BEB3FD39
:101C6000D6B8CEC6CAA7B0DC25640D0A00000000B5
:101C70007458002000000208FFFFFFFFFFFF000074
:101C8000000102030405060708090A0B0C0D0E0FDC
:101C90005B6170705F7461736B5F726669645D2015
:101CA000637265617465206F6B0D0A0000000108A6
:101CB000636172645F707964656275663A2530327B
:101CC000582025303258200D0A00000063617264EC
:101CD0005F6E756D6265726275663A2530325820A6
:101CE00025303258202530325820253032582025D2
:101CF000303258200D0A0000636172645F73697AA4
:101D0000653A2564204B626974730D0A0000000077
:101D10007374617475733D25640D0A0072656164A6
:101D20003A000000256420000D0A0A0025303278B0
:101D300025303278253032782530327825303278A7
:101D40002300000052464944BFA8C6A5C5E4A3AC81
:101D5000BDE2CBF80D0A000052464944BFA8B2BB11
:101D6000C6A5C5E40D0A0000B3ACB9FD35B4CEC3B9
:101D7000BBD3D0B7C5BFA80D0A000000253032780C
:101D800020253032782025303278202530327820D6
:101D9000253032780000000002F00CFD61220021A5
:101DA000202002F007FD0D220021302002F002FD6C
:101DB0000E220021402002F0FDFC5822002150207C
:101DC00002F0F8FC1023AFF244620021602002F020
:101DD000D7FC1023FEA20221002002F0D1FC5222E7
:101DE0000221082002F0E6FC53220221182002F012
:101DF000E1FC1023F7A20221282002F0C1FC5422AA
:101E00000221382002F0D6FC55220221482002F09F
:101E1000D1FC1023F0A20221582002F0B1FC39229B
:101E20000221602002F0C6FC3A220221702002F05A
:101E3000C1FCDFF8A883AA46B946142108A80BF014
:101E400020FD142119A80BF01CFD04EB440000EB4D
:101E5000C40101EB08000B2208A901F056FE9DF811
:101E600026000DF1100C9DF829309DF828209DF8D2
:101E700027108CE80F009DF822009DF825309DF872
:101E800024209DF823108DE80F009DF821309DF847
:101E90002020D3A119A80BF0ABFA102319AA052111
:101EA000082002F06DFCCDE900A9002226AB114606
:101EB000D24808F085FE07460578D04822AB0022BC
:101EC0001021603007F056FE422D2ED0432D31D028
:101ED000442D36D0412D38D0BDF8981038460BF03F
:101EE000AEFCAAE73B220021102002F063FC3C225A
:101EF0000021202002F05EFC3D220021302002F073
:101F000059FC3E220021402002F054FC58220021BE
:101F1000502002F04FFC1023AFF298720021602095
:101F200002F02EFC4FF47A707DE00CB1641ED3E712
:101F3000741ED1E7701E844201D0641CCCE70024DB
:101F4000CAE702F067FB4FF0FF34601C6FD0ACA013
:101F50000BF042FA042001F02FFDADA00BF03CFA8B
:101F600000251BE0AC4218D00B2108A80BF089FC1F
:101F700005EB450000EBC50707EB08000B2208A99D
:101F800001F0C3FDA54202DA07EB0B0001E0A44813
:101F900038440B2208A901F08EFD6D1CB542E1DB2F
:101FA000A0A00BF019FA052001F006FDA1A00BF08E
:101FB00013FA00244546D846761E13E00B2108A8E4
:101FC0000BF05FFC04EB440000EBC40707EB0800D8
:101FD0000B2208A901F099FD78190B2208A901F03C
:101FE0006AFD641CB442E9DB96A00BF0F5F91023FE
:101FF00098A20521082002F0C3FB0D220521202014
:1020000002F0D8FB0E220521302002F0D3FB07227C
:102010000521402002F0CEFB08220521502002F0CD
:10202000C9FB4FF4FA6005F0C4FA02F0F3FA00229B
:1020300022AB10217148B03007F09CFDA3E492B0B0
:10204000002602960396049605960696079608962D
:1020500009960A960B960C960D960E9606250F2459
:10206000012780A00F960BF0B7F9DFF814A20DF14D
:102070004009B0466FF0010B60484FF484730022B2
:1020800007216030CDE9008907F023FBBDF840103F
:10209000064619B17BA00BF09FF9EDE700231A4625
:1020A00019468248CDF8009008F006FAF0077CD077
:1020B00073490120083104F052FE714808308178DC
:1020C0000091437802787AA102A80BF091F96C494B
:1020D00001200C3104F0BBFE69480C300278817895
:1020E000CDE900124378C27875A106A80BF080F9FB
:1020F000DAF804005646E8B3032867D0052802DB67
:102100004FF0FF3070600F2C09D35D480223203060
:10211000009080220021702002F07DFB0027062D18
:1021200011D30EA801F08EFB9DF83B109DF83A00EC
:10213000CDE900019DF839309DF8382066A10AA844
:102140000BF056F90025102302AA0221202002F0EC
:1021500017FB102306AA0421002002F011FB102314
:102160000AAA0621002002F00BFB7068401C6D1CBF
:10217000EDB200E005E07060002F8ED0641CE4B288
:102180007AE7102359A20021082002F0F9FA002270
:102190001146182002F00EFB01220021282002F037
:1021A00009FB02220021382000E0C3E002F002FB1C
:1021B00003220021482002F0FDFA042200215820C9
:1021C00002F0F8FA10234AA2002193E09CE00000FC
:1021D00041000000424300004400000000000208EB
:1021E000256325632025632563202563256320253A
:1021F000632563202563256300000000EC57002061
:10220000D5FDD4DAB2C1B3FDC9C8C7F8340D0A0090
:10221000B2C1B3FDC9C8C7F834CDEAB3C90D0A00CD
:10222000F5FF0008D5FDD4DAB2C1B3FDC9C8C7F8BF
:10223000350D0A00B2C1B3FDC9C8C7F835CDEAB340
:10224000C90D0A00C9BEB3FDBFA8B3C9B9A60D0A1E
:1022500000000000202020202020202020202020FE
:10226000202020005B6170705F7461736B5F6F6C26
:1022700065645D20637265617465206F6B0D0A0093
:10228000000000205B7461736B325D5B4F53466CE2
:10229000616750656E645D4572726F7220436F6452
:1022A00065203D2025640D0A00000000F058002044
:1022B000253032783A253032783A253032780000AD
:1022C0003230253032782F253032782F2530327851
:1022D0005765656B25780000483A25642E256420F3
:1022E0002020543A25642E256400000020200000A0
:1022F00020000000682002F043FAC6F81A8086F831
:102300001E8086F80080FEE61023FEA200211846FB
:1023100002F036FA62220021402002F04BFA6322DA
:102320000021502002F046FA64220021602002F0D1
:1023300041FAE8E6B0072CD51023AFF25002002195
:10234000184602F01DFA05220021202002F032FA80
:1023500006220021302002F02DFA07220021402021
:1023600002F028FA08220021502002F023FA10235C
:10237000AFF288020021602002F002FAE3480090E8
:10238000022380220021702002F045FA0127002458
:1023900023E0700724D51023AFF2B00200211846C5
:1023A00002F0EEF905220021202002F003FA0622B5
:1023B0000021302002F0FEF909220021402002F025
:1023C000F9F90A220021502002F0F4F91023AFF2AB
:1023D000E4020021602002F0D3F9CAF804B04BE611
:1023E00010AA0021CA4808F0BEF945E60EB5C9A0FA
:1023F0000AF0F2FF0025CE4C02AF012640F24C4815
:10240000C348CDE90057082300220621A43807F06D
:1024100060F9810711D502A9C64809F07DFFC4F80B
:10242000A062642005F0C5F8C4F8A052642005F04D
:10243000C0F8C4F8A062642009E04007E0D502A912
:10244000BC4809F069FFC4F8A0624FF47A7005F047
:10245000B0F8C4F8A052404605F0ABF802A9B54860
:1024600009F0F1FCCCE72DE9F04F8BB000F0E4FB74
:1024700001F0B0F901F0E6FB01F0CCF902F0EBF964
:1024800002F0C8F801F08EFA00F0D8FC01F0ABFDC4
:102490004FF4614002F058FC4FF4E13005F0C4F80D
:1024A00005F0F7F94FF4165005F04EF9A2A005F02B
:1024B000A5F9322005F07DF8944905223039A2486B
:1024C00001F023FB9149A04805222B39401D01F062
:1024D0001CFB9EA00AF080FF8C49A2A030390AF0B4
:1024E0007BFF8A49A4A02B390AF076FFA7494FF455
:1024F0009670088002F004FB002409AD05940C20BE
:102500000694CDE907450626A14A0096CDE90120AB
:102510004FF0800B2346AFF22B129D48CDE903B458
:102520009CA1C43809F0B7F8BDF8241011B19DA0E2
:102530000AF052FF4FF033080594A349CDF8088004
:1025400006944FF40077CDE907450023AFF211520E
:10255000CDE900619C48CDE903749CA1C43809F021
:102560009AF8BDF8241011B19CA00AF035FF05942B
:10257000A349CDF808800694CDE907450023AFF6BE
:102580003B42CDE900619E48CDE903749DA1C4386A
:1025900009F081F8BDF8241011B19EA00AF01CFFCB
:1025A0000594A54ACDF808800694CDE90745CDE904
:1025B0000062A148CDE90374B946C24600239F4A90
:1025C0009FA1C43809F067F8BDF8241011B1A0A08C
:1025D0000AF002FF4FF00C080594A649CDF80880D8
:1025E0000694CDE90745CDE90061A248CDE903B4E1
:1025F0005F460023A04AA1A1C43809F04CF8BDF8F9
:10260000241011B1A1A00AF0E7FE4A490594CDF8C3
:1026100008800694C431CDE90745CDE90061CDE9D4
:1026200003740023A24AA3A1424809F034F8BDF87C
:10263000241011B1A3A00AF0CFFE05940694CDE9B1
:102640000745A94901A8C84657460096049480E862
:102650008201A5480023A54AA5A1C43809F01BF8AA
:10266000BDF8241011B1A6A00AF0B6FE0594069498
:10267000CDE90745AB4901A80096049480E88201A2
:10268000A8480023A84AA9A1C43809F004F8BDF855
:10269000241011B1A9A00AF09FFE3C4809AB4022CA
:1026A000AFA10C3008F071F9384809AB4022AFA156
:1026B0003C3008F06AF9354809AB0022AFA16C3014
:1026C00006F0FFFE124809AB0022AFA17C3806F0ED
:1026D000F8FE0F4809AB0022AFA1543806F0F1FE16
:1026E0000B4809AAAFA12C3807F0A5FD09AAB1A192
:1026F000074807F0A0FD01F093FA02216423B148D6
:10270000002261E1475A3230373500004000002096
:10271000F05800205B6170705F7461736B5F62657D
:1027200065705D20637265617465206F6B0D0A00D2
:10273000008042420C38002041542B4E414D456BE5
:102740006B6B6B0D00000000000006080AD6C7C4C2
:10275000DCD6B8CEC6CBF82DD2A6BFA1ECBF0D0AF1
:1027600000000000675F757365725F5057203D2061
:1027700025730D0A00000000675F726F6F745F5071
:1027800057203D2025730D0A00000000E05700206F
:10279000C01B00206170705F7461736B5F62656560
:1027A000700000005B7461736B315D5B43524541A7
:1027B00054455D4572726F7220436F6465203D2001
:1027C00025640D0A00000000841E00206170705F07
:1027D0007461736B5F6F6C65640000005B746173A0
:1027E0006B325D5B4352454154455D4572726F7279
:1027F00020436F6465203D2025640D0A0000000021
:10280000482700206170705F7461736B5F72666946
:10281000640000005B7461736B335D5B4352454140
:1028200054455D4572726F7220436F6465203D2090
:1028300025640D0A000000000C300020670F00081E
:102840006170705F7461736B5F6173363038000064
:102850005B7461736B345D5B4352454154455D4528
:1028600072726F7220436F6465203D2025640D0AEB
:1028700000000000584400200B0E00086170705FDB
:102880007461736B5F6B6579000000005B7461734A
:102890006B355D5B4352454154455D4572726F72C5
:1028A00020436F6465203D2025640D0A0000000070
:1028B000DD0D00086170705F7461736B5F7363613D
:1028C0006E0000005B7461736B365D5B4352454183
:1028D00054455D4572726F7220436F6465203D20E0
:1028E00025640D0A00000000943B0020AD0900089B
:1028F0006170705F7461736B5F73746100000000DE
:102900005B7461736B375D5B4352454154455D4574
:1029100072726F7220436F6465203D2025640D0A3A
:10292000000000001C4700202D0400086170705F4B
:102930007461736B5F757361727400005B746173B3
:102940006B385D5B4352454154455D4572726F7211
:1029500020436F6465203D2025640D0A00000000BF
:10296000675F71756575655F6B657900675F717528
:102970006575655F7573617274000000675F666CF2
:1029800061675F6772700000675F666C61675F61B7
:102990007336303800000000675F666C61675F72F5
:1029A00066696400675F6D757465785F7072696EE3
:1029B00074660000675F6D757465785F6F6C656441
:1029C000000000001D030008CDE9001027A12B48DE
:1029D000CDE902450AF023F809A928480AF087F949
:1029E00009A9002008F030FF0BB0BDE8F08F8AB0D5
:1029F00004F09AFD4FF4A06002F056FA09A806F020
:102A0000C6F8002009A905900690CDE907013322F8
:102A10004FF400710292CDE90310194B0620CDE965
:102A200000030023AFF2C152154816A1C43808F0C4
:102A300032FE09A806F006FA16A00AF0CDFCFEE761
:102A400000F01F02012191404009800000F1E020C8
:102A5000C0F80011704700F01F02012191404009A9
:102A6000800000F1E020C0F880117047675F736F4D
:102A700066745F74696D6572000000001C59002067
:102A8000E04F00206170705F7461736B5F696E6905
:102A9000740000006E657665722072756E2E2E2EA3
:102AA0002E2E2E2E2E2E0D0A000000007047FEE75F
:102AB000FEE7FEE7FEE77047704700000CB5002216
:102AC000544900920192086840F4803008604FF445
:102AD000A043086800F4003001900098401C00906A
:102AE000019810B900989842F3D10868800334D552
:102AF0000120019047484030026842F08052026055
:102B00004548026842F44042026042480830026888
:102B10000260026842F400420260026842F4A0527D
:102B20000260031F3D4A1A600A6842F080720A6020
:102B30000A689201FCD53A4940F205720A600168C0
:102B400021F003010160016841F0020101600168A8
:102B5000C1F381010229FAD10CBD01920CBD3148AB
:102B600010B5016841F4700101602A48016841F024
:102B700001010160274A00210832116002682A4BD6
:102B80001A400260031D294A1A60026822F480225A
:102B9000026020480C300160FFF790FF21494FF0A0
:102BA00000608039086010BD70B51A4D083528687E
:102BB0001F4B204910F00C0004D05E10042803D0F5
:102BC000082803D00B601BE00E6019E0114A121DAB
:102BD0001068C0F38054106800F03F0014B1B6FBD9
:102BE000F0F001E0B3FBF0F013681268C3F3881350
:102BF0005843C2F30142521C5200B0FBF2F008608D
:102C000028680C4AC0F30310121D105C0A68C24009
:102C10000A6070BD00380240007000400854400750
:102C2000003C024088ED00E0FFFFF6FE103000247B
:102C30000024F400600000202DE9FC470121302031
:102C400002F0F9FB01248DF8044000268DF806609F
:102C50000327DFF8D0914FF4C0658DF8057000951B
:102C60008DF807406946484602F0E2F98DF80440C5
:102C70008DF806608DF805708DF807406A4C4FF4AA
:102C80000058CDF800806946204602F0D1F9294667
:102C9000484602F032FA4146204602F02EFABDE8DC
:102CA000FC8770B50121102002F0C5FB5F484FF48E
:102CB00080410024016002210171417184715A4DEB
:102CC000C4710146284602F0B3F901220E212846BC
:102CD00002F022FA0121084602F0D5FB54480921EE
:102CE000524D416042F2CF010180048144800A20AC
:102CF000083D28604F4E4E49304602F0EBFE4C49ED
:102D000060200C31088001204880286888608C8110
:102D1000304603F003F80121304602F053FF3046FD
:102D2000BDE87040012103F03FBA70B501212020B9
:102D300002F081FB3D484FF4007100240160022144
:102D4000017141718471374DC4710146284602F00A
:102D50006FF909221146284602F0DEF90121080226
:102D600002F087FB32480921416042F2CF01018025
:102D7000048144802D490A20083948602E4D2C4991
:102D8000284602F0A7FE2A4960200C310880012065
:102D90004880642088608C81284602F01DFF284608
:102DA000BDE87040012102F00DBF42F21071B1FB8D
:102DB000F0F01F49401E42F2CF0248600A80002214
:102DC0004A801A490839086019491A4802F082BE37
:102DD000164908390968491C41436420B1FBF0F1E8
:102DE000144803F018B842F21071B1FBF0F010492A
:102DF000401E42F2CF0248600A8000224A800B49FE
:102E0000083948600A490C4802F064BE074908398D
:102E10004968491C41436420B1FBF0F1064802F0C7
:102E2000F4BF000000140240001002407C000020AB
:102E30005059002000000140002000401CB5012135
:102E4000084602F0F8FA4020009000208DF80400B7
:102E500002208DF8070003208DF805006946FE4822
:102E600002F0E6F81CBD10B5FC4C2068000E00F026
:102E700052FC2068C0F3074000F04DFC2088C0F3EE
:102E8000072000F048FC2078BDE8104000F043BC6B
:102E90007CB50446EF208DF8000001208DF801007C
:102EA000EE48EF4E0068010E8DF80210010C8DF80F
:102EB0000310010A8DF804108DF8050007208DF825
:102EC000060000258DF8075035800CE0012004F045
:102ED00070FB3088000406D535806946E1480AF069
:102EE0004BFC002804D1641E2404240CEED10020E5
:102EF0007CBD10B500F017FCFFF7B5FF012000F016
:102F00000AFC032000F017FC012000F004FC05205F
:102F100000F01BFC4FF4FA60FFF7BAFF08B1407AEB
:102F200010BDFF2010BD10B5044600F0FCFBFFF7FC
:102F30009AFF012000F0EFFB042000F0FCFB0220D0
:102F400000F0E9FB204600F0E6FBE01D00F0FDFB91
:102F50004FF4FA60FFF79CFF08B1407A10BDFF20E4
:102F600010BD10B500F0DFFBFFF77DFF012000F082
:102F7000D2FB032000F0DFFB032000F0CCFB072096
:102F800000F0E3FB4FF4FA60FFF782FF08B1407AEC
:102F900010BDFF2010BD2DE9F0411E4614460D4620
:102FA000074600F0C0FBFFF75EFF012000F0B3FB17
:102FB000082000F0C0FB042000F0ADFB384600F014
:102FC000AAFB280A00F0A7FBE8B200F0A4FB200A45
:102FD00000F0A1FBE0B200F09EFB07EB1520E9B288
:102FE000084400EB1420E1B208440D3000F0ADFBC2
:102FF0004FF4FA60FFF74CFF58B1C27A837A417AF6
:1030000002EB03223280427B007B02EB00207080C7
:1030100000E0FF210846BDE8F08110B500F083FB19
:10302000FFF721FF012000F076FB032000F083FB77
:10303000052000F070FB092000F087FB4FF4FA60D8
:10304000FFF726FF08B1407A10BDFF2010BD70B514
:103050000C46054600F067FBFFF705FF012000F076
:103060005AFB062000F067FB062000F054FB2846C0
:1030700000F051FB200A00F04EFBE0B200F04BFBE9
:1030800005EB1420E1B208440D3000F05EFB4FF474
:10309000FA60FFF7FDFE08B1407A70BDFF2070BDF9
:1030A00070B50C46054600F03EFBFFF7DCFE012044
:1030B00000F031FB072000F03EFB0C2000F02BFB62
:1030C0002E0A304600F027FBE8B200F024FB200A6D
:1030D00000F021FBE0B200F01EFB56FA85F000EB99
:1030E0001420E1B20844143000F02FFB4FF4FA60D2
:1030F000FFF7CEFE08B1407A70BDFF2070BD10B55D
:1031000000F011FBFFF7AFFE012000F004FB0320ED
:1031100000F011FB0D2000F0FEFA112000F015FB6D
:103120004FF4FA60FFF7B4FE08B1407A10BDFF20FB
:1031300010BD21283CD2DFE800F011131517191B30
:103140001D1F212325273B3B3B3B27293B3B3B2B9B
:103150003B3B2D2F3133353B3B37390042A0704785
:1031600042A0704745A0704749A070474DA07047E6
:1031700054A070475BA0704761A070476EA0704775
:1031800070A0704773A0704776A0704779A0704711
:103190007CA0704784A0704787A0704789A07047C3
:1031A0008CA0704790A0704794A0704796A070477D
:1031B00098A0704770B50C46054600F0B4FAFFF7CA
:1031C00052FE012000F0A7FA052000F0B4FA0E200C
:1031D00000F0A1FA284600F09EFA204600F09BFA83
:1031E0002819143000F0B1FA4FF4FA60FFF750FEDE
:1031F00010B1447A54B100E0FF242046FFF799FF54
:10320000014689A00AF0E8F8204670BD88A00AF0BF
:10321000E3F8F9E770B5044600F085FAFFF723FEFE
:10322000012000F078FA032000F085FA0F2000F06A
:1032300072FA132000F089FA4FF47A70FFF728FE33
:1032400040B1C17B827B457A01EB022189B22180AA
:10325000427CF7E008E1000000000240840000200A
:10326000F8190020205B00204F4B0000CAFDBEDD96
:10327000B0FCBDD3CAD5B4EDCEF30000B4ABB8D02A
:10328000C6F7C9CFC3BBD3D0CAD6D6B8000000009A
:10329000C2BCC8EBD6B8CEC6CDBCCFF1CAA7B0DC95
:1032A00000000000D6B8CEC6CDBCCFF1CCABB8C9BB
:1032B000A1A2CCABB5ADB6F8C9FAB2BBB3C9CCD8F4
:1032C000D5F70000D6B8CEC6CDBCCFF1CCABCAAADC
:1032D000A1A2CCABBAFDB6F8C9FAB2BBB3C9CCD87F
:1032E000D5F70000D6B8CEC6CDBCCFF1CCABC2D29C
:1032F000B6F8C9FAB2BBB3C9CCD8D5F70000000004
:10330000D6B8CEC6CDBCCFF1D5FDB3A3A3ACB5AB7B
:10331000CCD8D5F7B5E3CCABC9D9A3A8BBF2C3E6EB
:10332000BBFDCCABD0A1A3A9B6F8C9FAB2BBB3C957
:10333000CCD8D5F700000000D6B8CEC6B2BBC6A523
:10334000C5E40000C3BBCBD1CBF7B5BDD6B8CEC664
:1033500000000000CCD8D5F7BACFB2A2CAA7B0DC23
:1033600000000000C9BEB3FDC4A3B0E5CAA7B0DC2D
:1033700000000000C7E5BFD5D6B8CEC6BFE2CAA7D9
:10338000B0DC0000BBBAB3E5C7F8C4DAC3BBD3D026
:10339000D3D0D0A7D4ADCABCCDBCB6F8C9FAB2BBA5
:1033A000B3C9CDBCCFF10000B6C1D0B420464C416A
:1033B000534820B3F6B4ED00CEB4B6A8D2E5B4EDD0
:1033C000CEF30000CEDED0A7BCC4B4E6C6F7BAC5C3
:1033D00000000000BCC4B4E6C6F7C9E8B6A8C4DA69
:1033E000C8DDB4EDCEF30000BCC7CAC2B1BED2B3D3
:1033F000C2EBD6B8B6A8B4EDCEF30000D6B8CEC6B0
:10340000BFE2C2FA00000000B5D8D6B7B4EDCEF3E3
:1034100000000000C4A3BFE9B7B5BBD8C8B7C8CF88
:10342000C2EBD3D0CEF300000D0A257300000000DC
:103430000D0AC9E8D6C3B2CECAFDB3C9B9A6A3A1C5
:1034400000000000A270427D837C067D02EB0362D7
:10345000C37C1B0403EB06231A446260C27D227204
:10346000407E60725DB100E0FF252846FFF761FEF7
:103470000146AFF24C0009F0AFFF284670BDB7A07F
:1034800009F0AAFFA178BBA009F0A6FFBDA0616862
:1034900009F0A2FF607A4FF4165110FB01F1BCA0B5
:1034A000E9E770B5044600F03EF9FFF7DCFC0120C7
:1034B00000F031F9072000F03EF9152000F02BF95B
:1034C000200E00F028F9C4F30740054600F023F968
:1034D000C4F30720064600F01EF9E0B200F01BF925
:1034E00005EB14603044E1B208441D3000F02DF9C2
:1034F000AA4E4FF4FA603460FFF7CAFC08B1457A6F
:1035000000E0FF2534604DB12846FFF712FE01466A
:10351000AFF2EC0009F060FF284670BDA0A009F0F2
:103520005BFFF9E72DE9F0410E46074600F0FBF896
:10353000FFF799FC012000F0EEF8242000F0FBF8E2
:10354000182000F0E8F8384600F0E5F80024305D77
:1035500000F0E1F8305D641C2844E4B285B2202C10
:10356000F5D378193D3080B200F0EFF84FF4FA60EF
:10357000FFF78EFC08B1407A4DE5FF204BE570B5B2
:103580000C46054600F0CFF8FFF76DFC012000F077
:10359000C2F8042000F0CFF8192000F0BCF828464B
:1035A00000F0B9F805F11E0000F0CFF84FF4FA6012
:1035B000FFF76EFC48B1417A002283189B7AA3542E
:1035C000521CD2B2202AF8D300E0FF21084670BD79
:1035D0002DE9F0411E4614460D46074600F0A3F8BB
:1035E000FFF741FC012000F096F8082000F0A3F856
:1035F0001B2000F090F8384600F08DF8280A00F003
:103600008AF8E8B200F087F8200A00F084F8E0B207
:1036100000F081F807EB1520E9B2084400EB142014
:10362000E1B20844243000F090F84FF4FA60FFF75C
:103630002FFC58B1C27A837A417A02EB032232809E
:10364000427B007B02EB0020708000E0FF210846F7
:10365000E1E470B5054600F066F8FFF704FC0120D0
:1036600000F059F8032000F066F81D2000F053F830
:10367000212000F06AF84FF4FA60FFF709FC38B136
:10368000C17A827A447A01EB022129805CB100E0A0
:10369000FF242046FFF74DFD0146AFF2742009F0EC
:1036A0009BFE204670BDC17A807A01EB002141A0CB
:1036B000F5E770B5044600F036F8FFF7D4FB0120BB
:1036C00000F029F8002000F026F8002000F023F890
:1036D000C82003F06EFF3C4A108800040BD53B491C
:1036E00000200B78EF2B05D14B78012B02D18B7981
:1036F000072B02D01080012070BD4B798D7803EB31
:103700000563CD7809792D0405EB01211944216069
:103710001080002070BD2E490A885206FCD52C4925
:10372000091D0880704710B5EF20FFF7F4FFBDE8D2
:1037300010400120EFE710B50446C0F30720FFF763
:10374000EAFFE0B2BDE81040E5E710B50446000A24
:10375000FFF7E1FFE0B2BDE81040DCE70D0AC4A3CB
:10376000BFE9D7EEB4F3D6B8CEC6C8DDC1BF3D259C
:10377000640000000D0AB6D4B1C8B5C8BCB63D257A
:10378000640000000D0AB5D8D6B73D2578000000CA
:103790000D0AB2A8CCD8C2CA3D256400840000201E
:1037A0000D0AC9E8D6C3B5D8D6B7B3C9B9A6A3A17F
:1037B000000000000D0AD3D0D0A7D6B8CEC6B8F608
:1037C000CAFD3D2564000000F8190020205B0020A0
:1037D000004400401CB50121202001F02CFE4FF4D4
:1037E0008070009001208DF8040000248DF80640C0
:1037F00003218DF805108DF807006946034801F094
:1038000017FC0348C0F8A0421CBD00000014024091
:103810000080424210B50121402001F00CFE5E48BC
:103820004FF40071012401600471032141710021F2
:103830008171C1710146594801F0FAFB5848C0F83E
:10384000A44210BD2DE9F05F534D80464FF4007047
:103850004FF0010A286085F804A04FF0030B002404
:1038600085F805B085F806A057462646EC7129462E
:103870004A4801F0DDFBDFF82891C9F8A462122064
:1038800003F097FEC9F8A4721E2003F073FE4FF4F4
:10389000007028602E7185F805B0AE71EE71294672
:1038A0003E4801F0C5FB4FF47A664D4609E0012021
:1038B000641C03F05FFEB44203D34FF0FF30BDE859
:1038C000F09FD5F824020028F1D1002408E001205F
:1038D000641C03F04FFE642C02D36FF00100EEE78E
:1038E000D5F824020028F2D0002408E00120641C4E
:1038F00003F040FE642C02D36FF00200DFE7D5F83E
:1039000024020028F2D10027A9460026072500241A
:1039100008E00120641C03F02DFE642C02D36FF03C
:103920000300CCE7D9F824020028F2D0282003F0C5
:1039300021FED9F8240290B10AFA05F03043C6B24C
:10394000002408E00120641C03F014FE642C02D360
:103950006FF00400B3E7D9F824020028F2D16D1EFD
:10396000D5D508F807607F1C052FCEDB98F800102E
:1039700098F8010098F80220014498F803001044D8
:10398000084498F80410C0B2814202D06FF00500DC
:1039900095E7002093E7000088000020001802400F
:1039A0000000434210B502F095FDF32002F0CFFF76
:1039B000BDE8104002F09ABD10B50446FFF7F2FFD3
:1039C00002F088FD74B1012C16D0022C1ED0032CFD
:1039D00026D0042C2ED0052C36D0062C3ED0072C19
:1039E00046D04FE00221002002F0B3FD092849D063
:1039F0004AA009F0F1FCFEE70221082002F0A9FD2F
:103A000009283FD04CA009F0E7FCFEE70221102076
:103A100002F09FFD092835D04EA009F0DDFCFEE73D
:103A20000221182002F095FD09282BD050A009F0A2
:103A3000D3FCFEE70221202002F08BFD092821D0D3
:103A400052A009F0C9FCFEE70221282002F081FD06
:103A5000092817D054A009F0BFFCFEE7022130204E
:103A600002F077FD09280DD056A009F0B5FCFEE75D
:103A70000221382002F06DFD092803D058A009F07A
:103A8000ABFCFEE7BDE8104002F030BD70B50C465F
:103A90000546FFF787FF02F01DFD2146284602F08C
:103AA00030FE092803D055A009F096FCFEE7BDE8DA
:103AB000704002F01BBD2DE9F04115460E46074649
:103AC0000024FFF76FFF02F005FD0AE0315D3819B1
:103AD00002F051FE092803D048A009F07DFCFEE762
:103AE000641CAC42F2D3BDE8F04102F0FFBC70B5FB
:103AF0000D460646002404E0315947A009F06CFC4D
:103B0000241DB4EB850FF7D370BD10B5002302E080
:103B1000C458CC545B1C9342FAD310BD464C41535D
:103B2000485F4572617365536563746F72302065D9
:103B300072726F720D0A0000464C4153485F457225
:103B4000617365536563746F7231206572726F7251
:103B50000D0A0000464C4153485F4572617365533E
:103B60006563746F7232206572726F720D0A0000A5
:103B7000464C4153485F4572617365536563746F8A
:103B80007233206572726F720D0A0000464C415309
:103B9000485F4572617365536563746F7234206565
:103BA00072726F720D0A0000464C4153485F4572B5
:103BB000617365536563746F7235206572726F72DD
:103BC0000D0A0000464C4153485F457261736553CE
:103BD0006563746F7236206572726F720D0A000031
:103BE000464C4153485F4572617365536563746F1A
:103BF0007237206572726F720D0A0000464C415395
:103C0000485F50726F6772616D576F7264206572A2
:103C1000726F720D0A000000643D25580D0A000005
:103C200010B545F2555002F099FE062002F099FEBB
:103C300040F26F2002F098FE02F099FEBDE81040BD
:103C400002F09ABE2DE9FC410121084601F0F3FB88
:103C50000121022001F0EFFB0121042001F0EBFB28
:103C60000121102001F0E7FB0121402001F0E3FBDE
:103C7000012610208DF80460002400908DF8064085
:103C800003208DF80500684F8DF8074069463846D7
:103C900001F0CEF9DFF89481802569464046009511
:103CA00001F0C6F90095624D6946284601F0C0F959
:103CB000F003009069465F4801F0BAF9A8158DF845
:103CC000076000908DF804406946384601F0B0F96D
:103CD000402469464046009401F0AAF9E0000090B3
:103CE0006946284601F0A4F969465348009401F05A
:103CF0009FF9BDE8FC812DE9F047504E4FF0000AD6
:103D0000C6F89CA24E4F0124C7F89042DFF83481D8
:103D1000C8F8BC424C4DC5F89C42022003F049FC57
:103D2000D5F82402E8B3D6F81802D8B3DFF81C910E
:103D3000D9F81802B8B3D7F82002A8B3C6F89C4245
:103D4000C7F890A2C8F8BC42C5F89C42022003F014
:103D500030FCD5F8240240B3D6F8180230B3D9F8B5
:103D60001802D0B3D7F82002C0B3C6F89C42C7F8F7
:103D70009042C8F8BCA2C5F89C42022003F019FC8E
:103D8000D5F8240258B3D6F8180248B3D9F8180267
:103D900038B3D7F8200278B3C6F89C42C7F89042EF
:103DA00005E01FE020E021E022E023E025E0C8F864
:103DB000BC42C5F89CA2022003F0FBFBD5F824020C
:103DC00048B3D6F8180240B3D9F8180238B3D7F878
:103DD000200230B34E20BDE8F08710E011E012E081
:103DE00013E014E03120F6E73220F4E73320F2E765
:103DF0004120F0E73420EEE70BE03520EBE73620FA
:103E0000E9E74220E7E73720E5E73820E3E7392014
:103E1000E1E74320DFE72A20DDE73020DBE723204E
:103E2000D9E74420D7E70000000002400004024028
:103E3000000802400018024000100240008040428A
:103E40000000404200004342000041420000424264
:103E50002DE9F0410121042001F0EDFA01210820B3
:103E600001F0E9FAFF4C4FF48070002520602571C5
:103E700003276771DFF8F083A571E571214640469D
:103E800001F0D6F84FF404602060012626716771B6
:103E9000A571E5712146404601F0CAF8C0202060B6
:103EA00026716771A571E5712146F04801F0C0F8EF
:103EB000EF48C0F89862C0F89C62EE48C0F898627B
:103EC000C0F8AC62BDE8F0812DE9F05F0025072461
:103ED000DFF8A093DFF898838346AA46012606FA06
:103EE00004F717EA0B0F02D0C9F8986201E0C9F88D
:103EF00098A2C8F89CA2012003F03CFBC8F89C6281
:103F0000D9F8200208B12F43FDB2012003F032FBA3
:103F1000641EE4D52846BDE8F09FD5E70020D3E72E
:103F200070B5D34C0D460021C4F898127E2101EAE9
:103F3000400004F52674FFF7C7FF2846FFF7C4FFCB
:103F40000120206070BD10B5C94C0021C4F8981242
:103F50007E2101EA400040F0800004F52674FFF75E
:103F6000B3FFFFF7DBFF0121216010BD70B50C46E8
:103F70000546FFF7E8FF40EA04012846BDE8704027
:103F8000CEE770B50C460546FFF7DDFF20EA0401D9
:103F90002846BDE87040C3E710B51420FFF7D3FFF3
:103FA000800704D10321BDE810401420DEE710BDD6
:103FB00003211420E5E770B5AE4C0125C4F8AC52DE
:103FC000284604F52B7403F0D5FA00202060012068
:103FD00003F0D0FA2560012003F0CCFABDE8704070
:103FE0000F2101209CE710B5FFF732FFFFF7E3FF39
:103FF0008D212A20FFF794FF3E212B20FFF790FF11
:1040000032212D20FFF78CFF00212C20FFF788FFA5
:1040100040211520FFF784FF3D211120FFF780FF8D
:1040200000210120FFF77CFFBDE81040B4E72DE937
:10403000FF5F0025DDF838B017468A4680464FF00E
:1040400002092E460C2805D0B8F10E0F04D1122516
:10405000102601E07725302645F080010220FFF789
:104060005FFF80210420FFF78CFF80210A20FFF7EB
:104070007DFF00210120FFF753FF002406E01AF81E
:1040800004100920FFF74CFF641CA4B2BC42F6D315
:1040900041460120FFF744FFB8F10C0F03D1802106
:1040A0000D20FFF763FF42F210740420FFF74BFF6F
:1040B000641E24040746240C03D0F80701D13742BC
:1040C000F3D080210D20FFF75CFF8CB30620FFF7B3
:1040D0003AFF10F01B0F01D0022028E0B8F10C0FBE
:1040E00024D10A20FFF72FFF05460C20FFF72BFFF6
:1040F00010F007004FEAC50104D008390844ABF8B6
:10410000000001E0ABF8001025B1122D00D91225F6
:10411000002409E00125FBE70920FFF714FF014611
:1041200003980155641CA4B2AC42F5D3002081462B
:1041300080210C20FFF7F4FE00210120FFF7F0FEA4
:10414000484604B0E7E67CB50C46054607210D203D
:10415000FFF7E6FE257001A82346009001221946CC
:104160000C20FFF764FF18B9BDF80410102900D027
:1041700002207CBD7CB50546082100240846FFF7D7
:1041800000FF80210E20FFF7FCFE00210D20FFF72D
:10419000C7FE932028702020687001A82B4600904D
:1041A000022219460C20FFF742FF06000AD1002226
:1041B000A85C521C4440D2B2042AF9D3A85CA042A5
:1041C00000D0022680210E20FFF7D0FE30467CBDB5
:1041D0002DE9F0410E460746154604210520FFF75C
:1041E000D0FE80210A20FFF7C1FE00210120FFF749
:1041F00097FE002405E0395D0920FFF791FE641C5D
:10420000A4B2B442F7D303210120FFF789FE4FF493
:104210007A740520FFF797FE641E2404240C01D055
:104220004007F6D52220FFF78EFE28702120FFF7E9
:104230008AFE6870BDE8F0410021012070E610B5EB
:1042400086B093218DF8041070218DF8051000219F
:104250008DF80A1001AA5418435CA3709DF80A3027
:10426000445C09E09000002000080240000C02407D
:1042700000804142000041426340491CC9B28DF8B0
:104280000A300429E7D3072101A8D21DFFF7A0FFB8
:1042900008210846FFF775FE04A801AB009009222B
:1042A00019460C20FFF7C3FE18B9BDF810001828F6
:1042B00002D0002006B010BD9DF80400FAE730B52A
:1042C00085B08DF804008DF80510002001A9145C5C
:1042D0000D18401CC0B2AC700628F8D300200C1892
:1042E0001A5C401CC0B222720428F8D304A80090C3
:1042F0000B460C220E20FFF79AFE040004D1082082
:10430000FFF721FE000700D4022405B0204630BD8F
:104310001CB50C46302121706070A21C0221204681
:10432000FFF756FF01A823460090042219460C20EF
:10433000FFF77DFE18B9BDF80410902900D00220C7
:104340001CBD70B588B00C46A0218DF8041001ADDD
:104350008DF8050002212846AA1CFFF739FF06AE9A
:1043600001AB042219460C200096FFF760FE38BB13
:10437000BDF81800042823D19DF8040000F00F00B8
:104380000A281DD10020215C2954401CC0B21028ED
:10439000F9D305AA102101A8FFF71AFF01AB1222D9
:1043A00019460C200096FFF742FE48B9BDF81810D8
:1043B000042905D19DF8041001F00F010A2900D04D
:1043C000022008B070BD0EB550208DF8040000200A
:1043D0008DF805000DF10602022101A8FFF7F8FE95
:1043E00002A801AB0090042219460C20FFF71FFE23
:1043F0000EBD0000FF494FF400720A6008710320EF
:10440000487100208871C871FB4800F011BE70B57A
:104410000120FFF7EFFFF94C0120C4F8A002C4F817
:10442000A40204F5287403F0A5F8002565600120B6
:1044300003F0A0F82560BDE87040012003F09AB8B1
:1044400070B50120FFF7D6FFEC4C0125C4F8A0524F
:104450000020C4F8A402284604F5287403F08AF862
:104460006560BDE87040012003F084B870B500209D
:10447000FFF7C0FFE14D0120C5F8A00203F07AF874
:10448000D5F8240208B1012400E000240020C5F87A
:10449000A002012003F06EF8204670BD2DE9F04126
:1044A00080460120FFF7A6FFD44E0027C6F8A07271
:1044B000C6F8A472012003F05DF80724012505FA6F
:1044C00004F010EA080F02D0C6F8A45201E0C6F8C2
:1044D000A472012003F04EF8C6F8A052012003F0A8
:1044E00049F8C6F8A072012003F044F8641EE6D52E
:1044F000BDE8F08110B50446FFF789FF7820FFF78B
:10450000CDFFFFF7B3FF0020FFF7C8FFFFF7AEFFB7
:104510002046FFF7C3FFFFF7A9FFBDE810408FE774
:1045200010B50446FFF773FF7820FFF7B7FFFFF7DA
:104530009DFF4020FFF7B2FFFFF798FF2046FFF7EF
:10454000ADFFFFF793FFBDE8104079E7C0B201B1BE
:10455000E6E7CFE770B506460025002105F1B0007B
:10456000FFF7F4FF00210846FFF7F0FF00211020BD
:10457000FFF7ECFF002401213046FFF7E7FF641C42
:10458000E4B2802CF7D36D1CEDB2082DE5D370BDDD
:1045900010B5040004D0322003F00BF8641EFAD1E9
:1045A00010BD10B5044602E0012003F002F8641EBD
:1045B000FAD210BD10B50A460446002102F1B0003F
:1045C000FFF7C4FF102040EA14100021FFF7BEFFE0
:1045D00004F00F00BDE810400021B7E710B500213E
:1045E0008D20FFF7B3FF00211420FFF7AFFF00215C
:1045F000BDE81040AF20A9E710B500218D20FFF7DE
:10460000A5FF00211020FFF7A1FF0021BDE8104009
:10461000AE209BE770B50025002105F1B000FFF743
:1046200095FF00210846FFF791FF00211020FFF7BA
:104630008DFF002401210020FFF788FF641CE4B2F5
:10464000802CF7D36D1CEDB2082DE5D370BD70B58D
:104650000025002105F1B000FFF778FF0021084692
:10466000FFF774FF00211020FFF770FF00240121E5
:104670000846FFF76BFF641CE4B2802CF7D36D1C77
:10468000EDB2082DE5D370BD2DE9F041203A0024AC
:104690000F468046D5B27F2803D900208F1C804664
:1046A000FFB2102B39460FD0FFF784FF544905EBBA
:1046B000450001EB40050121285DFFF747FF641C21
:1046C000E4B2062CF7D313E7FFF774FF4D4E04EB6B
:1046D00005100121305CFFF739FF641CE4B2082C9F
:1046E000F5D37F1CF9B24046FFF764FF002404EBCA
:1046F000051030440121007AFFF728FF641CE4B262
:10470000082CF4D3F4E60346012000E05843491E88
:10471000C9B2FBD270472DE9F05F0027DDF828A071
:104720001D4691468B4680463C464FEA5A0623E09A
:10473000281B401EC1B20A20FFF7E5FFB9FBF0F0CD
:104740000A21B0FBF1F201FB120027B9691E8C426D
:1047500001DA38B101273030C2B206FB0480C0B2A2
:10476000534604E006FB0480C0B25346202259465B
:10477000FFF78AFF641CE4B2AC42D9D3BDE8F09FD6
:104780002DE9F041984617460E46044600250DE0F7
:10479000434631462046FFF777FF0834E4B2782CD1
:1047A00002D90024B61CF6B26D1CEDB27A5D002A67
:1047B000EED19DE62DE9F04115460E460746FFF77E
:1047C000F9FE0C480024083000EB85150121285D16
:1047D000FFF7BCFE641CE4B2102CF7D3761CF1B2D8
:1047E0003846FFF7E7FE00242819012190F8200041
:1047F0000AE00000980000200004024000804042CF
:1048000046EE00086EF00008FFF7A0FE641CE4B25C
:10481000102CE9D36CE62DE9F0471F4690460E4672
:1048200082460025DDF8209011E031465046FFF722
:10483000C1FE544607E019F8050001216D1CFFF781
:1048400085FE641CE4B24445F5D3761CF6B2BE4244
:10485000EBD3BDE8F08710B50121022000F0EBFD9D
:1048600041484FF4407101240160047103214171FA
:1048700000218171C17101463C4800F0D9FB3C48E0
:10488000C0F8A442C0F8A042C82002F092FE002165
:10489000AE20FFF75BFE00210846FFF757FE002120
:1048A0001020FFF753FE00214020FFF74FFE0021AC
:1048B000B020FFF74BFE00218120FFF747FE0021CB
:1048C000FF20FFF743FE0021A120FFF73FFE00215C
:1048D000A620FFF73BFE0021A820FFF737FE0021AE
:1048E0003F20FFF733FE0021C820FFF72FFE0021F5
:1048F000D320FFF72BFE00210846FFF727FE0021FB
:10490000D520FFF723FE00218020FFF71FFE0021A6
:10491000D820FFF71BFE00210520FFF717FE00211E
:10492000D920FFF713FE0021F120FFF70FFE002131
:10493000DA20FFF70BFE00211220FFF707FE00210F
:10494000DB20FFF703FE00213020FFF7FFFD0021F1
:104950008D20FFF7FBFD00211420FFF7F7FD00215C
:10496000BDE81040AF20F1E59800002000040240AF
:104970000080404270B50121080700F07AFD012057
:1049800002F016F8012000F04DFC412000F012FC6E
:104990000028FAD04FF4807000F0FBFC012000F0FA
:1049A0000DFD02F08DF8A3487F2100254160FF2115
:1049B0000560816002F01FF99F4821210324C17026
:1049C0004470847004700146012002F0F2F99A48A4
:1049D0004021001FC1701021017057214170857066
:1049E0000146012002F06BF9002002F052FB042086
:1049F00002F02EFB002002F03CFB4FF480463046D4
:104A000002F05DFD0121304602F00DFD012002F0B3
:104A100040FB89483102083001600571082141716D
:104A20000125857101F0C4FC8348001D04704470A9
:104A30008470C570BDE8704000F03BBA70B50121CC
:104A4000080302F0F0FC4FF4807002F015FD4FF403
:104A50000034204601F005FD774908200831012582
:104A60000C6000240C7148718D71084601F0A0FCA7
:104A700071482921001D017044708470C570BDE823
:104A8000704000F016BA1FB54FF480740021204624
:104A900002F098FA6A462146012002F0F9F9012154
:104AA000204602F08FFA1FBD38B504F0F2F84FF43B
:104AB0008044204602F0ECFC58B16B4600220121F4
:104AC0005E4805F057F8204602F0F9FC200201F09C
:104AD000C8FC04F0E9F838BD10B54FF480742046E6
:104AE00002F0BFFC012805D153490839086020466F
:104AF00002F0C2FCBDE810404FF4003001F0B1BC40
:104B000010B5002002F042FC41F28864A04207D0B8
:104B1000FFF730FF2146BDE81040002002F02EBC18
:104B20000121080700F0A5FC012001F041FF012050
:104B300000F078FB412000F03DFB0028FAD04FF454
:104B4000807000F026FC012000F038FC01F0B8FF76
:104B5000002002F09EFA042002F07AFA002002F00F
:104B600088FA4FF48044204602F0A9FC0121204637
:104B700002F059FC012002F08CFA2F482102083083
:104B8000012401600021017108214171847101F04B
:104B90000FFC29480321001D017041708170C47011
:104BA000BDE8104000F085B930B4234CE07061706E
:104BB000A2702370214630BC012002F0FAB81E4BCF
:104BC00030B41B1F4024DC70187059709A7030BCD0
:104BD0001946012002F073B8164B30B40C33402450
:104BE000DC701870597013489A7061065960D0E9EA
:104BF0000523C06830BC46E708B50F49012002F024
:104C000026F90D480178009183784278C1780CA08C
:104C100008F0E2FB08490120091F02F0A0F806484D
:104C2000001F83784278017801B00CA05DF804EB96
:104C300008F0D2BB70590020E81900204C58002021
:104C40003230253032782F253032782F25303278A7
:104C5000205765656B25780D0A00000025303278F5
:104C60003A253032783A253032780D0A0A000000B1
:104C700010B51F4C0121204601F0C9FA00280ED0C2
:104C80001C48018841F4004101800121204601F0C7
:104C9000CAFA2046BDE81040002100F093BF10BDC5
:104CA0007FB50D4604460121202000F0E2FB01946F
:104CB0000020ADF800500E4CADF80800ADF8020031
:104CC0006946204600F006FF01221146204601F009
:104CD0008AFA37208DF80C0001208DF80D008DF830
:104CE0000E008DF80F0003A800F0E3F87FBD000070
:104CF00000140040F819002070B5554C40F22551C1
:104D0000204600F024FE00281AD0204600F088FD3E
:104D1000504DC4B22888010412D4B0F5C87F10D217
:104D20004D4E0021304600F017FF288818B90121A8
:104D3000304600F047FF494928880C54401C288021
:104D400070BD40F40040FAE72DE9F04381460121AF
:104D500087B0084600F06FFB0121480400F089FB92
:104D60003B4F384600F07CFCDFF8F480072202213C
:104D7000404600F0D1F907220321404600F0CCF96B
:104D800002208DF814008DF8150000240C268DF8F3
:104D90001640012504968DF8175004A9404600F0EE
:104DA00047F9ADF80440ADF80840CDF80090ADF8F3
:104DB0000640ADF80C40ADF80A606946384600F090
:104DC00094FC0121384600F001FD012240F22551FA
:104DD000384600F09AFD26208DF818008DF81950FD
:104DE0008DF81A408DF81B5006A800F062F842F2C8
:104DF000CF0140F2E730FFF753FF1648002104804F
:104E0000154800F0DFFE07B0BDE8F0830FB4154889
:104E10002DE9F04107AA069908F0CCFA114808F0EC
:104E2000BDFC85B200240A4E0E4F0BE040213046F7
:104E300000F083FD0028F9D0395D304600F0ECFC2D
:104E4000641CA4B2AC42F1D3BDE8F0015DF814FBE0
:104E500000440040F819002000140040205B0020AE
:104E60000000024090590020094880470948004747
:104E7000FEE7FEE7FEE7FEE7FEE7FEE7FEE7FEE70A
:104E8000FEE7FEE704480549054A064B7047000067
:104E90005F2B000889010008287B002028DB002008
:104EA000289B0020289B00202849084328490860A7
:104EB000704730B50F23C27801780125FAB1244A32
:104EC000126801F1E02102F4E062C2F5E062C2F38F
:104ED0000722C2F10404D3404278A24084781C40E7
:104EE0001443220181F80024007800F01F018D4056
:104EF0004009800000F1E020C0F8005130BD01F011
:104F00001F0085404809800000F1E020C0F8805172
:104F100030BD104A114001430D48001F0160704729
:104F20000B4A121D0029116801D0014300E08143A2
:104F3000116070474FF0E0210428086903D020F089
:104F400004000861704740F00400FAE70000FA0529
:104F50000CED00E080FFFF1F774910B5884206D1B5
:104F60000121084600F099FA002101205BE0734915
:104F7000884206D10121022000F08FFA0021022090
:104F800051E06F49884206D10121042000F085FAE2
:104F90000021042047E06B49884206D10121082006
:104FA00000F07BFA002108203DE06749884206D1E5
:104FB0000121102000F071FA0021102033E0634934
:104FC000884206D10121202000F067FA002120202C
:104FD00029E05F49884206D10121402000F05DFAB6
:104FE000002140201FE05B49884206D1012180203A
:104FF00000F053FA0021802015E05749884202D181
:10500000012184150AE05549884202D10121441545
:1050100004E0534988420AD101210415204600F0DA
:105020003CFA00212046BDE8104000F036BA10BD21
:10503000F0B5002201274FF0030C0B6807FA02F5C8
:105040002B40AB422CD1066853000CFA03F4A64364
:1050500006600E79D0F800E09E4046EA0E06066033
:105060000E79012E01D0022E12D18668A6438660E9
:105070004E79D0F808E09E4046EA0E068660466803
:10508000AE43466045688E799640B6B2354345607A
:10509000C568A543C560CC799C40C3681C43C46007
:1050A000521C102AC9D3F0BD4FF6FF7101600021D8
:1050B000017141718171C171704708B541F480324D
:1050C0000092C261C1610099C161C169C06900906B
:1050D00008BD0246002012690A4200D00120704734
:1050E000006980B270470246002052690A4200D02F
:1050F00001207047406980B2704701837047418347
:1051000070470AB10183704741837047416170471E
:1051100042694A40426170474B07DB0E9A40C9081A
:1051200010B500EB8100016A0F249C40A14301628D
:10513000016A1143016210BD0000024000040240F8
:1051400000080240000C024000100240001402401F
:1051500000180240001C02400020024000240240CF
:1051600000280240F848016841F001010160F64A58
:105170000021083211600268F44B1A400260031DDE
:10518000F34A1A60F04BF34A84331A60F04A103A3B
:105190001B1D1A60026822F480220260EA480C306B
:1051A0000160181D01607047E7490022891C0A70E0
:1051B0000870704702460020510901290CD00229CD
:1051C0000CD0E1497431096802F01F0201239340B9
:1051D0000B4200D001207047DB49F4E7DA49703117
:1051E000F1E718B500204FF4A04400903120FFF7FC
:1051F000E1FF0099491C0091A14201D00028F5D09F
:105200003120FFF7D7FF002800D0012018BDCE4A7B
:10521000116821F0F80141EAC00010607047CE49E2
:1052200008607047C849002270310A700A7001286E
:1052300002D0042801D1052008707047C7490860D2
:10524000704741EA82115A0810B5C54B029C03EB26
:1052500002421143014341EA0460BB49091D086051
:1052600010BDBD4908667047800140EA0170B6492B
:10527000843108607047B84988667047800140EA09
:105280000160B14940EA0270883108607047B24954
:1052900008677047B049C8647047AB4B08331A6859
:1052A000084322F0EC62104318607047A64B0833A5
:1052B0001A68084322F07842104318607047A24AE7
:1052C0000832116821F003010143116070479E48C4
:1052D0000830006800F00C0070479B4A08321168E3
:1052E00021F0F001014311607047974A08321168BC
:1052F00021F4E051014311607047934A083211686C
:1053000021F4604141EAC0001060704770B58E4BD7
:1053100008331968934C11F00C0104D0661004296D
:1053200003D0082903D004601BE0066019E0864A18
:10533000121D1168C1F38055116801F03F0115B1CC
:10534000B6FBF1F101E0B4FBF1F114681268C4F3AB
:1053500088146143C2F30142521C5200B1FBF2F1C6
:10536000016019680F2202EA11117F4A545C01683A
:10537000E14041601C68072505EA9424145D21FA88
:1053800004F484601B6805EA5333D25CD140C160E9
:1053900070BDC0F30121032908D16B4B0833196894
:1053A000724A21F4F81102400A431A6066497031CA
:1053B0000A68C0F30B0002430A607047674944392A
:1053C0000860704765494039086070476249C1F814
:1053D0005C0170475C4A8C321168401E21F01F014D
:1053E000014311607047584A8C3211686FF0FF0317
:1053F00021F4F85103EB0020084310607047524A33
:105400008C32116821F440110143116070474E4AFB
:105410008C32116821F440010143116070474A4AFF
:105420008C32116821F440310143116070475049BA
:10543000C1F8E0017047444A30320029116801D0B8
:10544000014300E08143116070473F4A3432002934
:10545000116801D0014300E08143116070473A4A6E
:1054600038320029116801D0014300E08143116006
:105470007047354A40320029116801D0014300E0ED
:10548000814311607047304A44320029116801D0CD
:10549000014300E08143116070472B4A103200291C
:1054A000116801D0014300E0814311607047264A32
:1054B00014320029116801D0014300E081431160DA
:1054C0007047214A18320029116801D0014300E0D9
:1054D0008143116070471C4A20320029116801D0B5
:1054E000014300E0814311607047174A24320029CC
:1054F000116801D0014300E0814311607047124AF6
:1055000050320029116801D0014300E0814311604D
:1055100070470D4A54320029116801D0014300E060
:10552000814311607047084A58320029116801D040
:10553000014300E0814311607047034A6032002953
:10554000116817D0014316E000380240FFFFF6EA69
:10555000103000240030002000004742800E4742F7
:105560000000FFFF0024F400FA190020FFFCFF0FE9
:1055700000104742814311607047194A00291168A1
:1055800001D0014300E081431160704714490C31A0
:105590000128086803D020F008000860704740F038
:1055A0000800FAE70E4A573A0029117801D0014362
:1055B00000E081431170704709481030016841F0E4
:1055C0008071016070470146054A0020583A126810
:1055D0000A4200D0012070470149563908707047CF
:1055E0006438024010B501218C032046FFF77DFF8F
:1055F0002046BDE810400021FFF777BF144908603E
:10560000704714490862704710B58A0721F00304F7
:105610001149120F21440F23D1F8084893409C43AD
:10562000C1F80848D1F8083890400343C1F8083859
:1056300010BD0849C1F8DC00704708490860704790
:105640000349002020310968C90500D501207047B1
:10565000003801400000274200300140000427428A
:10566000CD4910B5884206D101211020FFF73DFF3A
:105670000021102020E0C949884202D101214C04B8
:1056800029E0C749884202D101218C0423E0C549A1
:10569000884202D10121CC041DE0C349884202D1D5
:1056A00001210C0517E0C149884209D101212020C0
:1056B000FFF71BFF00212020BDE81040FFF715BFBA
:1056C000BB49884202D101218C0704E0B9498842D4
:1056D0000AD1012144052046FFF7FDFE2046BDE822
:1056E00010400021FFF7F7BE10BD7FB50446008AC9
:1056F0000D46C98820F4405001432182A08941F21F
:105700000C618843A9882A8911436A89024311439D
:10571000A181A08A20F44071A8890843A08268462C
:10572000FFF7F4FD9C48844202D0A048844201D196
:10573000039800E00298A189090400EBC00101EB85
:105740000010296801D5490000E08900B0FBF1F0A4
:105750006422B0FBF2F109010B096FF018056B43ED
:1057600000EB8300A3891D044FF0320306D503EB41
:10577000C000B0FBF2F000F0070005E003EB001002
:10578000B0FBF2F000F00F00084320817FBD4FF422
:105790001651016000218180C18001810C2242816B
:1057A0008181704710B5028A4C8822F470630A88A0
:1057B00022438C88C9880C4322431A43028210BDBD
:1057C0000021018041808180C1807047002981894A
:1057D00002D041F4005101E021F400518181704771
:1057E000028B02F47F420283028B0A4302837047DA
:1057F0000029818902D041F4004101E0C1F30E018A
:10580000818170470029818A02D041F4006101E062
:1058100021F4006181827047C1F3080181807047E3
:105820008088C0F308007047028A22F00F020282CB
:10583000028A0A43028270470029818902D041F01E
:10584000020101E021F0020181817047828922F486
:105850000062828182890A4382817047028A22F033
:1058600020020282028A0A43028270470029018ACA
:1058700002D041F4804101E021F48041018270476F
:10588000818941F00101818170470029818A02D01C
:1058900041F0080101E021F0080181827047028B8C
:1058A000D2B20283028B42EA0121018370470029B0
:1058B000818A02D041F0200101E021F020018182A3
:1058C00070470029818A02D041F0100101E021F0E7
:1058D000100181827047828A22F004028282828AC9
:1058E0000A43828270470029818A02D041F0020176
:1058F00001E021F0020181827047002A828A01D0F2
:105900000A4300E08A438282704710B5C1F3421314
:1059100001F01F040121A140012B07D0022B07D069
:105920001430002A026805D00A4304E00C30F8E77E
:105930001030F6E78A43026010BD0246002012884C
:105940000A4200D001207047C9430180704770B5FA
:1059500001F01F0501260024C1F3421306FA05F2E7
:10596000012B0FD0022B0FD0838A4FEA1121008820
:10597000134206FA01F600EA060001D000B1012444
:10598000204670BD8389F0E7038AEEE70A0A012109
:105990009140C9430180704700100140004400401D
:1059A00000480040004C00400050004000140140FE
:1059B00000780040007C0040FE4910B5884206D1C6
:1059C00001210846FFF791FD002101205BE0B0F1C5
:1059D000804F09D0F84988420DD101210220FFF7FC
:1059E0007AFD0021022070E001210846FFF773FDD7
:1059F0000021012069E0F149884206D101210420FB
:105A0000FFF769FD002104205FE0ED49884206D1DF
:105A100001210820FFF75FFD0021082055E0E9493A
:105A2000884206D101211020FFF755FD00211020EA
:105A30004BE0E549884206D101212020FFF74BFDCC
:105A40000021202041E0E149884206D101210220C5
:105A5000FFF74BFD0021022015E0DD49884202D10D
:105A600001210C040AE0DB49884202D101214C04E7
:105A700004E0D94988420AD101218C042046FFF76D
:105A800034FD00212046BDE81040FFF72EBDD3496C
:105A9000884206D101214020FFF71DFD0021402052
:105AA00013E0CF49884206D101218020FFF713FD82
:105AB0000021802009E0CB4988420AD184150121C8
:105AC0002046FFF708FD00212046BDE81040FFF703
:105AD00002BD10BD30B50288B64CBC4DA0420DD001
