:020000040800F2
:10000000082500209D020008A5020008A70200089C
:10001000A9020008AB020008AD02000800000000C1
:10002000000000000000000000000000AF02000817
:10003000B102000800000000B3020008B502000889
:10004000B7020008B7020008B70200089D36000892
:10005000B7020008B7020008B7020008B70200089C
:10006000B7020008B7020008B7020008B70200088C
:10007000B7020008B7020008B7020008B70200087C
:10008000B7020008B7020008B7020008B70200086C
:10009000B7020008B7020008B7020008091D0008EF
:1000A000B7020008B7020008B7020008B70200084C
:1000B000B70200089D3A0008B7020008B70200081E
:1000C000B7020008B7020008B7020008B70200082C
:1000D000B70200082D3C0008813C0008E13C000804
:1000E000B7020008D9320008B7020008B7020008BA
:1000F000B7020008B7020008B7020008B7020008FC
:10010000B7020008B7020008B7020008B7020008EB
:10011000B7020008B7020008B7020008DD3A00087D
:10012000B7020008B7020008B7020008B7020008CB
:10013000B7020008B7020008B7020008B7020008BB
:10014000B7020008B7020008B7020008B7020008AB
:10015000B7020008B7020008B7020008B70200089B
:10016000B7020008B7020008B7020008B70200088B
:10017000B7020008B7020008B7020008B70200087B
:10018000B7020008B702000800F002F800F077F8A4
:100190000AA090E8000C82448344AAF10107DA45E2
:1001A00001D100F06CF8AFF2090EBAE80F0013F0BD
:1001B000010F18BFFB1A43F001031847C85F000086
:1001C000E85F000010F8013B0A4413F0030408BF85
:1001D00010F8014B1D1108BF10F8015B641E05D01B
:1001E00010F8016B641E01F8016BF9D1002D15D0D8
:1001F00010F8014B03F00C030C2BA1EB04040ABF15
:1002000010F8013BA4EB8314A4EB032405F10103D4
:1002100014F8016B5B1E01F8016BF9D5914238BFF0
:1002200010F8013BD1D3704700230024002500269D
:10023000103A28BF78C1FBD8520728BF30C148BF49
:100240000B607047642900F0BD80782900F021819F
:10025000632900F04283732900F047830020704730
:100260001FB505F061FB00F053FC040000200021E5
:1002700005F044FB401C60601FBD10B510BD00F0D0
:1002800022FC1146FFF7ECFF04F0CAFA00F052FC22
:1002900003B4FFF7F2FF03BC03F07FFF0948804778
:1002A00009480047FEE7FEE7FEE7FEE7FEE7FEE758
:1002B000FEE7FEE7FEE7FEE704480549054A064B70
:1002C00070470000413A000889010008081F00201B
:1002D0000825002008210020082100207047000088
:1002E0000FB4044910B503AA029800F003FB10BC38
:1002F0005DF814FB141A00200FB41CB5084B06AAB5
:100300007B4469460090059800F0C5FA0446002039
:10031000694600F0D3FA20461CBC5DF814FB0000CF
:10032000B905000070B5044685690068C10601D5AD
:10033000302600E02026C00707D070BDD4E9012197
:1003400030469047206A401C20626D1EF6D570BD75
:1003500070B5044685690078C00707D170BDD4E93F
:10036000012120209047206A401C20626D1EF6D596
:1003700070BD70B50C460546012A05D02878800668
:1003800000D5EA69002302E0012305E05B1C9342EB
:1003900002D2E05C0028F9D1A869E618C01AA86169
:1003A000286A184428622846FFF7BCFF04E0D5E914
:1003B000012114F8010B9047B442F8D32846FFF707
:1003C000C7FF70BD2DE9F04106460024106875296D
:1003D000314616A510D0AFF30080002802DA404263
:1003E00013A507E031688A0701D512A502E0490785
:1003F00004D511A5012401E0AFF3008000210A22F9
:1004000006F1240709E0B0FBF2FCB0FBF2F302FBBB
:100410001C00303078541846491C0028F3D123467C
:100420002A463046BDE8F04100F0D6B90000000091
:100430002D0000002B00000020000000F0B40D464D
:100440000188090502D5214C7C4402E01F4C7C4404
:100450000E34002100F1240608E002F00F07120913
:10046000E75D42EA03721B097754491C52EA03070D
:10047000F3D102780023120704D5702D06D009B1FC
:10048000022311342246F0BC00F0A6B90123103437
:10049000F8E770B504460D4621461068AFF30080BA
:1004A000024629462046BDE870400023C6E7D21D1B
:1004B00022F00703D3E90023C0E70368126843F082
:1004C000200303600823C3610023B7E7FE5C00003C
:1004D0002DE9F05F894604464FF0000ADFF874B159
:1004E000FB44C0F820A02046E1688847002874D06B
:1004F000252806D0D4E901219047206A401C2062BB
:10050000F1E700265F462046E16888472028054637
:1005100007DB312D05D2781910F8200C08B10643FD
:10052000F1E7B00701D526F00406C4F81CA00027A7
:10053000C4F818A02A2D09D0284603F027FE38B3A6
:1005400004EB8708303DC8F8185019E059F8041B2F
:10055000204604EB87029161E1688847012F054638
:1005600018D1E069002820DA26F020061DE0D8F82E
:10057000180000EB800005EB40003038C8F8180088
:100580002046E1688847054603F000FE0028EED1CA
:10059000012F0AD02E2D08D12046E16888477F1C04
:1005A0000546022F46F02006C4DBA069002803DAC6
:1005B000404246F00106A061F00701D026F0100687
:1005C0006C2D0BD0682D09D04C2D39D06A2D35D02B
:1005D000742D35D07A2D33D016E038E0E1682F46FF
:1005E00020468847B842054609D16C2F26D04FF4E3
:1005F0008060E168064320468847054604E06C2F8A
:100600001AD04FF4807006430DB3A5F141001928AC
:1006100002D8203546F400664A4629462046266020
:100620004E46FFF70FFE80B101280BD0F61D26F0D5
:10063000070000F1080956E74020E4E78020D8E7EA
:100640000020D6E706F104094DE7284652E7206A64
:10065000BDE8F09F8E5C000070B5064600F0B8F86B
:100660000468054630460A22002100F055F92C6046
:1006700070BD0000014A00F087B90000481A002050
:1006800030B505460B462A4613F8014B12F8010B0C
:1006900008B1A042F8D01CB1002802D06D1CF1E7CF
:1006A000284630BD10B5431C02E010F8011B71B1A3
:1006B0008107FAD14FF0013202C88C1A8C4314EA38
:1006C000C211F9D0C01A0A0603D0C01E10BDC01A4C
:1006D00010BD0A0401D0801E10BD0902FCD0401ECE
:1006E00010BD4FF000020429C0F0128010F0030C7E
:1006F00000F01B80CCF1040CBCF1020F18BF00F815
:10070000012BA8BF20F8022BA1EB0C0100F00DB8C3
:100710005FEAC17C24BF00F8012B00F8012B48BF21
:1007200000F8012B70474FF0000200B513469446C5
:100730009646203922BFA0E80C50A0E80C50B1F139
:100740002001BFF4F7AF090728BFA0E80C5048BF4D
:100750000CC05DF804EB890028BF40F8042B08BFEB
:10076000704748BF20F8022B11F0804F18BF00F8E7
:10077000012B704710B5044610F0030F08BF11F0AD
:10078000030F40F015804FF0013E121FC0F20E80A3
:1007900051F8043BA3EB0E0C2CEA030C1CEACE1C14
:1007A00008BF40F8043BF0D0A1F1040102F10402BB
:1007B000521E08DB11F8013B002B00F8013BF7D17A
:1007C0001146FFF78EFF204610BD704770477047F7
:1007D00000487047A81E00202DE9F0470D469946B5
:1007E0009246044600F124080168880604D5E069B1
:1007F00021F01001216000E00120A84201DD471B2B
:1008000000E00027A1697A1902EB0900081AA0612B
:100810002078C00602D42046FFF784FD002608E0B9
:10082000D4E901211AF806009047206A401C761C82
:1008300020624E45F4DB2078C0060AD52046FFF73B
:1008400071FD06E0D4E9012130209047206A401C68
:100850002062381EA7F10107F4DC07E0D4E901218A
:1008600018F805009047206A401C2062281EA5F158
:100870000105F3DC2046FFF76BFD2078000602D56A
:100880000220BDE8F0870120FBE7000001694A1C57
:1008900002610878704700B58FB0CDE901310021C1
:1008A000059105497944CDE9031011466846FFF7E3
:1008B0000FFE0FB000BD0000E5FFFFFF0A6802F861
:1008C000010B0A60704710B5436913B1AFF30080A4
:1008D00001E0FFF74EFD012010BD127800F1240168
:1008E0000A7000224A700122EDE711684FF0FF32D2
:1008F000E9E70000074B70B50D467B44FFF7CBFFDF
:100900000446284600F0BDF810B14FF0FF3070BD2E
:10091000204670BD573C00002DE9F04791460F4638
:1009200080460446002614F8015B2DB100F052F811
:100930000068405DC007F6D12B2D02D02D2D18D0B8
:10094000641E4A463946204600F04CF827B1396803
:10095000A14201D1C7F800804FF0020471050BD508
:100960004042002803DDFFF733FF0460A007BDE825
:10097000F08746F48066E4E70028F8DAFFF728FFFE
:1009800004606FF00040F2E72DE9F04115460E4695
:10099000040002D12C6804B90BA4204600F085F8AD
:1009A0000444207870B127463146384600F06DF88F
:1009B0000444207810B1002004F8010B38462C6064
:1009C000BDE8F0810027F9E700000000004870470B
:1009D000A81E002010B500F09BF8001D10BD00BF40
:1009E0001D4F00002DE9F05F824615468B4600271B
:1009F0000AF10104B9460078302801D09DB113E016
:100A000014F8010B0127782803D0582801D045B1EC
:100A10000AE00DB1102D07D1002714F8010B1025A5
:100A200002E0082500E00A250026B0460EE005FB9E
:100A3000080005FB06F101271FFA80F801EB1046BC
:100A4000B6F5803F00D3B94614F8010B294600F0F3
:100A500063F80028EBDABBF1000F05D00FB1641E7C
:100A600000E05446CBF80040B9F1000F06D0FFF784
:100A7000AFFE02210160C81EBDE8F09F48EA0640B3
:100A8000FAE7007B00F08000704730B503461D7820
:100A90001DB10A4603E0AC4201D1181A30BD12F86C
:100AA000014B002CF7D15B1CF1E730B503461D78F4
:100AB0003DB10A4612F8014B1CB1AC42FAD15B1CA5
:100AC000F5E7181A30BD7546FFF780FFAE46050002
:100AD0006946534620F00700854618B020B5FFF759
:100AE000EBFBBDE820404FF000064FF000074FF051
:100AF00000084FF0000B21F00701AC46ACE8C0093C
:100B0000ACE8C009ACE8C009ACE8C0098D46704744
:100B100000487047C81E00203A2800D2303820F024
:100B20002002412A01D3A2F13700884201D34FF0BD
:100B3000FF3070470446AFF300802046FFF7A8FB64
:100B40004FF0013C50F8042B51F8043B9A4221D15C
:100B5000A2EB0C03934313EACC1317D150F8042BE8
:100B600051F8043B9A4215D1A2EB0C03934313EACC
:100B7000CC130BD150F8042B51F8043B9A4209D105
:100B8000A2EB0C03934313EACC13DBD04FF000002D
:100B9000704700BFD01A01BAB1FA81F101F0180113
:100BA00022FA01F0CB40C1F12001DBB2C0B2C01A81
:100BB0002CFA01F3D11A914311EAC311E6D170471F
:100BC00010B596B0142103A8FFF7ADFD64A00FACDB
:100BD000D0E90010CDE9131063A00FC884E80F001E
:100BE00001F0A6FF0F220021102002F085F85C2200
:100BF0000021202002F080F85B220021302002F04A
:100C00007BF858220021402002F076F801F0DEFD4A
:100C100015A9522001F018FE0028F7D10A900B9078
:100C20000C900D9008A801F095FC08A801F040FE7A
:100C300008AB13AA0421602001F0BAFC0FA904201C
:100C400001F0F8FE0AA9042001F0E5FD01F070FFB3
:100C5000102349A20021382002F0BAF89DF82200A2
:100C60009DF824209DF823108DE807009DF8213081
:100C70009DF8202041A103A8FFF73EFB102303AA03
:100C80000221082002F0A4F8142103A8FFF74BFD6D
:100C90009DF822009DF824209DF823108DE8070080
:100CA0009DF821309DF820203BA103A8FFF724FBED
:100CB0004FF47A7003F072FA03A800F003FD4FF4CA
:100CC000FA6428B35D220421182002F015F8582296
:100CD0000421282002F010F85E220421382002F0BE
:100CE0000BF85F220421482002F006F80B220621AF
:100CF000182002F001F80C220621282001F0FCFF48
:100D000009220621382001F0F7FF0A2206211CE003
:100D100000F004FD00EB400101EBC00024490B2270
:100D2000084403A903F008F90B220421182001F05C
:100D3000E3FF0C220421282001F0DEFF072204211A
:100D4000382001F0D9FF08220421482001F0D4FF07
:100D5000204603F023FA01F0EBFE16B010BD0000B0
:100D6000FFFFFFFFFFFF000000010203040506076D
:100D700008090A0B0C0D0E0F49440000253032788B
:100D800020253032782025303278202530327820E6
:100D90002530327800000000253032782530327856
:100DA0002530327825303278253032782300000023
:100DB000000002082DE9F84F0024DFF810B42646A1
:100DC0002746A046A246052C46D2DFE804F003469B
:100DD00098F2F0006D1CEDB2FDA0FFF781FA01F072
:100DE000A7FE0F2200211B2001F086FF1122002107
:100DF0002D2001F081FF022200213F2001F07CFF25
:100E000003220021512001F077FF02F04FF801008A
:100E100057D10120D946CBF8A00202F029F80100F1
:100E2000C9F8A0A24DD1EDA0FFF75AFA022211464F
:100E30001B2001F061FF032202212D2001F05CFF45
:100E40001D2202213F2001F057FF1E2202215120C6
:100E500001F052FF002501240AE26D1CEDB2E2A070
:100E6000FFF73EFA01F064FE0F220021102001F08E
:100E700043FF10220021202001F03EFF1322002119
:100E8000302001F039FF11220021402001F034FF11
:100E900002220021502001F02FFF032200216020B8
:100EA00001F02AFF02F002F801000AD10120D94620
:100EB000CBF8A002022001F0DBFF0100C9F8A0A2DC
:100EC00003D0CEA0FFF70CFAD2E1C4A0FFF708FAD6
:100ED000022211461B2001F00FFF032202212D20C8
:100EE00001F00AFF1D2202213F2001F005FF1E2212
:100EF0000221512001F000FF00250224B8E1C2A028
:100F0000FFF7EEF901F014FE15220021102001F088
:100F1000F3FE16220021202001F0EEFE1722002110
:100F2000302001F0E9FE18220021402001F0E4FE0B
:100F300002220021502001F0DFFE03220021602068
:100F400001F0DAFE02F044F804004FF015024FF011
:100F500002014FF01B0017D001F0CEFE1622022135
:100F60002D2001F0C9FE092202213F2001F0C4FE1C
:100F70000A220221512001F0BFFE21469FA0FFF767
:100F8000AFF900252C4656E001F0B6FE16220221EC
:100F90002D2001F0B1FE072202213F2001F0ACFE1E
:100FA00008220221512001F0A7FE032443E058E06B
:100FB000FFE799A0FFF794F919220421102001F00E
:100FC0009BFE1A220421202001F096FE0222042119
:100FD000302001F091FE03220421402001F08CFE1C
:100FE0001B220421502001F087FE1C2204216020D6
:100FF00001F082FE02F006F85FEA00094FF01902E4
:101000004FF006014FF01B0018D001F075FE1A22B8
:1010100006212D2001F070FE092206213F2001F05B
:101020006BFE0A220621512001F066FE002449468B
:1010300072A0FFF755F94FF4966017E101F05CFEDE
:101040001A2206212D2001F057FE072206213F20FB
:1010500001F052FE08220621512001F04DFE042429
:10106000E9E771A0FFF73CF973A0FFF739F901F048
:101070005FFD00211F22084601F03EFE20220021D4
:10108000102001F039FE02220021202001F034FE60
:1010900003220021302001F02FFE102369A200213D
:1010A000402001F095FE102367A20021502001F09E
:1010B0008FFE102365A20021682001F089FE112215
:1010C00002211B2001F018FE102361A20221312011
:1010D00001F07EFE222202213F2001F00DFE23229C
:1010E0000221512001F008FE10235AA206210820F7
:1010F00001F06EFE59220621102001F0FDFD1F2295
:101100000621202001F0F8FD102353A206213820EB
:1011100001F05EFE39220621402001F0EDFD3A2269
:101120000621502001F0E8FD27B1012F09D0022F40
:1011300019D112E003F020FA4E2814D0804601277E
:1011400011E003F019FA4E280DD040450BD10227CB
:101150000DF80600761CF6B205E003F00DFA4E28F5
:1011600001D1002780463AA16846FFF789FA80B985
:10117000032E0ED037A16846FFF782FA28B3002667
:10118000102336A204212820CDF800A001F020FE73
:1011900084E06846FFF760FA81B2012001F064FF45
:1011A000010073D0002415A0FFF79AF8102325A2A0
:1011B0000421282001F00CFE33220421382001F004
:1011C0009BFD3422042148204CE060E00080424234
:1011D000C7EBB0B4D6B8CEC60D0A0000D6B8CEC69E
:1011E000D5FDB3A30D0A0000C7EBD4D9B0B4D2BB70
:1011F000B4CED6B8CEC60D0A000000006572726F7C
:10120000723A25640D0A0000B6D4B1C8C1BDB4CE8F
:10121000D6B8CEC60D0A0000C9FAB3C9D6B8CEC634
:10122000C4A3B0E50D0A0000CAE4C8EBD6B8CEC628
:1012300049440D0A00000000B0B4272327B1A3B42D
:10124000E60D0A0049440000302D3E0032393900D5
:10125000230000002A00000044000000202020207D
:101260002020000001F048FD4FF47A7002F096FF54
:101270004FF4167002F092FF052D7FF4A4AD52A03A
:10128000FFF72EF801F054FCBDE8F88F0DE0AFF247
:1012900038016846FFF7F4F90028F5D110236A46B3
:1012A0000421282001F094FD3EE74CA0FFF718F838
:1012B00001F03EFC00210B22084601F01DFD0C222E
:1012C0000021102001F018FD02220021202001F051
:1012D00013FD03220021302001F00EFD0722002122
:1012E000402001F009FD08220021502001F004FDFA
:1012F0003E4801F0E3FE3D4C3DA0A41E6188FEF790
:10130000EFFF3F4D61882888411A3EA0FEF7E8FFB5
:1013100045220221002001F0EFFC4622022110208C
:1013200001F0EAFC02221146202001F0E5FC032234
:101330000221302001F0E0FC47220221402001F090
:10134000DBFC48220221502001F0D6FCCDF800A0A1
:10135000628830A16846FEF7CFFF10236A4602215B
:10136000642001F035FD45220421002001F0C4FC79
:1013700046220421102001F0BFFC49220421202034
:1013800001F0BAFC4A220421302001F0B5FC4B22C6
:101390000421402001F0B0FC4C220421502001F037
:1013A000ABFC28886188421A1AA16846FEF7A4FFA0
:1013B00010236A460421642001F00AFD40F2DC504B
:1013C00002F0ECFE5EE70000B3ACB9FD35B4CEC36D
:1013D000BBD3D0B0B4CAD6D6B80D0A00C2BCC8EBD5
:1013E000D6B8CEC6B3C9B9A60D0A000002000020C7
:1013F000D2D1C2BCC8EBD6B8CEC625640D0A000057
:101400004C1A0020CAA3D3E0D6B8CEC6CAFD2564C4
:101410000D0A0000256400002DE9FC410024274648
:10142000009425462646019401F082FB5A220021B1
:10143000102001F061FC57220021202001F05CFC0B
:1014400005220021302001F057FC06220021402017
:1014500001F052FC2D220021502001F04DFC2E22E3
:101460000021602001F048FC10234DA20221082039
:1014700001F0AEFC59220221102001F03DFC2F2288
:101480000221202001F038FC102346A2022138203E
:1014900001F09EFC39220221402001F02DFC3A226D
:1014A0000221502001F028FCE84625B1012D09D089
:1014B000022D19D112E003F05FF84E2814D0064631
:1014C000012511E003F058F84E280DD0B0420BD1A1
:1014D000022508F80400641CE4B205E003F04CF8AF
:1014E0004E2801D100254E2610236A4604212820CB
:1014F00001F06EFC042C0ED029A16846FFF7C0F85D
:10150000F0B300240097102327A20421282001977C
:1015100001F05EFCC9E7032002F03CFF8DF8047087
:10152000052269462248FFF725F90522204921486E
:1015300002F002FD1E491F480522491D401D02F010
:10154000FBFC5A220621102001F0D6FB572206216F
:10155000202001F0D1FB2D220621302001F0CCFB10
:101560002E220621402001F0C7FB07220621502031
:1015700001F0C2FB08220621602001F0BDFB00E063
:1015800004E04FF47A7002F009FE05E005A1684618
:10159000FFF776F8002888D001F0CAFABDE8FC8190
:1015A0002A0000004400000020202020202000000D
:1015B0001000002000C0000810B550B101280BD069
:1015C00002280CD003280DD004280ED005280FD0F7
:1015D00010E000F09BFE0DE0FFF7ECFB0AE000F0EE
:1015E00099FA07E0FFF718FF04E0FFF7E9FA01E0D6
:1015F00000F0D6F8022010BD10B5142002F0DEF87D
:10160000800705D10321BDE81040142002F0B2B9D3
:1016100010BD00001CB50121202001F093FD4FF406
:101620008070009001208DF8040000248DF80640A1
:1016300003218DF805108DF807006946034800F076
:10164000A4FD0348C0F8A0421CBD000000140240E5
:10165000008042422DE9F0410E460746154604211E
:10166000052000F04FF880210A2002F083F90021C4
:10167000012002F0E9FC002405E0395D092002F0B8
:10168000E3FC641CA4B2B442F7D30321012002F0AE
:10169000DBFC4FF47A74052002F090F8641E2404F9
:1016A000240C01D04007F6D5222002F087F82870DC
:1016B000212002F083F86870BDE8F041002101208C
:1016C00002F0C2BCFEB5064600240D4D11E004EB4D
:1016D000440000EBC40028440B22694602F064F881
:1016E00069463046FEF7CCFF08B10120FEBD641C00
:1016F000A4B200F013F8A042E9D80020FEBD00001B
:101700000000020870B50C46054602F057F820EAC2
:1017100004012846BDE8704002F096BCFEB50025E5
:101720000B4E2C4605EB450000EBC50000940194E0
:1017300030440B226946029402F036F805A168464F
:10174000FEF79EFF10B16D1CADB2EBE72846FEBD63
:10175000000002082300000000200949094A4860EF
:10176000106806E04868401C486000EBC00052F872
:101770002000401CF6D1496803A0FEF7B1BD00006F
:101780000000002000000408B5B1C7B0BCC7C2BC4F
:10179000C1CB2578B8F6CAFDBEDD0D0A00000000F9
:1017A0002DE9F04393B0142108A8FEF7BCFF1421E3
:1017B0000DA8FEF7B8FF0024FFF7B0FF002506468E
:1017C0004FF001092F4601F0B3F9002E7DD06022C1
:1017D0000021102001F090FA61220021202001F068
:1017E0008BFA0D220021302001F086FA0E22002112
:1017F000402001F081FA58220021502001F07CFAAB
:1018000010239FA20021602001F0E2FADFF8748229
:10181000142108A8FEF787FF14210DA8FEF783FF07
:10182000102399A20221002001F0D2FA52220221B3
:10183000082001F061FA53220221182001F05CFA1D
:10184000102392A20221282001F0C2FA5422022180
:10185000382001F051FA55220221482001F04CFABB
:1018600010238BA20221582001F0B2FA3922022162
:10187000602001F041FA3A220221702001F03CFA86
:1018800004EB440000EBC40101EB08000B2208A9A3
:1018900001F08AFF9DF826000DF1100C9DF829300B
:1018A0009DF828209DF827108CE80F009DF8220055
:1018B0009DF825309DF824209DF823108DE80F0019
:1018C0009DF821309DF8202000E00FE071A10DA8C7
:1018D000FEF712FD10230DAA0521082001F078FA69
:1018E00035B3012D2BD0022D52D14BE03B220021EC
:1018F000102001F001FA3C220021202001F0FCF927
:101900003D220021302001F0F7F93E220021402045
:1019100001F0F2F958220021502001F0EDF91023D6
:1019200057A20021602001F053FA4FF47A70A3E02F
:1019300002F022FE4E282BD00746012528E002F0B7
:101940001BFE4E2824D0B84222D10225422806D0C0
:1019500043280AD0442810D041281DD018E00CB1EB
:10196000641E06E0701E84B212E0701E844202D033
:10197000641CA4B20CE000240AE001F0D9F813B012
:10198000BDE8F08302F0F8FD4E2801D100254E2776
:10199000B9F1000F7FF43CAF45A0FEF7A1FC042095
:1019A00002F0F8FC46A0FEF79BFC0025DFF8209132
:1019B0001DE0AC4219D00B2108A8FEF7B4FE05EBE0
:1019C000450000EBC50707EB08000B2208A901F052
:1019D000EBFEA54202D207EB090002E03C480B38BF
:1019E00038440B2208A902F0A7FA6D1CADB2B5422B
:1019F000DFD338A0FEF774FC052002F0CBFC39A041
:101A0000FEF76EFC00244D46761E14E00B2108A85C
:101A1000FEF789FE04EB440000EBC40778190B22A3
:101A200008A901F0C1FE07EB08000B2208A902F08B
:101A300083FA641CA4B2B442E8DB2EA0FEF750FC8B
:101A4000102330A20521082001F0C2F90D22052142
:101A5000202001F051F90E220521302001F04CF92F
:101A600007220521402001F047F9082205215020D6
:101A700001F042F94FF4FA6002F090FB7DE70000BC
:101A800049440000000002084100000042430000F9
:101A9000440000002563256320256325632025631A
:101AA000256320256325632025632563000000004E
:101AB000D5FDD4DAB2C1B3FDC9C8C7F8340D0A00E8
:101AC000B2C1B3FDC9C8C7F834CDEAB3C90D0A0025
:101AD00000000108D5FDD4DAB2C1B3FDC9C8C7F80A
:101AE000350D0A00B2C1B3FDC9C8C7F835CDEAB398
:101AF000C90D0A00C9BEB3FDBFA8B3C9B9A60D0A76
:101B00000000000020202020202020202020202055
:101B100020202000F8B50024254626465FA000942A
:101B2000FEF7DEFB60A0FEF7DBFB66A0FEF7D8FB4E
:101B3000322002F033FB00F0FBFF00210D220846AB
:101B400001F0DAF80E220021102001F0D5F802226F
:101B50000021202001F0D0F803220021302001F0E4
:101B6000CBF810235BA20021482001F031F90E23AD
:101B700059A20021602001F02BF90E2357A2012168
:101B8000602001F025F9112202211B2001F0B4F898
:101B9000102353A20221312001F01AF9522202210E
:101BA0003F2001F0A9F853220221512001F0A4F8AE
:101BB00025B1012D09D0022D19D112E002F0DCFC73
:101BC0004E2814D00646012511E002F0D5FC4E281F
:101BD0000DD0B0420BD102250DF80400641CA4B254
:101BE00005E002F0C9FC4E2801D100254E263CA19B
:101BF0006846FEF745FD40B9032C06D010236A461F
:101C00000421282001F0E4F8D2E76846FEF724FD1D
:101C100080B2A0F54071E73934D0012135E031A020
:101C2000FEF75EFB0D2202211B2001F065F80E225B
:101C300002212D2001F060F8072202213F2001F04F
:101C40005BF8082213E021462AA0FEF749FB0D228B
:101C500002211B2001F050F80E2202212D2001F05C
:101C60004BF8092202213F2001F046F80A22022106
:101C7000512001F041F84FF47A7002F08FFA00F031
:101C800045FBF8BD40F22B11002001F0C2F80446DC
:101C900000F04EFF002CD6D1C1E700000AC9BEB348
:101CA000FDD6B8CEC60D0A00C7EBCAE4C8EBD6B85D
:101CB000CEC64944B0B4456E746572B7A2CBCD0DA3
:101CC0000A000000303D3C204944203C3D32393977
:101CD0000D0A000049440000302D3E003239390021
:101CE00023000000C9BEB3FDD6B8CEC6B3C9B9A69D
:101CF0000D0A0000C9BEB3FDD6B8CEC6CAA7B0DC77
:101D000025640D0A0000000010B5202000F01CF82A
:101D100000280ED00748D0F81412074809B1002156
:101D200000E00121C0F8A412BDE81040202000F01E
:101D300005B810BD000042420080424201490860DF
:101D400070470000143C0140034A0146002012681D
:101D50000A4200D001207047143C014030B51A4AB5
:101D60008379016853B313688B431360111D0B68AB
:101D70000468A3430B60017911440B680468234392
:101D80000B60114B083319680468A14319601C1DCE
:101D900021680568A94321604179102905D01144C3
:101DA0000A68006802430A6030BD1968026811437E
:101DB0001960216800680143216030BD007910443A
:101DC00002688A43026030BD003C014021283CD2B9
:101DD000DFE800F011131517191B1D1F21232527FC
:101DE0003B3B3B3B27293B3B3B2B3B3B2D2F3133A5
:101DF000353B3B37390016A0704716A0704719A035
:101E000070471DA0704721A0704728A070472FA0E1
:101E1000704735A0704742A0704744A0704747A064
:101E200070474AA070474DA0704750A0704758A017
:101E300070475BA070475DA0704760A0704764A0CA
:101E4000704768A070476AA070476CA07047000098
:101E50004F4B0000CAFDBEDDB0FCBDD3CAD5B4ED0A
:101E6000CEF30000B4ABB8D0C6F7C9CFC3BBD3D054
:101E7000CAD6D6B800000000C2BCC8EBD6B8CEC6E1
:101E8000CDBCCFF1CAA7B0DC00000000D6B8CEC6EA
:101E9000CDBCCFF1CCABB8C9A1A2CCABB5ADB6F837
:101EA000C9FAB2BBB3C9CCD8D5F70000D6B8CEC6F4
:101EB000CDBCCFF1CCABCAAAA1A2CCABBAFDB6F8CF
:101EC000C9FAB2BBB3C9CCD8D5F70000D6B8CEC6D4
:101ED000CDBCCFF1CCABC2D2B6F8C9FAB2BBB3C954
:101EE000CCD8D5F700000000D6B8CEC6CDBCCFF117
:101EF000D5FDB3A3A3ACB5ABCCD8D5F7B5E3CCAB8C
:101F0000C9D9A3A8BBF2C3E6BBFDCCABD0A1A3A9A2
:101F1000B6F8C9FAB2BBB3C9CCD8D5F700000000F7
:101F2000D6B8CEC6B2BBC6A5C5E40000C3BBCBD1F4
:101F3000CBF7B5BDD6B8CEC600000000CCD8D5F7DB
:101F4000BACFB2A2CAA7B0DC00000000C9BEB3FD80
:101F5000C4A3B0E5CAA7B0DC00000000C7E5BFD548
:101F6000D6B8CEC6BFE2CAA7B0DC0000BBBAB3E5A4
:101F7000C7F8C4DAC3BBD3D0D3D0D0A7D4ADCABCC2
:101F8000CDBCB6F8C9FAB2BBB3C9CDBCCFF1000025
:101F9000B6C1D0B420464C41534820B3F6B4ED004E
:101FA000CEB4B6A8D2E5B4EDCEF30000CEDED0A715
:101FB000BCC4B4E6C6F7BAC500000000BCC4B4E6B1
:101FC000C6F7C9E8B6A8C4DAC8DDB4EDCEF30000A0
:101FD000BCC7CAC2B1BED2B3C2EBD6B8B6A8B4EDC4
:101FE000CEF30000D6B8CEC6BFE2C2FA00000000B1
:101FF000B5D8D6B7B4EDCEF300000000C4A3BFE956
:10200000B7B5BBD8C8B7C8CFC2EBD3D0CEF30000AA
:1020100001490860704700000C3C024070B506465C
:10202000002529B1012927D0022928D04FF4407575
:1020300000F09CF809281ED1124C206820F4407052
:102040002060206828432060206820F0F80020608D
:10205000206846F0020108432060206840F4803088
:10206000206000F083F8216821F0020121602168DE
:1020700021F0F801216070BD4FF48075D8E74FF46E
:102080000075D5E7103C02400D4909200A68D203CB
:1020900001D5012070470A68D20601D50620704795
:1020A0000A68D20501D5022070470A6812F0EF0FC6
:1020B00001D00720704709688907FBD508207047C1
:1020C0000C3C02400248016841F000410160704749
:1020D000103C024070B50D46064600F047F809284E
:1020E00011D1094C206820F44070206020682060E5
:1020F000206840F001002060357000F037F821685A
:1021000021F00101216070BD103C024070B50D4608
:10211000064600F02BF8092813D10A4C206820F459
:1021200040702060206840F400702060206840F01B
:1021300001002060356000F019F8216821F00101EC
:10214000216070BD103C024005480068002805DA97
:10215000034804490C3801600349016070470000DE
:10216000103C024023016745AB89EFCD08B509203B
:102170008DF80000FFF788FF8DF800009DF8000043
:102180000128F7D09DF8000008BDF0B50022012716
:102190004FF0030C0B6807FA02F52B40AB422CD131
:1021A000066853000CFA03F4A64306600E79D0F8D3
:1021B00000E09E4046EA0E0606600E79012E01D030
:1021C000022E12D18668A64386604E79D0F808E0C8
:1021D0009E4046EA0E0686604668AE434660456805
:1021E0008E799640B6B235434560C568A543C56053
:1021F000CC799C40C3681C43C460521C102AC9D3CC
:10220000F0BD4B07DB0E9A40C90810B500EB81000A
:10221000016A0F249C40A1430162016A11430162DB
:1022200010BD0183704700007CB50446EF208DF897
:10223000000001208DF801001448154E0068010EC1
:102240008DF80210010C8DF80310010A8DF80410AE
:102250008DF8050007208DF8060000258DF8075041
:1022600035800CE0012001F099FF3088000406D58C
:10227000358069460748FEF703FA002804D1641E3A
:102280002404240CEED100207CBD0000800000203E
:10229000081A0020081C00202DE9FC4701213020ED
:1022A00000F050FF01248DF8044000268DF80660F0
:1022B0000327DFF850904FF4C0658DF80570009546
:1022C0008DF8074069464846FFF75FFF8DF80440E8
:1022D0008DF806608DF805708DF807400A4C4FF4B4
:1022E0000058CDF8008069462046FFF74EFF29468A
:1022F0004846FFF796FF41462046FFF792FFBDE8AC
:10230000FC8700000014024000100240F8B50025D0
:10231000009500F00DFC364800F0D0FE344C35A09E
:10232000A41E6188FDF7DCFF364E61883088411AB3
:1023300035A0FDF7D5FF45220221002000F0DCFC8E
:1023400046220221102000F0D7FC02221146202054
:1023500000F0D2FC03220221302000F0CDFC472205
:102360000221402000F0C8FC48220221502000F049
:10237000C3FC0095628828A16846FDF7BDFF1023C5
:102380006A460221642000F023FD4522042100203A
:1023900000F0B2FC46220421102000F0ADFC4922DE
:1023A0000421202000F0A8FC4A220421302000F063
:1023B000A3FC4B220421402000F09EFC4C2204216F
:1023C000502000F099FC30886188421A12A16846BA
:1023D000FDF792FF10236A460421642000F0F8FC08
:1023E00040F6B83001F0DAFE00F0A2FBF8BD0000C4
:1023F00002000020D2D1C2BCC8EBD6B8CEC625643C
:102400000D0A00004C1A0020CAA3D3E0D6B8CEC6ED
:10241000CAFD25640D0A0000256400002DE9F04185
:10242000064623A0FDF75CFF0025224F37E005EBB1
:10243000C50007EB800421681FA0FDF751FF60680D
:10244000012806D0022806D0032806D0042806D08A
:1024500008E01BA004E01EA002E021A000E024A0F0
:10246000FDF73EFFA16826A0FDF73AFFE16827A02F
:10247000FDF736FF216927A0FDF732FF616927A02C
:10248000FDF72EFFA16928A0FDF72AFFE16926A02C
:10249000FDF726FF216A26A0FDF722FF6D1CB5423D
:1024A000C5D33146BDE8F04123A0FDF719BF0000B8
:1024B0000A000000000004085B253034645D0D0054
:1024C000205BD6B8CEC6BDE2CBF85D200D00000083
:1024D000205BC3DCC2EBBDE2CBF85D200D00000049
:1024E000205B2052464944BFA8205D200D0000001B
:1024F000205BC0B6D1C0BDE2CBF85D200D0000006E
:102500003230253032782F0D00000000253032782F
:102510002F0D000025303278200D00005765656BC7
:10252000202578200D000000253032783A0D00007B
:1025300025303278200D0A000AB9B22564B8F6BDFC
:10254000E2CBF8BCC7C2BCB6C1C8A1CDEAB1CF0DC1
:102550000A0A00007CB50546082100240846FFF75A
:10256000D1F880210E20FFF7CDF800210D2001F0D9
:102570006BFD932028702020687001A82B460090E6
:10258000022219460C2000F0C8F906000AD10022E8
:10259000A85C521C4440D2B2042AF9D3A85CA042E1
:1025A00000D0022680210E2001F0E4F930467CBDE7
:1025B00030B585B08DF804008DF80510002001A914
:1025C000145C0D18401CC0B2AC700628F8D3002073
:1025D0000C181A5C401CC0B222720428F8D304A85C
:1025E00000900B460C220E2000F097F9040004D155
:1025F000082001F0E3F8000700D4022405B02046CB
:1026000030BD000070B596B014210AA8FEF78BF813
:1026100042A00FACD0E90010CDE9131041A00FC8C3
:1026200084E80F0000F0D2F815A9522000F00CF950
:10263000002871D1002505950695079503A80895F2
:10264000FFF788FF03A800F033F9044603AB13AA91
:1026500004216020FFF7ACFF0FA9042000F0EAF985
:1026600005A9042000F0D7F806469DF855209DF8EE
:10267000541030A0FDF734FE9DF810109DF80F00A7
:10268000CDE900019DF80E309DF80D209DF80C104D
:102690002FA0FDF725FE214638A0FDF721FE31468B
:1026A0003CA0FDF71DFE3EA0FDF71AFE002405AE7E
:1026B0003DA0315DFDF714FE641CE4B2102CF7D38D
:1026C0003AA0FDF70DFE9DF80E009DF810209DF834
:1026D0000F108DE807009DF80D309DF80C2034A1F7
:1026E0000AA8FDF709FE0AA8FEF7ECFF10B10120C9
:1026F00016B070BD344C0126C4F8A062322004F537
:10270000287401F04BFD2560322001F047FD266062
:10271000322001F043FD25600020E9E7FFFFFFFFC5
:10272000FFFF0000000102030405060708090A0B69
:102730000C0D0E0F636172645F707964656275667B
:102740003A253032582025303258200D0A0000003A
:10275000636172645F6E756D6265726275663A255B
:10276000303258202530325820253032582025303C
:1027700032582025303258200D0A000063617264FF
:102780005F73697A653A2564204B626974730D0A38
:10279000000000007374617475733D25640D0A00B8
:1027A000726561643A000000256420000D0A0A0089
:1027B000253032782530327825303278253032781D
:1027C00025303278230000000080424210B501F02D
:1027D0003DF800F051F88D212A2001F035FC3E2112
:1027E0002B2001F031FC32212D2001F02DFC0021A5
:1027F0002C2001F029FC4021152001F025FC3D2171
:10280000112001F021FC0021012001F01DFCBDE898
:102810001040FEF7F1BE1CB50C46302121706070EF
:10282000A21C02212046FEF715FF01A823460090B6
:10283000042219460C2000F070F818B9BDF80410F5
:10284000902900D002201CBD7CB50C46054607210E
:102850000D2001F0F9FB257001A82346009001220C
:1028600019460C2000F059F818B9BDF804101029C9
:1028700000D002207CBD000070B50C4C0125C4F8CE
:10288000AC52284604F52B7401F09FFC0020206018
:10289000012001F09AFC2560012001F096FCBDE8C2
:1028A00070400F21012001F0CFBB00000000414229
:1028B00010B586B093218DF8041070218DF80510A5
:1028C00000218DF80A1001AA5418435CA370445CDF
:1028D0009DF80A30491C6340C9B28DF80A300429BA
:1028E000F2D3072101A8D21DFEF7B4FE0821084645
:1028F000FEF708FF04A801AB0090092219460C203E
:1029000000F00BF818B9BDF81000182802D000200C
:1029100006B010BD9DF80400FAE72DE9FF5F002521
:10292000DDF838B017468A4680464FF002092E4639
:102930000C2805D0B8F10E0F04D11225102601E0A5
:102940007725302645F08001022001F07DFB8021B3
:102950000420FEF7D7FE80210A2001F00BF80021A9
:10296000012001F071FB002406E01AF80410092090
:1029700001F06AFB641CA4B2BC42F6D341460120BC
:1029800001F062FBB8F10C0F03D180210D2000F0A3
:10299000F1FF42F21074042000F010FF641E2404C2
:1029A0000746240C03D0F80701D13742F3D0802129
:1029B0000D20FEF7A7FE8CB3062000F0FFFE10F0FE
:1029C0001B0F01D0022028E0B8F10C0F24D10A20FF
:1029D00000F0F4FE05460C2000F0F0FE10F00700B9
:1029E0004FEAC50104D008390844ABF8000001E003
:1029F000ABF8001025B1122D00D91225002409E0F2
:102A00000125FBE7092000F0D9FE01460398015596
:102A1000641CA4B2AC42F5D30020814680210C2076
:102A200001F012FB0021012001F00EFB04B048462A
:102A3000BDE8F09F70B588B00C46A0218DF8041059
:102A400001AD8DF8050002212846AA1CFEF702FE02
:102A500006AE01AB042219460C200096FFF75DFF7D
:102A600038BBBDF81800042823D19DF8040000F0FD
:102A70000F000A281DD10020215C2954401CC0B23F
:102A80001028F9D305AA102101A8FEF7E3FD01AB38
:102A9000122219460C200096FFF73FFF48B9BDF8F7
:102AA0001810042905D19DF8041001F00F010A291E
:102AB00000D0022008B070BD03490A885206FCD538
:102AC0000149091D088070470044004030B50F23BC
:102AD000C27801780125FAB1144A126801F1E021A7
:102AE00002F4E062C2F5E062C2F30722C2F104041C
:102AF000D3404278A24084781C401443220181F8DC
:102B00000024007800F01F018D404009800000F192
:102B1000E020C0F8005130BD01F01F008540480999
:102B2000800000F1E020C0F8805130BD0CED00E0E5
:102B300070B50025002105F1B00000F064F9002116
:102B4000084600F060F90021102000F05CF9002434
:102B50000121002000F057F9641CE4B2802CF7D367
:102B60006D1CEDB2082DE5D370BD2DE9F0471F4671
:102B700090460E4682460025DDF8209011E0314651
:102B8000504600F0A3F8544607E019F8050001216B
:102B90006D1C00F038F9641CE4B24445F5D3761C92
:102BA000F6B2BE42EBD3BDE8F087000010B50121BC
:102BB000022000F0C7FA42484FF44071012401603E
:102BC00004710321417100218171C17101463D48A9
:102BD000FFF7DBFA3C48C0F8A442C0F8A042C82086
:102BE00001F0DCFA0021AE2000F00DF900210846CA
:102BF00000F009F90021102000F005F90021402023
:102C000000F001F90021B02000F0FDF80021812042
:102C100000F0F9F80021FF2000F0F5F80021A120D4
:102C200000F0F1F80021A62000F0EDF80021A82026
:102C300000F0E9F800213F2000F0E5F80021C8206D
:102C400000F0E1F80021D32000F0DDF80021084673
:102C500000F0D9F80021D52000F0D5F8002180201F
:102C600000F0D1F80021D82000F0CDF80021052097
:102C700000F0C9F80021D92000F0C5F80021F120AA
:102C800000F0C1F80021DA2000F0BDF80021122088
:102C900000F0B9F80021DB2000F0B5F80021302069
:102CA00000F0B1F800218D2000F0ADF800211420D3
:102CB00000F0A9F80021BDE81040AF2000F0A3B853
:102CC00094000020000402400080404210B50A46F3
:102CD0000446002102F1B00000F095F8102040EA0F
:102CE0001410002100F08FF804F00F00BDE8104030
:102CF000002100F088B800002DE9F04115460E468D
:102D00000746FFF7E3FF0F48002400EB851501217C
:102D1000285D00F078F8641CE4B2102CF7D3761C20
:102D2000F1B23846FFF7D2FF00242819012190F8AC
:102D3000200000F068F8641CE4B2102CF5D3BDE864
:102D4000F08100009C0000202DE9F041203A002491
:102D50000F468046D5B27F2803D900208F1C8046BD
:102D6000FFB2102B394610D0FFF7B0FF164905EB24
:102D7000450001EB40050121285D00F044F8641C8A
:102D8000E4B2062CF7D3BDE8F081FFF79FFF0F4EAA
:102D900004EB05100121305C00F035F8641CE4B24E
:102DA000082CF5D37F1CF9B24046FFF78FFF0024B3
:102DB00004EB051030440121007A00F024F8641C73
:102DC000E4B2082CF4D3DEE7325900085A5B00085D
:102DD0002DE9F041984617460E46044600250DE0C1
:102DE000434631462046FFF7AFFF0834E4B2782C63
:102DF00002D90024B61CF6B26D1CEDB27A5D002A31
:102E0000EED1BDE8F081C0B209B101F006B901F020
:102E1000EDB870B50C46054600F098FD00F074FD65
:102E20000120FFF749FE072000F099FD0C20FFF775
:102E300043FE2E0A3046FFF73FFEE8B2FFF73CFEA6
:102E4000200AFFF739FEE0B2FFF736FE56FA85F0AA
:102E500000EB1420E1B20844143000F06DFD4FF493
:102E6000FA60FFF7E1F908B1407A70BDFF2070BD4C
:102E700010B5044600F06AFD00F046FD0120FFF7A2
:102E80001BFE042000F06BFD0220FFF715FE20461C
:102E9000FFF712FEE01D00F04FFD4FF4FA60FFF760
:102EA000C3F908B1407A10BDFF2010BD10B500F085
:102EB0004DFD00F029FD0120FFF7FEFD032000F08D
:102EC0004EFD0120FFF7F8FD052000F035FD4FF421
:102ED000FA60FFF7A9F908B1407A10BDFF2010BDD4
:102EE00070B5044600F032FD00F00EFD0120FFF742
:102EF000E3FD0020FFF7E0FD0020FFF7DDFDC82027
:102F000001F04CF90F4A108800040BD50E4900203F
:102F10000B78EF2B05D14B78012B02D18B79072B46
:102F200002D01080012070BD4B798D7803EB0563D2
:102F3000CD7809792D0405EB012119442160108019
:102F4000002070BD081A0020081C00202DE9F04167
:102F50001E4614460D46074600F0F8FC00F0D4FC6F
:102F60000120FFF7A9FD082000F0F9FC1B20FFF766
:102F7000A3FD3846FFF7A0FD280AFFF79DFDE8B244
:102F8000FFF79AFD200AFFF797FDE0B2FFF794FDE7
:102F900007EB1520E9B2084400EB1420E1B2084425
:102FA000243000F0C9FC4FF4FA60FFF73DF958B146
:102FB000C27A837A417A02EB03223280427B007B21
:102FC00002EB0020708000E0FF210846BDE8F081A0
:102FD00010B500F0BBFC00F097FC0120FFF76CFD82
:102FE000032000F0BCFC0320FFF766FD072000F083
:102FF000A3FC4FF4FA60FFF717F908B1407A10BD4F
:10300000FF2010BD10B500F0A1FC00F07DFC0120F8
:10301000FFF752FD032000F0A2FC0520FFF74CFD56
:10302000092000F089FC4FF4FA60FFF7FDF808B1C1
:10303000407A10BDFF2010BD1CB50121084600F0EC
:1030400081F84020009000208DF8040002208DF8C7
:10305000070003208DF8050069460248FFF795F840
:103060001CBD00000000024070B50C46054600F093
:103070006DFC00F049FC0120FFF71EFD062000F06A
:103080006EFC0620FFF718FD2846FFF715FD200A05
:10309000FFF712FDE0B2FFF70FFD05EB1420E1B2E0
:1030A00008440D3000F048FC4FF4FA60FFF7BCF81C
:1030B00008B1407A70BDFF2070BD000070B50546B4
:1030C00000F044FC00F020FC0120FFF7F5FC032099
:1030D00000F045FC1D20FFF7EFFC212000F02CFC48
:1030E0004FF4FA60FFF7A0F838B1C17A827A447AD7
:1030F00001EB0221298054B100E0FF242046FEF7B5
:1031000065FE014605A0FDF7EBF8204670BDC17ACB
:10311000807A01EB002103A0F5E700000D0A25737A
:10312000000000000D0AD3D0D0A7D6B8CEC6B8F69E
:10313000CAFD3D2564000000014908627047000097
:1031400000000E42044A0029116801D0014300E04A
:10315000814311607047000030380240044A002962
:10316000116801D0014300E0814311607047000005
:1031700040380240044A0029116801D0014300E0B0
:10318000814311607047000020380240044A002942
:10319000116801D0014300E08143116070470000D5
:1031A00044380240044A0029116801D0014300E07C
:1031B00081431160704700002438024070B5204BF5
:1031C0001968204C11F00C0104D06610042903D0BA
:1031D000082903D004601BE0066019E0184A121F9A
:1031E0001168C1F38055116801F03F0115B1B6FBBC
:1031F000F1F101E0B4FBF1F114681268C4F3881432
:103200006143C2F30142521C5200B1FBF2F1016072
:1032100019680F2202EA11110B4A545C0168E1405F
:1032200041601C68072505EA9424145D21FA04F422
:1032300084601B6805EA5333D25CD140C16070BD25
:10324000083802400024F400381A0020024600200A
:10325000510901290BD002290CD00849096802F054
:103260001F02012393400B4200D001207047034905
:103270007439F3E70149091FF0E700007438024090
:10328000054900220A700A70012802D0042801D1E1
:10329000052008707047000070380240014908603E
:1032A000704700003C0E4742C0F30121032907D1BB
:1032B000074B1968074A21F4F81102400A431A60C3
:1032C000034968310A68C0F30B0002430A60704783
:1032D00008380240FFFCFF0F10B54FF48074204601
:1032E00000F08EF8012804D105490860204600F05E
:1032F0001FF8BDE810404FF40030FEF71FBD00007E
:10330000DC190020010901EB810100F00F0000EB46
:103310004100C0B27047002103E0491C0A38C9B21D
:10332000C0B20A28F9D2090740EA116070470000CC
:1033300080B240F08000C1430348026802F080027E
:1033400011430160704700000C280040C0F30F10CB
:1033500040F08000C1430348026802F0800211433C
:10336000016070470C28004008B50D49002000900E
:103370000868400612D44FF0FF3008608B130868CD
:10338000009A00F04000521C00929A4201D000289E
:10339000F5D00868400601D4002008BD012008BD12
:1033A0000C2800400248016821F08001016070474C
:1033B0000C280040020010B50F480C4601680F4869
:1033C00001EA00014FEA1140E070C1F30423637089
:1033D00001F03F03A370C1F3423121700AD1FFF71E
:1033E00091FFE0706078FFF78DFF6070A078FFF7C5
:1033F00089FFA07010BD0000042800403FFFFF00BF
:103400000449024600200968034B1940114200D0CC
:10341000012070470C2800407F3F01000B4A00212B
:10342000126802F00403094A383A126803EAD033FA
:1034300002401A43064B1B6803EA101003D0000435
:10344000000C00D0012108467047000040280040D1
:103450000C280040020010B510480C4601681048C6
:1034600001EA0001C1F305402070C1F30623637037
:1034700001F07F03A3704FF0400303EA1141E170B4
:103480000AD1FFF73FFF20706078FFF73BFF6070C5
:10349000A078FFF737FFA07010BD000000280040A3
:1034A0007F7F7F0030B50E4DCA222A6053222A60EA
:1034B0000B4C0B4B1C3C1C33002920F004022168F0
:1034C00000F0040004D0114321601968014303E0B7
:1034D00091432160196881431960FF20286030BD45
:1034E0002428004070B5124D04460026CA202860EA
:1034F00053202860FFF738FFA8B10D481C38016839
:1035000021F0400101600168226811430160084810
:10351000A168143801600168A28841EA0241016093
:10352000FFF740FF0126FF202860304670BD0000F5
:103530002428004008B5034901EB80000090006892
:1035400008BD00005028004070B50C460026010060
:1035500060780FD0FFF7D6FEA078FFF7D3FEA078F3
:10356000E17840EA014560782178000240EA413084
:10357000054315E0C10603D520F010000A30607045
:10358000E078FFF7C8FE05046078FFF7C4FE45EA5F
:103590000025A078FFF7BFFE0543207845EA4035B7
:1035A0000D4CCA20206053202060FFF7DDFE78B16B
:1035B0000A480540084820380560FFF7F3FE064832
:1035C0001C380068800602D400F07EF800B10126A5
:1035D000FF202060304670BD242800403FFFFF00E0
:1035E0002DE9F0410C460026234F01002078396870
:1035F00032464FEA416104D0002930DAFFF782FEFB
:103600002EE0002900DBE270FFF785FE05046078FC
:10361000FFF781FE45EA0025A078FFF77CFE054311
:10362000E07845EA0045144CCA201C342060532041
:103630002060FFF799FE68B1104805400E48083831
:103640000560FFF7AFFE3868800602D400F03CF852
:1036500000B10126FF2020603046BDE8F081E27015
:10366000A078217840EA01456078E178000240EADC
:1036700001400543D7E70000082800407F7F7F0016
:103680000549CA220A6053220A60034A103A1060B0
:10369000FF200860704700002428004010B54FF458
:1036A00080442046FFF7BAFE00280AD005490120D1
:1036B00048602046FFF74AFE2002BDE81040FEF7B2
:1036C0003DBB10BDDC19002018B50020104B009048
:1036D000CA201860532018600D491839086820F076
:1036E000A00008604FF400340868009A00F0200041
:1036F000521C0092A24201D00028F5D00868800632
:1037000001D5012000E00020FF21196018BD000054
:1037100024280040084ACA2111605321116006493B
:103720001C390B6823F007030B600B6803430B6025
:10373000FF201060704700002428004018B50021C9
:10374000134B0091CA2119605321196010491C398B
:103750000028086803D040F48060086014E020F47A
:10376000806008600A4918398C130868009A00F0D4
:103770000400521C0092A24201D00028F5D0086833
:10378000400701D4002000E00120FF21196018BD8E
:103790002428004008B5034A02EB80000090016035
:1037A00008BD00005028004010B5002302E0C458B6
:1037B000CC545B1C9342FAD310BD000010B5094CE9
:1037C0000021C4F898127E2101EA400040F08000F8
:1037D00004F5267400F00CF800F006F801212160D1
:1037E00010BD000000804142002000F001B8000040
:1037F0002DE9F05F00250724DFF84890DFF84880C6
:103800008346AA46012606FA04F717EA0B0F02D0F0
:10381000C9F8986201E0C9F898A2C8F89CA20120F2
:1038200000F0D3FCC8F89C62D9F8200208B12F43FD
:10383000FDB2012000F0C9FC641EE4D52846BDE8B5
:10384000F09F000000004142008041422DE9F0411C
:1038500001210420FFF776FC01210820FFF772FC0C
:10386000184C4FF480700025206025710327677184
:10387000DFF85480A571E57121464046FEF785FCCE
:103880004FF404602060012626716771A571E5710F
:1038900021464046FEF779FCC02020602671677102
:1038A000A571E57121460948FEF76FFC0848C0F88C
:1038B0009862C0F89C620748C0F89862C0F8AC6291
:1038C000BDE8F0818C00002000080240000C02409E
:1038D000008041420000414210B58A0721F00304F4
:1038E0000849120F21440F23D1F8084893409C4304
:1038F000C1F80848D1F8083890400343C1F80838A7
:1039000010BD00000030014010B50A4C2068000EC8
:10391000FFF7D2F82068C0F30740FFF7CDF8208802
:10392000C0F30720FFF7C8F82078BDE81040FFF784
:10393000C3B800008000002010B50446000AFFF75D
:10394000BBF8E0B2BDE81040FFF7B6B810B5EF2005
:10395000FFF7B2F8BDE810400120FFF7ADB810B591
:103960000446C0F30720FFF7A7F8E0B2BDE8104017
:10397000FFF7A2B870B50C460546FFF71FFF40EAF7
:1039800004012846BDE8704000F05EBB0CB5002283
:10399000274900920192086840F4803008604FF493
:1039A000A043086800F4003001900098401C00908B
:1039B000019810B900989842F3D10868800334D573
:1039C000012001901A484030026842F080520260A3
:1039D0001848026842F44042026015480830026804
:1039E0000260026842F400420260026842F4A0529F
:1039F0000260031F104A1A600A6842F080720A606F
:103A00000A689201FCD50D4940F205720A6001680E
:103A100021F003010160016841F0020101600168C9
:103A2000C1F381010229FAD10CBD01920CBD000045
:103A3000003802400070004008544007003C02403B
:103A4000124810B5016841F4700101601048016826
:103A500041F0010101600E4A002108321160026844
:103A60000C4B1A400260031D0B4A1A60026822F4D4
:103A70008022026006480C300160FFF787FF03498F
:103A80004FF000608039086010BD000088ED00E054
:103A900000380240FFFFF6FE1030002410B50D4C38
:103AA0000121204600F06DF8012811D10A4908686B
:103AB000401C08604868401C4860886810B1C868AD
:103AC000401CC8602046BDE81040012100F04CB801
:103AD00010BD000000040040F819002010B50B4C88
:103AE0000121204600F04DF800280ED0084801883A
:103AF00041F4004101800121204600F035F82046C4
:103B0000BDE81040002100F032B810BD00140040A4
:103B1000081A00207FB50D46044601212020FFF73A
:103B20001DFB01940020ADF800500E4CADF80800CC
:103B3000ADF802006946204600F03AF8012211462D
:103B4000204600F02AF837208DF80C0001208DF86F
:103B50000D008DF80E008DF80F0003A8FEF7B6FFDC
:103B60007FBD000000140040C94301827047002956
:103B7000018802D041F0010101E021F00101018042
:103B8000704702460020138A92890B4202EA010222
:103B900002D0002A00D001207047002A828901D07B
:103BA0000A4300E08A438281704741627047000007
:103BB00030B50288164C174DA0420DD0A8420BD04C
:103BC000B0F1804F08D0144B984205D0134B984267
:103BD00002D0134B984203D122F070034A881A4353
:103BE000104B984206D0104B984203D022F44073F9
:103BF0000A891A4302804A68C2620A880285A04282
:103C000001D0A84201D1897A01860121818230BD8B
:103C10000000014000040140000400400008004092
:103C2000000C0040001000400014004070B5114C22
:103C300040F225552946204600F0E9F8012817D121
:103C4000204600F071F90D4BC2B20B48596842543E
:103C50005868401C5860232A02D05868802801D92F
:103C60000120187029462046BDE8704000F062B877
:103C700070BD000000100140981D00200C1A0020AB
:103C800070B5134C40F22551204600F0C0F80028D2
:103C90001AD0204600F048F90E4DC4B2288801041D
:103CA00012D4B0F5C87F10D20B4E00213046FFF77A
:103CB0007CFF288818B901213046FFF758FF0749D3
:103CC00028880C54401C288070BD40F40040FAE75E
:103CD00000440040081A002000140040081C002086
:103CE00070B5114C40F225552946204600F08FF85A
:103CF000012817D1204600F017F90D4BC2B20B482E
:103D0000596842545868401C5860232A02D05868A9
:103D1000802801D90120187029462046BDE870404E
:103D200000F008B870BD000000480040181E0020D8
:103D3000181A00200A0A01219140C94301807047E6
:103D40000029818902D041F4005101E021F40051A1
:103D500081817047224910B5884206D10121102087
:103D6000FFF720FA0021102020E01E49884202D1EE
:103D700001214C0429E01C49884202D101218C0414
:103D800023E01A49884202D10121CC041DE01849E0
:103D9000884202D101210C0517E01649884209D159
:103DA00001212020FFF7FEF900212020BDE810406E
:103DB000FFF7F8B91049884202D101218C0704E0CD
:103DC0000E4988420AD1012144052046FFF7D2F965
:103DD0002046BDE810400021FFF7CCB910BD00001F
:103DE000001001400044004000480040004C0040EA
:103DF000005000400014014000780040007C00406A
:103E00000246002012880A4200D00120704770B597
:103E100001F01F0501260024C1F3421306FA05F242
:103E2000012B0FD0022B0FD0838A4FEA112100887B
:103E3000134206FA01F600EA060001D000B101249F
:103E4000204670BD8389F0E7038AEEE710B5C1F321
:103E5000421301F01F040121A140012B07D0022BC6
:103E600007D01430002A026805D00A4304E00C3061
:103E7000F8E71030F6E78A43026010BD7FB50446CC
:103E8000008A0D46C98820F4405001432182A08950
:103E900041F20C618843A9882A8911436A89024347
:103EA0001143A181A08A20F44071A8890843A0820F
:103EB0006846FFF783F91A48844202D019488442C1
:103EC00001D1039800E00298A189090400EBC00128
:103ED00001EB0010296801D5490000E08900B0FB22
:103EE000F1F06422B0FBF2F109010B096FF0180543
:103EF0006B4300EB8300A3891D044FF0320306D50A
:103F000003EBC000B0FBF2F000F0070005E003EBAC
:103F10000010B0FBF2F000F00F00084320817FBDDD
:103F200000100140001401408088C0F30800704771
:103F3000C1F30801818070472DE9F04115460E4616
:103F400007460024FEF700F9F320FEF761F80AE0C7
:103F5000315D3819FEF7BEF8092803D005A0FCF73B
:103F6000BFF9FEE7641CAC42F2D3BDE8F041FEF7B6
:103F7000A9B80000464C4153485F50726F677261A8
:103F80006D576F7264206572726F720D0A000000C7
:103F90002DE9F0418046012001F016FB124E00276A
:103FA000C6F8A072C6F8A472012000F00EF907242A
:103FB000012505FA04F010EA080F02D0C6F8A45251
:103FC00001E0C6F8A472012000F0FFF8C6F8A05284
:103FD000012000F0FAF8C6F8A072012000F0F5F810
:103FE000641EE6D5BDE8F0810080404210B504466D
:103FF00000F07EFB7820FFF7CBFF00F05FFB002096
:10400000FFF7C6FF00F05AFB2046FFF7C1FF00F0A4
:1040100055FBBDE8104000F087BB10B5044600F02A
:1040200067FB7820FFF7B4FF00F048FB4020FFF764
:10403000AFFF00F043FB2046FFF7AAFF00F03EFB76
:10404000BDE8104000F070BB70B5094C0D46002172
:10405000C4F898127E2101EA400004F52674FFF7A7
:10406000C7FB2846FFF7C4FB0120206070BD00009D
:104070000080414270B5054642490120FFF7EAF948
:1040800040490120091DFFF795F9FEF75DF83D4C09
:104090003D4A083C616801EBC10002EB8000491C0D
:1040A000FEF734F8092800D0FEE7616801EBC10093
:1040B0003549091D01EB80002946FEF727F809283C
:1040C00000D0FEE72F4D60682F4A2D1D00EBC00089
:1040D0000832E97802EB8000FEF718F8092800D0D2
:1040E000FEE76068284A00EBC0000C32697802EBFA
:1040F0008000FEF70BF8092800D0FEE76068224A2E
:1041000000EBC0001032A97802EB8000FDF7FEFF43
:10411000092800D0FEE760681B4A00EBC00014329B
:10412000297802EB8000FDF7F1FF092800D0FEE7B7
:10413000144D6068144A00EBC0001832297802EB75
:104140008000FDF7E3FF092800D0FEE760680E4A13
:1041500000EBC0001C32697802EB8000FDF7D6FF4F
:10416000092800D0FEE76068074A00EBC000203253
:10417000A97802EB8000FDF7C9FF092800D0FEE70F
:1041800070BD0000080000200000040830380A2834
:1041900001D20120704700207047FEE770B5002370
:1041A00045F2072401254FF0E02209E054619361B4
:1041B00015611169CE0303D4C907FAD1481E70BD39
:1041C000401E1361F2D2002070BD4FF0E0210023A9
:1041D0000B61C0EBC00000EB4000401E48618B61EA
:1041E000012008610869C20303D4C007FAD1401E48
:1041F00070470B610020704710B501214020FEF789
:10420000A1FF09484FF400710124016004710321EA
:10421000417100218171C17101460448FDF7B5FF6C
:104220000348C0F8A44210BD8400002000180240DA
:10423000000043422DE9F05F534D80464FF400707B
:104240004FF0010A286085F804A04FF0030B00240A
:1042500085F805B085F806A057462646EC71294634
:104260004A48FDF792FFDFF82891C9F8A4621220AE
:10427000FFF794FFC9F8A4721E20FFF7A6FF4FF4C2
:10428000007028602E7185F805B0AE71EE71294678
:104290003E48FDF77AFF4FF47A664D4609E001206B
:1042A000641CFFF792FFB44203D34FF0FF30BDE828
:1042B000F09FD5F824020028F1D1002408E0012065
:1042C000641CFFF782FF642C02D36FF00100EEE75D
:1042D000D5F824020028F2D0002408E00120641C54
:1042E000FFF773FF642C02D36FF00200DFE7D5F80D
:1042F00024020028F2D10027A94600260725002421
:1043000008E00120641CFFF760FF642C02D36FF00B
:104310000300CCE7D9F824020028F2D02820FFF7C8
:1043200054FFD9F8240290B10AFA05F03043C6B21E
:10433000002408E00120641CFFF747FF642C02D32F
:104340006FF00400B3E7D9F824020028F2D16D1E03
:10435000D5D508F807607F1C052FCEDB98F8001034
:1043600098F8010098F80220014498F803001044DE
:10437000084498F80410C0B2814202D06FF00500E2
:1043800095E7002093E70000840000200018024019
:104390000000434210B50446FDF7D6FEF320FDF7BA
:1043A00037FE74B1012C16D0022C1ED0032C26D05F
:1043B000042C2ED0052C36D0062C3ED0072C46D00F
:1043C0004FE002210020FDF729FE092849D027A04F
:1043D000FBF786FFFEE702210820FDF71FFE0928F4
:1043E0003FD029A0FBF77CFFFEE702211020FDF75C
:1043F00015FE092835D02BA0FBF772FFFEE702213E
:104400001820FDF70BFE09282BD02DA0FBF768FF25
:10441000FEE702212020FDF701FE092821D02FA070
:10442000FBF75EFFFEE702212820FDF7F7FD0928D4
:1044300017D031A0FBF754FFFEE702213020FDF733
:10444000EDFD09280DD033A0FBF74AFFFEE702215E
:104450003820FDF7E3FD092803D035A0FBF740FF26
:10446000FEE7BDE81040FDF72DBE0000464C41536D
:10447000485F4572617365536563746F7230206580
:1044800072726F720D0A0000464C4153485F4572CC
:10449000617365536563746F7231206572726F72F8
:1044A0000D0A0000464C4153485F457261736553E5
:1044B0006563746F7232206572726F720D0A00004C
:1044C000464C4153485F4572617365536563746F31
:1044D0007233206572726F720D0A0000464C4153B0
:1044E000485F4572617365536563746F723420650C
:1044F00072726F720D0A0000464C4153485F45725C
:10450000617365536563746F7235206572726F7283
:104510000D0A0000464C4153485F45726173655374
:104520006563746F7236206572726F720D0A0000D7
:10453000464C4153485F4572617365536563746FC0
:104540007237206572726F720D0A0000F320FDF75A
:104550005FBD000070B5074D044681B22846FFF7E5
:10456000E7FC80212846FFF74BFC0028F9D02046C5
:1045700070BD0000001001402DE9F0474A4E4FF099
:10458000000AC6F89CA2494F0124C7F89042DFF800
:104590002081C8F8BC42474DC5F89C420220FFF775
:1045A000FDFDD5F82402E8B3D6F81802D8B3DFF839
:1045B0000891D9F81802B8B3D7F82002A8B3C6F802
:1045C0009C42C7F890A2C8F8BC42C5F89C420220A1
:1045D000FFF7E4FDD5F8240240B3D6F8180230B353
:1045E000D9F81802D0B3D7F82002C0B3C6F89C425D
:1045F000C7F89042C8F8BCA2C5F89C420220FFF759
:10460000CDFDD5F8240258B3D6F8180248B3D9F82E
:10461000180238B3D7F8200278B3C6F89C42C7F81E
:10462000904205E01FE020E021E022E023E025E0C9
:10463000C8F8BC42C5F89CA20220FFF7AFFDD5F830
:10464000240248B3D6F8180240B3D9F8180238B398
:10465000D7F8200230B34E20BDE8F08710E011E01B
:1046600012E013E014E03120F6E73220F4E73320C3
:10467000F2E74120F0E73420EEE70BE03520EBE7EE
:104680003620E9E74220E7E73720E5E73820E3E78F
:104690003920E1E74320DFE72A20DDE73020DBE7B0
:1046A0002320D9E74420D7E7008040420000404261
:1046B00000004342000041420000424270B5002029
:1046C00000F082FF094D0120C5F8A002FFF77DFD33
:1046D000D5F8240208B1012400E000240020C5F828
:1046E000A0020120FFF771FD204670BD008040420E
:1046F00070B5012000F068FF0A4C0120C4F8A00248
:10470000C4F8A40204F52874FFF75FFD0025656076
:104710000120FFF75AFD2560BDE870400120FFF73A
:1047200054BD00000080404270B5012000F04CFFF5
:10473000084C0125C4F8A0520020C4F8A402284661
:1047400004F52874FFF741FD6560BDE87040012065
:10475000FFF73BBD008040422DE9FC4101210846A6
:10476000FEF7F0FC01210220FEF7ECFC0121042001
:10477000FEF7E8FC01211020FEF7E4FC01214020B7
:10478000FEF7E0FC012610208DF804600024009064
:104790008DF8064003208DF805001C4F8DF807406A
:1047A00069463846FDF7F1FCDFF8648080256946EC
:1047B00040460095FDF7E9FC0095164D69462846F0
:1047C000FDF7E3FCF003009069461348FDF7DDFCBC
:1047D000A8158DF8076000908DF8044069463846AA
:1047E000FDF7D3FC4024694640460094FDF7CDFC1C
:1047F000E000009069462846FDF7C7FC6946074877
:104800000094FDF7C2FCBDE8FC81000000000240FE
:10481000000402400008024000180240001002405C
:1048200094B04FF00009C846CDF81090CDF8149020
:10483000CDF81890CDF81C904846CDF82090CDF8D2
:104840002490CDF82890CDF82C90CDF83090CDF86C
:104850003490CDF83890CDF83C90CDF8409002904F
:10486000CDE9119803904C46464645464FF0FF3A35
:10487000C3460A20FE49088000F050FEFDF7A6FF5F
:10488000FEF7DAFB4FF4614000F036FF4FF4E13001
:1048900000F0DCFE00F09AFF4FF4165000F0B4FF79
:1048A0004FF4FA70FFF77AFCFCF7B4FEFDF7F4FC66
:1048B000FEF77CF9FEF73CF9FFF74EFF00F096FE9D
:1048C000FFF79AFC3220FFF769FCFFF73FFE062056
:1048D000FFF760FD0A20FFF761FC0522E549E64885
:1048E000FEF762FFE349E4480522491D401DFEF73B
:1048F0005BFFE2A0FBF7F4FCE6A000F0E9FF32204A
:10490000FFF74CFCFCF728FF47E04FF4C870FFF7B7
:1049100045FCFEF70DF900213B220846FEF7ECF9B5
:104920003C2200211220FEF7E7F93D22002124203D
:10493000FEF7E2F93E2200213620FEF7DDF94322A0
:1049400000214820FEF7D8F9442200215A20FEF722
:10495000D3F94FF44870FFF721FCFEF7E9F8002186
:104960003F220846FEF7C8F9402200211220FEF738
:10497000C3F9412200212420FEF7BEF94222002182
:104980003620FEF7B9F9432200214820FEF7B4F99A
:10499000442200215A20FEF7AFF9C248FEF7A0FAE0
:1049A0000028B2D1FEF7C4F8BF48D0F8140200289E
:1049B0006FD0BE4F3878002829D0BAF1000F37D118
:1049C000BBA1BC48FBF75CFEBBA1BA48FBF752FE9B
:1049D000B9A10020FBF74EFEA649B648FBF750FEF2
:1049E000B0B1B6A0FBF77CFCBBA000F071FF54B9DE
:1049F0000420FFF73FFB9F4810384168491C416085
:104A0000BBA0FBF76DFCC049C1F80090012499E000
:104A10009849A848491DFBF733FE0028F7D0BBA0F2
:104A2000FBF75EFCBFA000F053FF4FF0010A032428
:104A3000C3A1A048FBF724FE28B18E481038406877
:104A4000FDF7ECFC75E0C0A19A48FBF719FE58B1E0
:104A5000BFA0FBF745FC0620FFF79CFCC0A0FBF7BE
:104A60003FFCFCF779FE64E0C1A19248FBF708FE29
:104A7000002848D090A18F48FBF7FCFD8EA10020B4
:104A8000FBF7F8FD0090FBF70DFE052802D0BAA059
:104A900036E061E0042277480099FBF76BFE754928
:104AA000032081F80490FFF775FC052271497248D4
:104AB000FFF742FA6F4970480522491D401DFFF774
:104AC0003BFA5A2206211020FEF716F9572206213A
:104AD0002020FEF711F92D2206213020FEF70CF9D7
:104AE0002E2206214020FEF707F90722062150203A
:104AF000FEF702F9082206216020FEF7FDF8A3A0C8
:104B0000FBF7EEFB15E0A6A16A48FBF7B9FD80B103
:104B10007D49C1F80090A4A0FBF7E2FB0420FFF759
:104B2000A9FA544810384168491C416070A0FBF74D
:104B3000D7FBA349C1F8009087F8009080215D4819
:104B4000FBF7CFFD9E49C1F8009087F800908021C7
:104B50005848FBF7C6FD07E0BAF1FF3F04D099A023
:104B6000FBF7BEFB4FF0FF3A9A4F387800287DD014
:104B700073A19948FBF784FD28B13E48103840687E
:104B8000FDF74CFC2EE170A19348FBF779FD58B17D
:104B90006FA0FBF7A5FB0620FFF7FCFB70A0FBF75F
:104BA0009FFBFCF7D9FD1DE171A18B48FBF768FD68
:104BB000002847D040A18848FBF75CFD3EA10020BB
:104BC000FBF758FD0090FBF76DFD052801D06AA0AA
:104BD00035E0042227480099FBF7CCFD2549032046
:104BE00081F80490FFF7D6FB052222492248FFF7FF
:104BF000A3F9204920480522491D401DFFF79CF9D3
:104C00005A2206211020FEF777F85722062120208D
:104C1000FEF772F82D2206213020FEF76DF82E22C5
:104C200006214020FEF768F8072206215020FEF7F3
:104C300063F8082206216020FEF75EF853A0FBF718
:104C40004FFBCFE056A16448FBF71AFD78B12E491F
:104C5000C1F8009054A0FBF743FB0420FFF70AFAC9
:104C6000044810384168491C4160B7E0C3E0B9E02E
:104C70004C1A00201000002000C000080AD6C7C44B
:104C8000DCD6B8CEC6CBF82DD2A6BFA1ECBF0D0A9C
:104C90000000000041542B4E414D456B6B6B6B0D7A
:104CA000000000008000002000004242181A00208E
:104CB00070773D00181E00203D000000C0B6D1C036
:104CC000CAE4C8EBBDE2CBF8C3DCC2EBA3ACBDE2E7
:104CD000CBF80D0A00000000C3DCC2EBD5FDC8B75D
:104CE000A3ACBDE2CBF8B3C9B9A60D0A0000000021
:104CF000B5B1C7B0BCC7C2BCC1CB2564B8F6CAFD4C
:104D0000BEDD0D0A00000000FC190020C0B6D1C0B5
:104D1000CAE4C8EBB9DCC0EDD4B1C3DCC2EB0D0A08
:104D200000000000C3DCC2EBD5FDC8B7A3ACBDF8E2
:104D3000C8EBB9DCC0EDD4B1C4A3CABD0D0A0000F4
:104D40007265636F72640000636C656172000000DD
:104D5000D5FDD4DAB2C1B3FDC9C8C7F8360D0A0013
:104D6000B2C1B3FDC9C8C7F836CDEAB3C90D0A0050
:104D70006E657770773D0000D0C2C3DCC2EBB3A490
:104D8000B6C8B2BBB6D40D0A00000000C0B6D1C090
:104D9000B8FCB8C4C3DCC2EBB3C9B9A60D0A0000A5
:104DA000756E6C6F636B0000C0B6D1C0B9DCC0ED2E
:104DB000D4B1BDE2CBF8B3C9B9A60D0A000000001A
:104DC0001C1A0020C0B6D1C0B6CFBFAAC1ACBDD39B
:104DD0000D0A00000C1A0020981D0020AFF2F00010
:104DE000FBF77EFAF949C1F8009087F8009080211E
:104DF000F748FBF776FCF748006890B100274FF0C2
:104E0000100000EB0710B742C0B24FF0100301D200
:104E1000F1A200E0F1A20021FDF7DAFF7F1C062FCE
:104E2000EDD3EF48006810B124B1012C02D0022C60
:104E30007CD019E1EB490120FEF70CFBE9488178B1
:104E4000009143780278E8A104A8FBF755FAE549F8
:104E50000120091DFEF7AEFAE248001D02788178B4
:104E6000CDE900124378C278E3A108A8FBF744FA21
:104E7000E74800680F280AD9DA4802231230009068
:104E8000802200217020FDF770FE002408E0D54844
:104E9000022332300090802200217020FDF765FE51
:104EA000DC4F3868062812D910A8FFF7C3F9C7F8F5
:104EB00000909DF843109DF84200CDE900019DF857
:104EC00041309DF84020D4A10CA8FBF715FA10231F
:104ED00004AA02212020FDF77BFF102308AA042149
:104EE0000020FDF775FF10230CAA06210020FDF716
:104EF0006FFFCE4801680F2908D9B64AC2F8009062
:104F0000C0F800900025CAA0FBF7EAF9B148006894
:104F100030B965B1032D30D0062D01DB4FF0FF35E0
:104F2000AF49C1F800906D1C6DB29DE03BE01023CD
:104F3000C2A200210820FDF74BFF002211461820D5
:104F4000FDF7DAFE012200212820FDF7D5FE02221E
:104F500000213820FDF7D0FE032200214820FDF774
:104F6000CBFE042200215820FDF7C6FE1023B4A278
:104F700000216820FDF72CFFD2E71023B1A2002109
:104F80001846FDF725FF622200214020FDF7B4FE00
:104F9000632200215020FDF7AFFE64220021602033
:104FA000FDF7AAFEBCE74D2200211820FDF7A4FE64
:104FB0004E2200212820FDF79FFE4F22002138209D
:104FC000FDF79AFE502200214820FDF795FE512260
:104FD00000215820FDF790FE10239CA20221002002
:104FE000FDF7F6FE522202210820FDF785FE53222E
:104FF00002211820FDF780FE102395A2022128200F
:10500000FDF7E6FE542202213820FDF775FE5522F9
:1050100002214820FDF770FE10238EA202215820A5
:10502000FDF7D6FE392202216020FDF765FE3A2207
:1050300002217020FDF760FE6A4808EB48075230F5
:10504000052110F817202820FDF756FE6548052198
:10505000523000EB47073820BA78FDF74DFE3A7919
:1050600005214820FDF748FE5FEA0B0005D0012826
:105070000BD0BBF1020F4BD143E0FFF77DFA4E2876
:1050800046D04FF0010B129042E0FFF775FA4E2820
:105090003ED0129988423BD14FF0020B14B1022C42
:1050A0000BD035E04B4901220A60604AC2F80090FB
:1050B00002A98855761CF6B22AE0422806D0432879
:1050C0000CD0412814D0442817D021E0B8F1000FAB
:1050D00002D0A8F1010006E0052005E0B8F1050FB7
:1050E00004D008F10100C0B2804611E00020FBE7C7
:1050F0004046FCF761FA04460AE0FDF719FD00247A
:1051000006E0FFF739FA4E2802D14FF0000B12905B
:10511000304F386820B9CDF808900026CDF80C90B3
:10512000304902A80831FBF7ABFAC8B32D220021A1
:105130001020FDF7E1FD2E2200212020FDF7DCFDEF
:105140002F2200213020FDF7D7FD30220021402002
:10515000FDF7D2FD312200215020FDF7CDFD322296
:1051600000216020FDF7C8FD3BA0FBF7B9F85CB952
:105170000220FEF77FFF1B4808384168491C416048
:10518000AFF29440FBF7ACF8CDF80890CDF80C9056
:105190000026C7F800901E49C1F80090B51EC4E073
:1051A000FFE7104902A80D31FBF76AFA60B1FDF77D
:1051B000BFFCCDF80890CDF80C900026C7F8009001
:1051C00035460224FFF7F0BB50E00000101A002023
:1051D000981D0020001A00202A2000005F200000F7
:1051E000E019002008000020253032783A253032BE
:1051F000783A2530327800003230253032782F2549
:105200003032782F253032785765656B257800006D
:10521000FC190020F8190020483A25642E25642046
:105220002020543A25642E2564000000041A002032
:10523000B3ACCAB1CAE4C8EB0D0A000020200000DC
:1052400020000000475A323037350000410000008E
:105250004243000044000000C3DCC2EBD5FDC8B7E8
:10526000A3ACBDE2CBF80D0A00000000062E28D149
:105270002D2200211020FDF73FFD2E2200212020AD
:10528000FDF73AFD2F2200213020FDF735FD3022B9
:1052900000214020FDF730FD332200215020FDF792
:1052A0002BFD342200216020FDF726FD20A0FBF716
:1052B00017F8CDF80890CDF80C900026C7F80090AC
:1052C000B51E002C7FF47EAF1E48D0F8180208B13E
:1052D00000F052F81C4F387890B11CA0FBF700F892
:1052E0000120FEF7C7FE7968491CAFF2FC507960D7
:1052F000FAF7F6FF1A49C1F8009087F800900124E8
:10530000FDF780F900283FF45DAF16A0FAF7E8FF3B
:105310000320FEF7AFFE7968491CAFF22C6079607C
:10532000FAF7DEFF0E49C1F8009001244AE70000B9
:10533000C3DCC2EBB4EDCEF3A3ACC7EBD6D8CAD472
:105340000D0A00000000404200000020D6B8CEC682
:10535000C6A5C5E4A3ACBDE2CBF80D0A0000000071
:10536000FC19002052464944BFA8C6A5C5E4A3AC19
:10537000BDE2CBF80D0A0000F8B5FDF797FD002857
:1053800013D1194C0126C4F8A0623046FDF770FD18
:1053900001004FF0000509D014A0FAF7A1FFC4F8EE
:1053A000A0524FF47A70FEF7F9FEF8BDC4F8A0528F
:1053B00013486B46002102880120FDF7C7FD114FFD
:1053C000010004D010A0FAF78BFF3D70E7E713A0AF
:1053D000FAF786FFBDF80220BDF8001013A0FAF717
:1053E0007FFF3E70DBE7000000804242BBF1C8A1B6
:1053F000CDBCCFF1CAA7B0DC25640D0A00000000C7
:105400004C1A002000000020C6A5C5E4D6B8CEC6C0
:10541000CAA7B0DC3A25640D0A000000C6A5C5E4A1
:10542000D6B8CEC6B3C9B9A60D0A0000C8B7D3D046
:10543000B4CBC8CB2C49443A25642020C6A5C5E48A
:10544000B5C3B7D63A25640D0A00000070B5012136
:105450000807FDF783FE0120FDF76EFE0120FDF732
:105460000FFF4120FDF7F2FE0028FAD04FF48070C4
:10547000FDF71AFF0120FDF711FFFEF725F925487A
:105480007F2100254160FF2105608160FEF72AF839
:10549000214821210324C1704470847004700146A6
:1054A0000120FEF751F81C484021001FC170102157
:1054B000017057214170857001460120FEF790F878
:1054C0000020FEF73BF90420FEF724F90020FEF748
:1054D000D7F84FF480463046FDF738FF01213046BB
:1054E000FDF7E0FF0120FEF729F90B4831020830F3
:1054F000016005710821417101258571FCF72EFCC1
:105500000548001D047044708470C570BDE870408B
:10551000FDF7DCBA581A0020E819002010B5002069
:10552000FEF708F841F28864A04207D0FFF78EFF2B
:105530002146BDE810400020FEF72CB901210807E4
:10554000FDF70CFE0120FDF7F7FD0120FDF798FEA9
:105550004120FDF77BFE0028FAD04FF48070FDF764
:10556000A3FE0120FDF79AFEFEF7AEF80020FEF73D
:10557000E5F80420FEF7CEF80020FEF781F84FF49E
:1055800080442046FDF7E2FE01212046FDF78AFF18
:105590000120FEF7D3F80B4821020124016000210D
:1055A0000171082141718471FCF7D8FB0548032182
:1055B000001F017041708170C470BDE81040FDF79C
:1055C00085BA0000F019002006494FF400720A6005
:1055D00008710320487100208871C8710248FCF7E7
:1055E000D4BD000094000020000402407FB50121DA
:1055F0000220FDF7B3FD42F20F70019042F2CF009E
:10560000ADF800000024104DADF80840ADF80240A0
:1056100069462846FEF7CCFA012211462846FEF7D5
:10562000BCFA1D208DF80C008DF80D4001218DF87D
:105630000E108DF80F1003A8FDF748FA0121284637
:10564000FEF795FA7FBD00000004004070B50546E6
:10565000012188B00846FDF775FD01211020FDF7F6
:1056600095FD02218DF814108DF815104FF4C060CF
:1056700000241F4E04908DF816408DF8174004A9A1
:105680003046FCF782FD072209213046FCF7B9FDC0
:1056900007220A213046FCF7B4FD0095ADF808401A
:1056A0000C20144DADF80440ADF80A00ADF80640EA
:1056B000ADF80C4069462846FEF7E0FB012240F2B7
:1056C00025512846FEF7C2FB25208DF818008DF8DD
:1056D00019408DF81A4001208DF81B0006A8FDF72F
:1056E000F5F901212846FEF72BFB08B070BD00003C
:1056F00000000240001001402DE9F04381460121E5
:1057000087B00846FDF71EFD01214804FDF726FD80
:105710002A4F3846FEF71EFBDFF8A480072202213D
:105720004046FCF76EFD072203214046FCF769FD69
:1057300002208DF814008DF8150000240C268DF839
:105740001640012504968DF8175004A94046FCF731
:105750001CFDADF80440ADF80840CDF80090ADF860
:105760000640ADF80C40ADF80A6069463846FEF7D1
:1057700085FB01213846FEF7E3FA012240F225516C
:105780003846FEF763FB26208DF818008DF8195077
:105790008DF81A408DF81B5006A8FDF797F942F2D4
:1057A000CF0140F2E730FEF7B5F90648002104804A
:1057B0000548FEF7DCF907B0BDE8F083004400407F
:1057C00000000240081A00200014004070B50521B6
:1057D0000420FEF781F80B48172100240170447063
:1057E00084700125C570FDF771F9064820210C3041
:1057F00001600471102141718571BDE87040FCF7B2
:10580000ADBA0000241A00202DE9F04180460121A4
:105810000220FDF797FC01210420FDF793FC0121F4
:105820001020FDF78FFC01218804FDF797FC234D24
:105830004FF44060022628602E716E710024204FC4
:10584000AC71EC7129463846FCF79FFC07220A210F
:105850003846FCF7D6FC07220B213846FCF7D1FC72
:1058600018480C21184FC0F800808480C48004813F
:105870008481418101463846FEF700FB012240F257
:1058800025513846FEF7E2FAA5F1080027210170FC
:10589000447084700121C170FDF718F90121384668
:1058A000FEF74EFA202028602C716E71AC71EC71FD
:1058B0002946BDE8F0410548FCF767BC281A0020DE
:1058C00000040240981E00200048004000100240E2
:1058D00070B50446084D09E02846FEF729FB8021F3
:1058E0002846FEF78DFA0028F9D0641C002C02D05F
:1058F00021780029F0D170BD0048004010B5002982
:105900000AD00878002807D005487844FBF718F932
:10591000002801D0002010BD0248784410BD0000CE
:105920009A080000920800004FF04070E1EE100A63
:1059300070470000000000000000002F0000000081
:105940000700070000147F147F1400242A7F2A1206
:1059500000626408132300364955225000000503F5
:10596000000000001C224100000041221C00001425
:10597000083E08140008083E0808000000A0600067
:1059800000080808080800006060000000201008F7
:105990000402003E5149453E0000427F4000004263
:1059A00061514946002141454B31001814127F10C6
:1059B000002745454539003C4A49493000017109F5
:1059C000050300364949493600064949291E0000A9
:1059D0003636000000005636000000081422410050
:1059E0000014141414140000412214080002015180
:1059F000090600324959513E007C1211127C007F89
:105A000049494936003E41414122007F4141221C23
:105A1000007F49494941007F09090901003E414988
:105A2000497A007F0808087F0000417F410000207C
:105A300040413F01007F08142241007F4040404028
:105A4000007F020C027F007F0408107F003E41416E
:105A5000413E007F09090906003E4151215E007F59
:105A6000091929460046494949310001017F0101D0
:105A7000003F4040403F001F2040201F003F403873
:105A8000403F0063140814630007087008070061B2
:105A90005149454300007F41410000552A552A5590
:105AA000000041417F000004020102040040404028
:105AB0004040000001020400002054545478007F4C
:105AC0004844443800384444442000384444487F23
:105AD00000385454541800087E0901020018A4A488
