:020000040800F2
:100000004807002049020008510200085302000876
:1000100055020008570200085902000800000000BD
:100020000000000000000000000000005B0200086B
:100030005D020008000000005F0200086102000885
:1000400063020008630200086302000863020008FC
:1000500063020008630200086302000863020008EC
:100060006302000863020008A9090008630200088F
:1000700063020008630200086302000863020008CC
:1000800063020008630200086302000863020008BC
:1000900063020008630200086302000863020008AC
:1000A000630200086302000863020008630200089C
:1000B00063020008950E000863020008630200084E
:1000C000630200086302000863020008630200087C
:1000D00063020008051000086302000859100008B8
:1000E000630200086302000863020008630200085C
:1000F000630200086302000863020008630200084C
:10010000630200086302000863020008630200083B
:10011000630200086302000863020008630200082B
:10012000630200086302000863020008630200081B
:10013000630200086302000863020008630200080B
:1001400063020008630200086302000863020008FB
:1001500063020008630200086302000863020008EB
:1001600063020008630200086302000863020008DB
:1001700063020008630200086302000863020008CB
:10018000630200086302000800F002F800F04DF876
:100190000AA090E8000C82448344AAF10107DA45E2
:1001A00001D100F042F8AFF2090EBAE80F0013F0E7
:1001B000010F18BFFB1A43F0010318477C20000011
:1001C0009C200000103A24BF78C878C1FAD85207A2
:1001D00024BF30C830C144BF04680C6070470000C1
:1001E0000023002400250026103A28BF78C1FBD840
:1001F000520728BF30C148BF0B607047642900F028
:10020000C380732900F04582002070471FB502F0BB
:1002100007F800F051FB04000020002101F0EAFF84
:10022000401C60601FBD10B510BD00F020FB1146E2
:10023000FFF7ECFF01F052FA00F050FB03B4FFF7B8
:10024000F2FF03BC00F0DEFF094880470948004781
:10025000FEE7FEE7FEE7FEE7FEE7FEE7FEE7FEE776
:10026000FEE7FEE704480549054A064B70470000D3
:10027000390E0008890100084801002048070020C5
:100280004803002048030020704700000FB40449D1
:1002900010B503AA029800F001FA10BC5DF814FB37
:1002A000240000200FB41CB5074B06AA7B44694606
:1002B0000090059800F0C3F90020694600F0D2F9DB
:1002C0001CBC5DF814FB0000B50300002DE9F041F3
:1002D0000E460446002020622046E168884730B37D
:1002E000252805D0D4E901219047206A401CF2E777
:1002F000E168204600278847050018D0A5F1410095
:10030000192802D820354FF4006732462946204686
:100310002760FFF773FF40B1012804D0F61D26F0D7
:1003200007060836D8E7361DD6E72846DAE7206AFA
:10033000BDE8F08170B50C460546012A05D0287845
:10034000800600D5EA69002302E0012305E05B1C7A
:10035000934202D2E05C0028F9D1A869E618C01ADD
:10036000A861286A184428622846AFF3008004E098
:10037000D5E9012114F8010B9047B442F8D328467F
:10038000AFF3008070BD00002DE9F0410646002467
:1003900010687529314616A510D0AFF300800028EB
:1003A00002DA404213A507E031688A0701D512A599
:1003B00002E0490704D511A5012401E0AFF3008054
:1003C00000210A2206F1240709E0B0FBF2FCB0FB91
:1003D000F2F302FB1C00303078541846491C002808
:1003E000F3D123462A463046BDE8F04100F0C8B8B4
:1003F000000000002D0000002B0000002000000085
:1004000070B5064600F0B8F80468054630460A2282
:10041000002100F055F92C6070BD0000014A00F089
:1004200087B900004000002030B505460B462A463B
:1004300013F8014B12F8010B08B1A042F8D01CB11F
:10044000002802D06D1CF1E7284630BD10B5431CD2
:1004500002E010F8011B71B18107FAD14FF00132AF
:1004600002C88C1A8C4314EAC211F9D0C01A0A06C9
:1004700003D0C01E10BDC01A10BD0A0401D0801EDA
:1004800010BD0902FCD0401E10BD4FF0000204292F
:10049000C0F0128010F0030C00F01B80CCF1040CB3
:1004A000BCF1020F18BF00F8012BA8BF20F8022BE7
:1004B000A1EB0C0100F00DB85FEAC17C24BF00F88D
:1004C000012B00F8012B48BF00F8012B70474FF0BB
:1004D000000200B5134694469646203922BFA0E894
:1004E0000C50A0E80C50B1F12001BFF4F7AF0907A0
:1004F00028BFA0E80C5048BF0CC05DF804EB890091
:1005000028BF40F8042B08BF704748BF20F8022BD3
:1005100011F0804F18BF00F8012B704710B504464A
:1005200010F0030F08BF11F0030F40F015804FF0DB
:10053000013E121FC0F20E8051F8043BA3EB0E0CDB
:100540002CEA030C1CEACE1C08BF40F8043BF0D098
:10055000A1F1040102F10402521E08DB11F8013B73
:10056000002B00F8013BF7D11146FFF78EFF204624
:1005700010BD70477047704700487047E400002086
:100580002DE9F0470D4699469246044600F12408AD
:100590000168880604D5E06921F01001216000E0BF
:1005A0000120A84201DD471B00E00027A1697A195C
:1005B00002EB0900081AA0612078C00602D4204688
:1005C000AFF30080002608E0D4E901211AF8060004
:1005D0009047206A401C761C20624E45F4DB207850
:1005E000C0060AD52046AFF3008006E0D4E9012119
:1005F00030209047206A401C2062381EA7F1010776
:10060000F4DC07E0D4E9012118F805009047206ADE
:10061000401C2062281EA5F10105F3DC2046AFF343
:1006200000802078000602D50220BDE8F087012076
:10063000FBE7000001694A1C02610878704700B5B9
:100640008FB0CDE901310021059105497944CDE90B
:10065000031011466846FFF739FE0FB000BD0000D9
:10066000E5FFFFFF0A6802F8010B0A60704710B54A
:10067000436913B1AFF3008001E0FFF75BFE012097
:1006800010BD127800F124010A7000224A70012284
:10069000EDE711684FF0FF32E9E70000074B70B556
:1006A0000D467B44FFF7CBFF0446284600F0BDF81B
:1006B00010B14FF0FF3070BD204670BD470D0000F7
:1006C0002DE9F04791460F4680460446002614F86F
:1006D000015B2DB100F052F80068405DC007F6D113
:1006E0002B2D02D02D2D18D0641E4A4639462046A7
:1006F00000F04CF827B13968A14201D1C7F8008059
:100700004FF0020471050BD54042002803DDFFF7CE
:1007100033FF0460A007BDE8F08746F48066E4E795
:100720000028F8DAFFF728FF04606FF00040F2E7D6
:100730002DE9F04115460E46040002D12C6804B99B
:100740000BA4204600F085F80444207870B12746B9
:100750003146384600F06DF80444207810B100208E
:1007600004F8010B38462C60BDE8F0810027F9E75A
:100770000000000000487047E400002010B500F0C1
:100780009BF8001D10BD00BF6D1A00002DE9F05F41
:10079000824615468B4600270AF10104B9460078C7
:1007A000302801D09DB113E014F8010B01277828FF
:1007B00003D0582801D045B10AE00DB1102D07D162
:1007C000002714F8010B102502E0082500E00A2597
:1007D0000026B0460EE005FB080005FB06F10127E8
:1007E0001FFA80F801EB1046B6F5803F00D3B946FA
:1007F00014F8010B294600F063F80028EBDABBF18E
:10080000000F05D00FB1641E00E05446CBF8004045
:10081000B9F1000F06D0FFF7AFFE02210160C81E3C
:10082000BDE8F09F48EA0640FAE7007B00F0800050
:10083000704730B503461D781DB10A4603E0AC424F
:1008400001D1181A30BD12F8014B002CF7D15B1CF6
:10085000F1E730B503461D783DB10A4612F8014B69
:100860001CB1AC42FAD15B1CF5E7181A30BD7546D5
:10087000FFF780FFAE4605006946534620F00700AB
:10088000854618B020B5FFF7EDFCBDE820404FF0DD
:1008900000064FF000074FF000084FF0000B21F06A
:1008A0000701AC46ACE8C009ACE8C009ACE8C00937
:1008B000ACE8C0098D46704700487047040100202D
:1008C0003A2800D2303820F02002412A01D3A2F188
:1008D0003700884201D34FF0FF3070470446AFF332
:1008E00000802046FFF7AAFC4FF0013C50F8042B93
:1008F00051F8043B9A4221D1A2EB0C03934313EA33
:10090000CC1317D150F8042B51F8043B9A4215D15F
:10091000A2EB0C03934313EACC130BD150F8042B36
:1009200051F8043B9A4209D1A2EB0C03934313EA1A
:10093000CC13DBD04FF00000704700BFD01A01BAD3
:10094000B1FA81F101F0180122FA01F0CB40C1F1B6
:100950002001DBB2C0B2C01A2CFA01F3D11A9143C4
:1009600011EAC311E6D170471CB50121202000F027
:1009700063F94FF48070009001208DF8040000248A
:100980008DF8064003218DF805108DF807006946A3
:10099000034800F06BF80348C0F8A0421CBD0000FB
:1009A000001402400080424210B5102000F01CF8F4
:1009B00000280ED00748D0F81012074809B10021CE
:1009C00000E00121C0F8A412BDE81040102000F0A2
:1009D00005B810BD00004042008042420149086055
:1009E00070470000143C0140034A01460020126891
:1009F0000A4200D001207047143C014030B51A4A29
:100A00008379016853B313688B431360111D0B681E
:100A10000468A3430B60017911440B680468234305
:100A20000B60114B083319680468A14319601C1D41
:100A300021680568A94321604179102905D0114436
:100A40000A68006802430A6030BD196802681143F1
:100A50001960216800680143216030BD00791044AD
:100A600002688A43026030BD003C0140F0B50022BC
:100A700001274FF0030C0B6807FA02F52B40AB423D
:100A80002CD1066853000CFA03F4A64306600E79D5
:100A9000D0F800E09E4046EA0E0606600E79012E70
:100AA00001D0022E12D18668A64386604E79D0F816
:100AB00008E09E4046EA0E0686604668AE43466001
:100AC00045688E799640B6B235434560C568A54302
:100AD000C560CC799C40C3681C43C460521C102A7A
:100AE000C9D3F0BD4B07DB0E9A40C90810B500EB27
:100AF0008100016A0F249C40A1430162016A1143F5
:100B0000016210BD0183704702494CF6CC40086079
:100B1000704700000030004002494AF6AA200860F1
:100B200070470000003000400149486070470000F5
:100B300000300040014988607047000000300040EC
:100B40000149086070470000003000402DE9FC4773
:100B50000121302000F070F801248DF804400026B7
:100B60008DF806600327DFF850904FF4C0658DF8CC
:100B7000057000958DF8074069464846FFF776FFF7
:100B80008DF804408DF806608DF805708DF80740EB
:100B90000A4C4FF40058CDF8008069462046FFF714
:100BA00065FF29464846FFF7ADFF41462046FFF75F
:100BB000A9FFBDE8FC8700000014024000100240BD
:100BC00030B50F23C27801780125FAB1144A1268B2
:100BD00001F1E02102F4E062C2F5E062C2F3072213
:100BE000C2F10404D3404278A24084781C401443EC
:100BF000220181F80024007800F01F018D40400997
:100C0000800000F1E020C0F8005130BD01F01F006D
:100C100085404809800000F1E020C0F8805130BDD7
:100C20000CED00E0024908430249086070470000EB
:100C30000000FA050CED00E0044A0029116801D01B
:100C4000014300E0814311607047000030380240EA
:100C5000044A0029116801D0014300E0814311607A
:100C60007047000040380240044A0029116801D052
:100C7000014300E0814311607047000044380240A6
:100C80000248016841F08071016070477438024089
:100C900070B5204B1968204C11F00C0104D066107F
:100CA000042903D0082903D004601BE0066019E082
:100CB000184A121F1168C1F38055116801F03F01F5
:100CC00015B1B6FBF1F101E0B4FBF1F11468126863
:100CD000C4F388146143C2F30142521C5200B1FBB9
:100CE000F2F1016019680F2202EA11110B4A545CFB
:100CF0000168E14041601C68072505EA9424145D01
:100D000021FA04F484601B6805EA5333D25CD140B5
:100D1000C16070BD083802400024F400300000209B
:100D200002460020510901290BD002290CD00849A4
:100D3000096802F01F02012393400B4200D00120FA
:100D4000704703497439F3E70149091FF0E70000D0
:100D50007438024010B58A0721F003040849120FC5
:100D600021440F23D1F8084893409C43C1F8084818
:100D7000D1F8083890400343C1F8083810BD00008E
:100D8000003001400CB5002227490092019208680A
:100D900040F4803008604FF4A043086800F400304D
:100DA00001900098401C0090019810B9009898425A
:100DB000F3D10868800334D5012001901A484030EF
:100DC000026842F0805202601848026842F44042D1
:100DD00002601548083002680260026842F400426E
:100DE0000260026842F4A0520260031F104A1A60B7
:100DF0000A6842F080720A600A689201FCD50D49C7
:100E000040F205720A60016821F003010160016887
:100E100041F0020101600168C1F381010229FAD1A8
:100E20000CBD01920CBD0000003802400070004073
:100E300008544007003C0240124810B5016841F4D4
:100E4000700101601048016841F0010101600E4A23
:100E500000210832116002680C4B1A400260031D29
:100E60000B4A1A60026822F48022026006480C30A5
:100E70000160FFF787FF03494FF000608039086089
:100E800010BD000088ED00E000380240FFFFF6FED4
:100E90001030002410B50B4C0121204600F02EF834
:100EA00001280ED108490A68521C0A604868401C93
:100EB0004860FFF731FE2046BDE81040012100F0F8
:100EC00005B810BD0004004014000020C943018291
:100ED00070470029018802D041F0010101E021F0B2
:100EE000010101807047002930F8441F02D041F40D
:100EF000004101E0C1F30E0101807047024600206D
:100F0000138A92890B4202EA010202D0002A00D021
:100F100001207047002A828901D00A4300E08A43F9
:100F20008281704770B5028C22F480520284058C55
:100F30008288838B0C8823F4E6464FF6FF7303EA1E
:100F40000424344325F400568D8903EA05353543DE
:100F50004E8803EA06362E43084DA84202D0084DBB
:100F6000A84205D122F480450A8A03EA82122A4364
:100F70008280848389680164068470BD000001401A
:100F8000000401400164704730B50288164C174DCB
:100F9000A0420DD0A8420BD0B0F1804F08D0144B26
:100FA000984205D0134B984202D0134B984203D17C
:100FB00022F070034A881A43104B984206D0104B17
:100FC000984203D022F440730A891A4302804A6887
:100FD000C2620A880285A04201D0A84201D1897A62
:100FE00001860121818230BD0000014000040140E2
:100FF0000004004000080040000C004000100040C9
:101000000014004070B5114C40F225552946204689
:1010100000F063F8012817D1204600F0EBF80D4BE3
:10102000C2B20B48596842545868401C5860232A81
:1010300002D05868402801D901201870294620465E
:10104000BDE8704000F032B870BD000000100140F3
:10105000640000201C00002070B5114C40F22555A2
:101060002946204600F039F8012817D1204600F023
:10107000C1F80D4BC2B20B48596842545868401C25
:101080005860232A02D05868402801D901201870DE
:1010900029462046BDE8704000F008B870BD000049
:1010A00000480040A4000020280000200A0A012176
:1010B0009140C943018070470029818902D041F4E1
:1010C000005101E021F40051818170470246002067
:1010D00012880A4200D00120704770B501F01F0548
:1010E00001260024C1F3421306FA05F2012B0FD0AA
:1010F000022B0FD0838A4FEA11210088134206FA8F
:1011000001F600EA060001D000B10124204670BDBE
:101110008389F0E7038AEEE710B5C1F3421301F0CB
:101120001F040121A140012B07D0022B07D014304E
:10113000002A026805D00A4304E00C30F8E71030BA
:10114000F6E78A43026010BD7FB50446008A0D466B
:10115000C98820F4405001432182A08941F20C61EA
:101160008843A9882A8911436A8902431143A181CE
:10117000A08A20F44071A8890843A0826846FFF73E
:1011800087FD1A48844202D01948844201D103984D
:1011900000E00298A189090400EBC00101EB0010F6
:1011A000296801D5490000E08900B0FBF1F0642214
:1011B000B0FBF2F109010B096FF018056B4300EB6E
:1011C0008300A3891D044FF0320306D503EBC00052
:1011D000B0FBF2F000F0070005E003EB0010B0FBFD
:1011E000F2F000F00F00084320817FBD00100140A5
:1011F000001401408088C0F308007047C1F3080163
:1012000081807047FEE730B500234FF0E02145F2C2
:101210000724012505E04C618B610D610A69D20349
:10122000FCD5401E0B61F6D230BD4FF0E02100220C
:101230000A61C0EBC00000EB4000401E48618A61BB
:10124000012008610869C003FCD50A6170470000ED
:1012500010B501214020FFF7EFFC09484FF4007161
:101260000124016004710321417100218171C17168
:1012700001460448FFF7FAFB0348C0F8A44210BD3A
:101280000000002000180240000043422DE9F05FFA
:10129000534D80464FF400704FF0010A286085F8E6
:1012A00004A04FF0030B002485F805B085F806A0D4
:1012B00057462646EC7129464A48FFF7D7FBDFF828
:1012C0002891C9F8A4621220FFF79DFFC9F8A47203
:1012D0001E20FFF7AAFF4FF4007028602E7185F8DA
:1012E00005B0AE71EE7129463E48FFF7BFFB4FF4E3
:1012F0007A664D4609E00120641CFFF796FFB44270
:1013000003D34FF0FF30BDE8F09FD5F8240200284A
:10131000F1D1002408E00120641CFFF786FF642C53
:1013200002D36FF00100EEE7D5F824020028F2D0D6
:10133000002408E00120641CFFF777FF642C02D32F
:101340006FF00200DFE7D5F824020028F2D1002771
:10135000A94600260725002408E00120641CFFF7A9
:1013600064FF642C02D36FF00300CCE7D9F82402A9
:101370000028F2D02820FFF758FFD9F8240290B1B6
:101380000AFA05F03043C6B2002408E00120641CCC
:10139000FFF74BFF642C02D36FF00400B3E7D9F8DA
:1013A00024020028F2D16D1ED5D508F807607F1CF5
:1013B000052FCEDB98F8001098F8010098F802206D
:1013C000014498F803001044084498F80410C0B28F
:1013D000814202D06FF0050095E7002093E70000FE
:1013E00000000020001802400000434270B5074D85
:1013F000044681B22846FFF701FF80212846FFF707
:1014000065FE0028F9D0204670BD000000100140A4
:101410002DE9F05F4F4E0027C6F898720125C6F8F7
:101420009C524D4CC4F89852C4F8A052022004F5C6
:101430000B74FFF7E8FE2068A4F50B74002865D054
:10144000DFF81891D9F81402002865D0DFF8108170
:10145000D8F81802F0B3DFF80CA1DAF82402D0B300
:10146000C6F89852C6F89C72C4F89852C4F8A052B4
:101470000220FFF7C8FED4F82C0268B3D9F8140292
:1014800058B3D8F8180248B3DAF8240238B3C6F8CB
:101490009852C6F89C520020A346C4F89802C4F89B
:1014A000A052022004F50B74FFF7ADFE206878B35C
:1014B000D9F814024C4660B3D8F81802474648B32E
:1014C000DAF8240238B3C6F89852C6F89C52CBF822
:1014D000985205E022E023E024E025E026E027E022
:1014E0000020CBF8A00202200BF50B76FFF78BFE55
:1014F000306838B3D4F8140230B3D7F8180228B3E0
:10150000DAF8240220B34E20BDE8F09F3120FBE73B
:1015100010E011E012E013E03220F5E73320F3E7AA
:101520004120F1E73420EFE73520EDE73620EBE707
:101530004220E9E73720E7E73820E5E73920E3E70D
:101540004320E1E72A20DFE73020DDE72320DBE747
:101550004420D9E70080414200004142000042425D
:10156000000040420000434210B545F25550FFF7DD
:10157000E7FA0620FFF7D8FAF820FFF7DBFAFFF7C3
:10158000CBFABDE81040FFF7BFBA00007CB50121DF
:101590000846FFF751FB01210420FFF74DFB012115
:1015A0000820FFF749FB01211020FFF745FB01212F
:1015B0002020FFF741FB01214020FFF73DFB0125E3
:1015C000C0208DF80450002400908DF806400320C0
:1015D0008DF805008DF8074069461448FFF746FA74
:1015E0004FF4A070124E009069463046FFF73EFA65
:1015F00040208DF8075000908DF8044069460D4852
:10160000FFF734FA2020009069460B48FFF72EFAC6
:101610006802009069460948FFF728FAE80200903E
:1016200069463046FFF722FA7CBD0000000C0240FC
:101630000008024000000240001002400018024072
:1016400070B501211020FFF7F7FA20484FF48041D0
:101650000024016002210171417184711C4DC4712B
:1016600001462846FFF702FA01220E212846FFF71D
:1016700039FA01210846FFF7F7FA164840F60451F7
:10168000124D416042F2CF010180048144802D1F40
:1016900040F605502860104E0E493046FFF774FCA6
:1016A0000C4960200C31088001204880286888603F
:1016B0008C813046FFF736FC01213046FFF709FCEC
:1016C0003046BDE870400121FFF70DBC0C00002042
:1016D000001002404400002000000140CCB04FF058
:1016E000000A5446CDF810A14FF4807101A8CDF83E
:1016F00014A1FEF7ECFEFA4841AB002507C846945A
:10170000479483E807006E1E4FF0C80BA8462F468B
:101710004B954A95CDE948454FF4A060FFF782FA12
:10172000FFF722F9FFF712FAFFF78AFF00F0FEFB3E
:1017300000F03AFC00F0BEFCFFF728FF4FF4E13068
:1017400000F062FC4FF4165000F0D4FC4FF47A70B5
:10175000FFF759FD7D20FFF7E3FA012823D0E1A030
:10176000FEF794FDFFF78CFAFFF7FEFEE2A000F013
:101770002BFD3220FFF747FDE4A0FEF787FDE84888
:10178000D0F8A402002806F101000ED020B1E5A097
:10179000FEF77CFD4FF0FF36002F6AD0012F69D095
:1017A000022F68D110E3E3A0DAE750B9E6A0FEF714
:1017B0006DFD40F6B830FFF726FDE8A000F004FD0F
:1017C0000026EB4800780028E6D0E6B941A9E948B0
:1017D000FEF72AFE0028E749E7A033D0FEF756FDC2
:1017E00041A9E5A0FEF752FDE5A000F0EDFCCC4CD0
:1017F0000126C4F8A0624FF4967004F52874FFF730
:1018000002FDC4F800A0E4A1DA48FEF70DFE78B3AB
:10181000E34C20683C21B0FBF1F201FB120C226882
:101820004FF46160B2FBF0F300FB1322B2FBF1F363
:101830002168CDF800C0B1FBF0F2DAA101A8FEF7F3
:1018400031FD2FE0FEF722FD41A9CBA0FEF71EFDE2
:10185000DAA000F0B9FCB24C0120C4F8A0024FF4A9
:10186000FA6004F52874FFF7CEFCC4F800A09BE0F2
:1018700002E0A4E0AAE0A8E0D6A1BE48FEF7D4FDAD
:1018800038B3D6A1BB48FEF7C9FDD4A10020FEF7AE
:10189000C5FD0446FEF7DAFD072805D0D0A101A852
:1018A000FEF700FD01A878E00622214641A8FEF7D8
:1018B00035FECFA101A8FEF7F5FC01A800F084FCDD
:1018C0000A20FFF7A0FC41AACDA101A8FEF7EAFC7F
:1018D000E8E7CFA1A748FEF7A7FDD0B1CE4C20681E
:1018E0000A280DD36420FFF78EFCFFF7B1FC6420BB
:1018F000FFF789FC44A8FFF7C9FC8146C4F800A0A3
:10190000B9F1000F1FD19DF813319DF81221C3A129
:1019100026E0C6A19748FEF787FD28B3BE4C206895
:101920000A280DD36420FFF76EFCFFF791FC6420BA
:10193000FFF769FC44A8FFF7A9FC8146C4F800A0A2
:10194000B9F1000F07D0BBA000F03EFC4946BEA095
:10195000FEF79CFC23E09DF811319DF81021C0A1F9
:1019600001A8FEF79FFC9DE7C1A18248FEF75CFD40
:10197000A8B19AA17F48FEF751FD98A10020FEF77B
:101980004DFDFEF73DFDA0F1140140F68C72914231
:1019900002D88346B8A000E0BBA000F015FC4FF4CD
:1019A000807101A8FEF793FDBC49C1F800A0704901
:1019B00081F800A080216F48FEF767FDECE6FFF795
:1019C00027FD4E2801D001274A9003E2FFF720FDB2
:1019D00004464E28F9D04A988442F6D1504902274D
:1019E0000120C1F8A0026420FFF70DFC4C49C1F8AA
:1019F000A0A24B9840B14998F0B346A844556D1C3D
:101A0000EDB2062D64D0E5E146A844556D1CEDB25B
:101A10000A2DDAD141A9FEF707FDC0B101204B9094
:101A20009FA0FEF733FC3E4C0120C4F8A0024FF407
:101A3000967004F52874FFF7E6FB5046C4F800A042
:101A4000A168A4F5287489B1C4F8A8020EE09AA090
:101A5000FEF71CFC324C0120C4F8A0024FF4FA60DF
:101A600004F52874FFF7CFFBC4F800A0CDF818A147
:101A7000CDF81CA1002500E002E0CDF820A1A9E1ED
:101A8000412C0AD0422C24D0432C23D0442C22D0E9
:101A90002A2C21D0232C20D09CE15F4C20680A28DE
:101AA0000DD36420FFF7AFFBFFF7D2FB6420FFF7F5
:101AB000AAFB44A8FFF7EAFB8146C4F800A05FEA4E
:101AC00009000BD19DF813219DF8121180A027E188
:101AD0006AE10BE127E139E14FE160E100E100005B
:101AE0002C2200086F74686572207265736574201B
:101AF0006370750D0A00000041542B4E414D45594D
:101B0000616F6A756E7765690D0A00000AC7EBCAD6
:101B1000E4C8EBB5C7C2BCC3DCC2EB0D0A000000D1
:101B200000804242C0B6D1C0B6CFBFAAC1ACBDD3BF
:101B30000D0A00006977646720726573657420631D
:101B400070750D0A000000000AC0B6D1C0C9E8B126
:101B5000B8C1ACBDD3B3C9B9A60D0A00C7EBCAE47E
:101B6000C8EBB5C7C2BCC3DCC2EB0D0A0000000065
:101B700028000020A400002025730D0A00000000AA
:101B8000C3DCC2EBD5FDC8B7A3ACB5C7C2BCB3C9F3
:101B9000B9A60D0A0000000074696D653F000000E1
:101BA00014000020D4CBD0D0CAB1BCE43A2564687C
:101BB0002C25646D2C2564730D0A0000C3DCC2EB78
:101BC000B4EDCEF3A3ACC7EBD6D8D0C2CAE4C8EB11
:101BD0000D0A00006E657770773D00003D00000043
:101BE000C3DCC2EBB3A4B6C8B4EDCEF30D0A00005B
:101BF000D0DEB8C4C3DCC2EBB3C9B9A60D0A00007D
:101C0000D0C2B5C4C3DCC2EBA3BA25730D0A000071
:101C100074656D703F00000018000020CEC2B6C889
:101C2000A3BA25642E25640D0A00000068756D694D
:101C30003F000000CAA7B0DCA3ACC7EBC9D4BAF31D
:101C4000D4D9CAD40D0A0000646874313120657299
:101C5000726F7220636F6465203D2025640D0A0059
:101C6000CAAAB6C8A3BA25642E25640D0A000000CE
:101C70006469733D00000000C9E8D6C3BEE0C0EB54
:101C8000B3C9B9A60D0A0000C9E8D6C3BEE0C0EBCF
:101C9000B2BBBACFB7A80D0A000000002C0000208C
:101CA0000AC3DCC2EBD5FDC8B7A3ACB5C7C2BCB391
:101CB000C9B9A60D0A0000000AC3DCC2EBB4EDCE20
:101CC000F3A3ACB5C7C2BCCAA7B0DC0D0A000000C4
:101CD0000ACEC2B6C8A3BA25642E25640D0A000038
:101CE0000146AFF29C00FEF7D1FA73E0454C206844
:101CF0000A280DD36420FFF786FAFFF7A9FA6420BB
:101D0000FFF781FA44A8FFF7C1FA8146C4F800A0A2
:101D10005FEA0900E4D19DF811219DF810113AA065
:101D2000FEF7B4FA56E000F0DDF8044659463AA052
:101D3000FEF7ACFA21463FA0FEF7A8FA5C4501D2B7
:101D400042A000E047A0FEF7A1FA43E04A4C206819
:101D50003C21B0FBF1F201FB120322684FF46160F9
:101D6000B2FBF0FC00FB1C22B2FBF1F22168B1FBDC
:101D7000F0F142A0FEF78AFA2CE046A000F024FA27
:101D80004AA0FEF783FA45F25550FEF7D9FE00202F
:101D9000FEF7D0FEFEF7C0FEFEF7B6FE1AE046A044
:101DA000FEF774FA01200DE0024649A141A8FEF7B2
:101DB00079FA48A0FEF76AFA41A9AFF2BC10FEF723
:101DC00065FA0020499005E0FFF722FB4E2801D17B
:101DD00000274A9000F086F8834508D9B8F1000F33
:101DE0007FF4CDAC322000F0D1F8012007E0B8F14B
:101DF000000F3FF4C4AC642000F0C8F80020804617
:101E0000BDE40000180000200ACAAAB6C8A3BA257B
:101E1000642E25640D0A00000AB5B1C7B0C9E8B642
:101E2000A8B5C4B0B2C8ABB7B6CEA7CEAA25640DCC
:101E30000A000000B5B1C7B0B3ACC9F9B2A8B2E2AC
:101E4000BEE0CEAA25640D0A00000000BDF8C8EB74
:101E5000B3ACC9F9B2A8B1A8BEAFB7B6CEA70D0A48
:101E600000000000CFD6D4DAD4DAB0B2C8ABB7B62F
:101E7000CEA7C4DA0D0A0000140000200AD4CBD08B
:101E8000D0CAB1BCE43A2564682C25646D2C256465
:101E9000730D0A00CFB5CDB3B8B4CEBBA3ACC7EBBE
:101EA000D6D8D0C2C1ACBDD30D0A0000CFB5CDB3DA
:101EB000B8B4CEBB0D0A00000AC7EBCAE4C8EBD029
:101EC000DEB8C4BAF3B5C4C3DCC2EB0D0A0000002F
:101ED000257300000AD0DEB8C4C3DCC2EBCDEAB380
:101EE000C90D0A0070B50F4D00240120C5F89802F5
:101EF0000A2005F52675FFF798F9002028600A4D9D
:101F0000D5F818020028FBD003E00920641CFFF775
:101F10008CF9D5F818020028F7D1600800EB4000D2
:101F200070BD000000804042000042427CB50121AB
:101F30000220FEF781FE01211020FEF77DFE012028
:101F40008DF8040002268DF80560002440258DF8E8
:101F5000064000958DF8074069460948FEF786FD62
:101F60008DF804408DF8056000958DF807406946AE
:101F70000448FEF77BFD0448C0F898427CBD000091
:101F800000040240001002400080404204490968F9
:101F9000491C41436420B1FBF0F10248FEF7F2BF57
:101FA00008000020000001407FB501210220FEF75B
:101FB0004FFE42F20F70019042F2CF00ADF80000E8
:101FC0000024104DADF80840ADF80240694628469F
:101FD000FEF7DAFF012211462846FEF79BFF1D207F
:101FE0008DF80C008DF80D4001218DF80E108DF844
:101FF0000F1003A8FEF7E4FD01212846FEF769FF54
:102000007FBD00000004004070B50546012188B086
:102010000846FEF711FE01211020FEF725FE0221E1
:102020008DF814108DF815104FF4C06000241F4E69
:1020300004908DF816408DF8174004A93046FEF73D
:1020400015FD072209213046FEF74CFD07220A2123
:102050003046FEF747FD0095ADF808400C20144DC2
:10206000ADF80440ADF80A00ADF80640ADF80C40FC
:1020700069462846FFF768F8012240F225512846B4
:10208000FFF74AF825208DF818008DF819408DF8D3
:102090001A4001208DF81B0006A8FEF791FD0121D2
:1020A0002846FFF709F808B070BD000000000240A4
:1020B000001001403EB504210020FEF74BFE0A202F
:1020C0008DF8080000248DF809408DF80A4001259C
:1020D0008DF80B5002A8FEF773FD10208DF8044018
:1020E0008DF8050000908DF806506846FEF786FCD6
:1020F0003EBD0000F0B5064687B001210220FEF784
:102100009BFD01210420FEF797FD01218804FEF7C5
:102110009FFD02258DF804504FF440608DF8055066
:102120000024264F00908DF806408DF80740694640
:102130003846FEF79BFC07220A213846FEF7D2FC00
:1021400007220B213846FEF7CDFC0296ADF8104071
:102150000C201B4EADF80C40ADF81200ADF80E404F
:10216000ADF8144002A93046FEF7EEFF012240F21E
:1021700025513046FEF7D0FF27208DF818008DF846
:1021800019408DF81A4001208DF81B0006A8FEF7B3
:1021900017FD01213046FEF78FFF8DF80440102017
:1021A0008DF8055000908DF806408DF8074069467F
:1021B0000448FEF75BFC07B0F0BD000000040240DD
:1021C000004800400000024070B50446084D09E098
:1021D0002846FFF713F880212846FEF777FF0028EE
:1021E000F9D0641C002C02D021780029F0D170BDF8
:1021F0000048004010B500290AD00878002807D010
:1022000005487844FEF770FB002801D0002010BD7F
:102210000248784410BD0000560000004E00000047
:102220004FF04070E1EE100A704700003132333455
:102230003536000000000000682300080000002080
:1022400044000000C4010008AC2300084400002042
:1022500004070000E0010008100100004300000036
:10226000F8FFFFFF004040404040404040404141B7
:10227000414141404040404040404040404040405B
:1022800040404040400502020202020202020202F5
:1022900002020202022020202020202020202002F2
:1022A0000202020202029090909090901010101082
:1022B000101010101010101010101010101010101E
:1022C00002020202020288888888888808080808B2
:1022D000080808080808080808080808080808087E
:1022E00002020202400000000000000000000000A6
:1022F00000000000000000000000000000000000DE
:1023000000000000000000000000000000000000CD
:1023100000000000000000000000000000000000BD
:1023200000000000000000000000000000000000AD
:10233000000000000000000000000000000000009D
:10234000000000000000000000000000000000008D
:10235000000000000000000000000000000000007D
:10236000000000000000000000000000000000006D
:10237000000000000000000000000000000000005D
:102380000500000000000000000000000000000048
:102390000000000000000000000000000102030433
:0C23A00001020304060708090000000009
:0400000508000249A4
:00000001FF
